{
  "_format": "hh-sol-artifact-1",
  "contractName": "Lottery",
  "sourceName": "contracts/Lottery.sol",
  "abi": [
    {
      "inputs": [
        {
          "internalType": "address",
          "name": "vrfCoordinatorV2",
          "type": "address"
        },
        {
          "internalType": "uint256",
          "name": "entranceFee",
          "type": "uint256"
        },
        {
          "internalType": "bytes32",
          "name": "gasLane",
          "type": "bytes32"
        },
        {
          "internalType": "uint64",
          "name": "subscriptionId",
          "type": "uint64"
        },
        {
          "internalType": "uint32",
          "name": "callbackGasLimit",
          "type": "uint32"
        },
        {
          "internalType": "uint256",
          "name": "lotteryDuration",
          "type": "uint256"
        },
        {
          "internalType": "uint256",
          "name": "chainlinkAutomationUpdateInterval",
          "type": "uint256"
        }
      ],
      "stateMutability": "nonpayable",
      "type": "constructor"
    },
    {
      "inputs": [],
      "name": "Lottery__InsufficientEntryETH",
      "type": "error"
    },
    {
      "inputs": [
        {
          "internalType": "uint256",
          "name": "ethBalance",
          "type": "uint256"
        },
        {
          "internalType": "uint256",
          "name": "numEntrants",
          "type": "uint256"
        },
        {
          "internalType": "enum LotteryState",
          "name": "lotteryState",
          "type": "uint8"
        }
      ],
      "name": "Lottery__InvalidCallToPerformUpkeep",
      "type": "error"
    },
    {
      "inputs": [],
      "name": "Lottery__NotOpen",
      "type": "error"
    },
    {
      "inputs": [],
      "name": "Lottery__TransferFailed",
      "type": "error"
    },
    {
      "inputs": [
        {
          "internalType": "address",
          "name": "have",
          "type": "address"
        },
        {
          "internalType": "address",
          "name": "want",
          "type": "address"
        }
      ],
      "name": "OnlyCoordinatorCanFulfill",
      "type": "error"
    },
    {
      "anonymous": false,
      "inputs": [
        {
          "indexed": true,
          "internalType": "address",
          "name": "player",
          "type": "address"
        }
      ],
      "name": "LotteryEnter",
      "type": "event"
    },
    {
      "anonymous": false,
      "inputs": [
        {
          "indexed": true,
          "internalType": "uint256",
          "name": "requestId",
          "type": "uint256"
        }
      ],
      "name": "RequestedLotteryWinner",
      "type": "event"
    },
    {
      "anonymous": false,
      "inputs": [
        {
          "indexed": true,
          "internalType": "address",
          "name": "winner",
          "type": "address"
        }
      ],
      "name": "WinnerPicked",
      "type": "event"
    },
    {
      "inputs": [
        {
          "internalType": "bytes",
          "name": "",
          "type": "bytes"
        }
      ],
      "name": "checkUpkeep",
      "outputs": [
        {
          "internalType": "bool",
          "name": "upkeepNeeded",
          "type": "bool"
        },
        {
          "internalType": "bytes",
          "name": "performData",
          "type": "bytes"
        }
      ],
      "stateMutability": "view",
      "type": "function"
    },
    {
      "inputs": [],
      "name": "enterLottery",
      "outputs": [],
      "stateMutability": "payable",
      "type": "function"
    },
    {
      "inputs": [],
      "name": "getChainlinkAutomationUpdateInterval",
      "outputs": [
        {
          "internalType": "uint256",
          "name": "",
          "type": "uint256"
        }
      ],
      "stateMutability": "view",
      "type": "function"
    },
    {
      "inputs": [],
      "name": "getEntranceFee",
      "outputs": [
        {
          "internalType": "uint256",
          "name": "",
          "type": "uint256"
        }
      ],
      "stateMutability": "view",
      "type": "function"
    },
    {
      "inputs": [
        {
          "internalType": "uint256",
          "name": "index",
          "type": "uint256"
        }
      ],
      "name": "getEntrant",
      "outputs": [
        {
          "internalType": "address",
          "name": "",
          "type": "address"
        }
      ],
      "stateMutability": "view",
      "type": "function"
    },
    {
      "inputs": [],
      "name": "getLotteryDuration",
      "outputs": [
        {
          "internalType": "uint256",
          "name": "",
          "type": "uint256"
        }
      ],
      "stateMutability": "view",
      "type": "function"
    },
    {
      "inputs": [],
      "name": "getLotteryStartTimestamp",
      "outputs": [
        {
          "internalType": "uint256",
          "name": "",
          "type": "uint256"
        }
      ],
      "stateMutability": "view",
      "type": "function"
    },
    {
      "inputs": [],
      "name": "getLotteryState",
      "outputs": [
        {
          "internalType": "enum LotteryState",
          "name": "",
          "type": "uint8"
        }
      ],
      "stateMutability": "view",
      "type": "function"
    },
    {
      "inputs": [],
      "name": "getNumWords",
      "outputs": [
        {
          "internalType": "uint256",
          "name": "",
          "type": "uint256"
        }
      ],
      "stateMutability": "pure",
      "type": "function"
    },
    {
      "inputs": [],
      "name": "getNumberOfEntrants",
      "outputs": [
        {
          "internalType": "uint256",
          "name": "",
          "type": "uint256"
        }
      ],
      "stateMutability": "view",
      "type": "function"
    },
    {
      "inputs": [],
      "name": "getRecentWinner",
      "outputs": [
        {
          "internalType": "address",
          "name": "",
          "type": "address"
        }
      ],
      "stateMutability": "view",
      "type": "function"
    },
    {
      "inputs": [],
      "name": "getRequestConfirmations",
      "outputs": [
        {
          "internalType": "uint256",
          "name": "",
          "type": "uint256"
        }
      ],
      "stateMutability": "pure",
      "type": "function"
    },
    {
      "inputs": [
        {
          "internalType": "bytes",
          "name": "",
          "type": "bytes"
        }
      ],
      "name": "performUpkeep",
      "outputs": [],
      "stateMutability": "nonpayable",
      "type": "function"
    },
    {
      "inputs": [
        {
          "internalType": "uint256",
          "name": "requestId",
          "type": "uint256"
        },
        {
          "internalType": "uint256[]",
          "name": "randomWords",
          "type": "uint256[]"
        }
      ],
      "name": "rawFulfillRandomWords",
      "outputs": [],
      "stateMutability": "nonpayable",
      "type": "function"
    }
  ],
  "bytecode": "0x6101806040523480156200001257600080fd5b50604051620018c9380380620018c983398181016040528101906200003891906200029e565b868073ffffffffffffffffffffffffffffffffffffffff1660808173ffffffffffffffffffffffffffffffffffffffff1681525050508560a081815250508673ffffffffffffffffffffffffffffffffffffffff1660c08173ffffffffffffffffffffffffffffffffffffffff16815250508460e081815250508367ffffffffffffffff166101008167ffffffffffffffff16815250508263ffffffff166101208163ffffffff16815250506000600160146101000a81548160ff021916908360018111156200010d576200010c62000351565b5b0217905550426002819055508161014081815250508061016081815250505050505050505062000380565b600080fd5b600073ffffffffffffffffffffffffffffffffffffffff82169050919050565b60006200016a826200013d565b9050919050565b6200017c816200015d565b81146200018857600080fd5b50565b6000815190506200019c8162000171565b92915050565b6000819050919050565b620001b781620001a2565b8114620001c357600080fd5b50565b600081519050620001d781620001ac565b92915050565b6000819050919050565b620001f281620001dd565b8114620001fe57600080fd5b50565b6000815190506200021281620001e7565b92915050565b600067ffffffffffffffff82169050919050565b620002378162000218565b81146200024357600080fd5b50565b60008151905062000257816200022c565b92915050565b600063ffffffff82169050919050565b62000278816200025d565b81146200028457600080fd5b50565b60008151905062000298816200026d565b92915050565b600080600080600080600060e0888a031215620002c057620002bf62000138565b5b6000620002d08a828b016200018b565b9750506020620002e38a828b01620001c6565b9650506040620002f68a828b0162000201565b9550506060620003098a828b0162000246565b94505060806200031c8a828b0162000287565b93505060a06200032f8a828b01620001c6565b92505060c0620003428a828b01620001c6565b91505092959891949750929550565b7f4e487b7100000000000000000000000000000000000000000000000000000000600052602160045260246000fd5b60805160a05160c05160e051610100516101205161014051610160516114ce620003fb600039600061079901526000818161070f0152610771015260006105a601526000610583015260006105620152600061052601526000818161038701526107bf0152600081816103b9015261040d01526114ce6000f3fe6080604052600436106100dd5760003560e01c806353a2c19a1161007f5780636e04ff0d116100595780636e04ff0d1461029e5780636f3343b9146102dc578063b1b3175914610307578063c1af578514610332576100dd565b806353a2c19a1461021d5780635f1b0fd8146102485780636b68c03c14610273576100dd565b80631fe543e3116100bb5780631fe543e31461017557806336cfeadf1461019e5780634585e33b146101c9578063473f1ddc146101f2576100dd565b806304763ce0146100e257806309bc33a71461011f5780630dae95741461014a575b600080fd5b3480156100ee57600080fd5b5061010960048036038101906101049190610c4e565b61033c565b6040516101169190610cbc565b60405180910390f35b34801561012b57600080fd5b50610134610383565b6040516101419190610ce6565b60405180910390f35b34801561015657600080fd5b5061015f6103ab565b60405161016c9190610ce6565b60405180910390f35b34801561018157600080fd5b5061019c60048036038101906101979190610e5a565b6103b7565b005b3480156101aa57600080fd5b506101b3610477565b6040516101c09190610ce6565b60405180910390f35b3480156101d557600080fd5b506101f060048036038101906101eb9190610f11565b610481565b005b3480156101fe57600080fd5b5061020761065f565b6040516102149190610cbc565b60405180910390f35b34801561022957600080fd5b50610232610689565b60405161023f9190610ce6565b60405180910390f35b34801561025457600080fd5b5061025d610696565b60405161026a9190610ce6565b60405180910390f35b34801561027f57600080fd5b506102886106a3565b6040516102959190610fd5565b60405180910390f35b3480156102aa57600080fd5b506102c560048036038101906102c091906110a5565b6106ba565b6040516102d3929190611188565b60405180910390f35b3480156102e857600080fd5b506102f161076d565b6040516102fe9190610ce6565b60405180910390f35b34801561031357600080fd5b5061031c610795565b6040516103299190610ce6565b60405180910390f35b61033a6107bd565b005b6000808281548110610351576103506111b8565b5b9060005260206000200160009054906101000a900473ffffffffffffffffffffffffffffffffffffffff169050919050565b60007f0000000000000000000000000000000000000000000000000000000000000000905090565b60008080549050905090565b7f000000000000000000000000000000000000000000000000000000000000000073ffffffffffffffffffffffffffffffffffffffff163373ffffffffffffffffffffffffffffffffffffffff161461046957337f00000000000000000000000000000000000000000000000000000000000000006040517f1cf993f40000000000000000000000000000000000000000000000000000000081526004016104609291906111e7565b60405180910390fd5b610473828261092c565b5050565b6000600254905090565b600061049b604051806020016040528060008152506106ba565b50905060018060146101000a81548160ff021916908360018111156104c3576104c2610f5e565b5b0217905550806105225747600080549050600160149054906101000a900460ff166040517ff806585000000000000000000000000000000000000000000000000000000000815260040161051993929190611210565b60405180910390fd5b60007f000000000000000000000000000000000000000000000000000000000000000073ffffffffffffffffffffffffffffffffffffffff16635d3b1d307f00000000000000000000000000000000000000000000000000000000000000007f000000000000000000000000000000000000000000000000000000000000000060037f000000000000000000000000000000000000000000000000000000000000000060016040518663ffffffff1660e01b81526004016105e79594939291906112fa565b6020604051808303816000875af1158015610606573d6000803e3d6000fd5b505050506040513d601f19601f8201168201806040525081019061062a9190611362565b9050807febf56642252004c18a776f30d528e7a0ce8c5db14b6596fb6550f630c8a24c6c60405160405180910390a250505050565b6000600160009054906101000a900473ffffffffffffffffffffffffffffffffffffffff16905090565b6000600161ffff16905090565b6000600361ffff16905090565b6000600160149054906101000a900460ff16905090565b600060606000600160149054906101000a900460ff1660018111156106e2576106e1610f5e565b5b600060018111156106f6576106f5610f5e565b5b14905060006002544261070991906113be565b905060007f0000000000000000000000000000000000000000000000000000000000000000821190506000806000805490501190506000804711905084801561074f5750825b80156107585750815b80156107615750805b96505050505050915091565b60007f0000000000000000000000000000000000000000000000000000000000000000905090565b60007f0000000000000000000000000000000000000000000000000000000000000000905090565b7f0000000000000000000000000000000000000000000000000000000000000000341015610817576040517ff4220b0000000000000000000000000000000000000000000000000000000000815260040160405180910390fd5b6000600181111561082b5761082a610f5e565b5b600160149054906101000a900460ff16600181111561084d5761084c610f5e565b5b14610884576040517fe76be6fc00000000000000000000000000000000000000000000000000000000815260040160405180910390fd5b6000339080600181540180825580915050600190039060005260206000200160009091909190916101000a81548173ffffffffffffffffffffffffffffffffffffffff021916908373ffffffffffffffffffffffffffffffffffffffff1602179055503373ffffffffffffffffffffffffffffffffffffffff167f1d64fb5ba9f2548c5b98468d58f25b87b9e866afee0122e92d9fe722bf85076c60405160405180910390a2565b6000808054905082600081518110610947576109466111b8565b5b60200260200101516109599190611421565b905060008082815481106109705761096f6111b8565b5b9060005260206000200160009054906101000a900473ffffffffffffffffffffffffffffffffffffffff16905080600160006101000a81548173ffffffffffffffffffffffffffffffffffffffff021916908373ffffffffffffffffffffffffffffffffffffffff160217905550426002819055506000600160146101000a81548160ff02191690836001811115610a0b57610a0a610f5e565b5b0217905550600067ffffffffffffffff811115610a2b57610a2a610d17565b5b604051908082528060200260200182016040528015610a595781602001602082028036833780820191505090505b5060009080519060200190610a6f929190610b5d565b5060008173ffffffffffffffffffffffffffffffffffffffff1647604051610a9690611483565b60006040518083038185875af1925050503d8060008114610ad3576040519150601f19603f3d011682016040523d82523d6000602084013e610ad8565b606091505b5050905080610b13576040517f1c94012000000000000000000000000000000000000000000000000000000000815260040160405180910390fd5b8173ffffffffffffffffffffffffffffffffffffffff167f5b690ec4a06fe979403046eaeea5b3ce38524683c3001f662c8b5a829632f7df60405160405180910390a25050505050565b828054828255906000526020600020908101928215610bd6579160200282015b82811115610bd55782518260006101000a81548173ffffffffffffffffffffffffffffffffffffffff021916908373ffffffffffffffffffffffffffffffffffffffff16021790555091602001919060010190610b7d565b5b509050610be39190610be7565b5090565b5b80821115610c00576000816000905550600101610be8565b5090565b6000604051905090565b600080fd5b600080fd5b6000819050919050565b610c2b81610c18565b8114610c3657600080fd5b50565b600081359050610c4881610c22565b92915050565b600060208284031215610c6457610c63610c0e565b5b6000610c7284828501610c39565b91505092915050565b600073ffffffffffffffffffffffffffffffffffffffff82169050919050565b6000610ca682610c7b565b9050919050565b610cb681610c9b565b82525050565b6000602082019050610cd16000830184610cad565b92915050565b610ce081610c18565b82525050565b6000602082019050610cfb6000830184610cd7565b92915050565b600080fd5b6000601f19601f8301169050919050565b7f4e487b7100000000000000000000000000000000000000000000000000000000600052604160045260246000fd5b610d4f82610d06565b810181811067ffffffffffffffff82111715610d6e57610d6d610d17565b5b80604052505050565b6000610d81610c04565b9050610d8d8282610d46565b919050565b600067ffffffffffffffff821115610dad57610dac610d17565b5b602082029050602081019050919050565b600080fd5b6000610dd6610dd184610d92565b610d77565b90508083825260208201905060208402830185811115610df957610df8610dbe565b5b835b81811015610e225780610e0e8882610c39565b845260208401935050602081019050610dfb565b5050509392505050565b600082601f830112610e4157610e40610d01565b5b8135610e51848260208601610dc3565b91505092915050565b60008060408385031215610e7157610e70610c0e565b5b6000610e7f85828601610c39565b925050602083013567ffffffffffffffff811115610ea057610e9f610c13565b5b610eac85828601610e2c565b9150509250929050565b600080fd5b60008083601f840112610ed157610ed0610d01565b5b8235905067ffffffffffffffff811115610eee57610eed610eb6565b5b602083019150836001820283011115610f0a57610f09610dbe565b5b9250929050565b60008060208385031215610f2857610f27610c0e565b5b600083013567ffffffffffffffff811115610f4657610f45610c13565b5b610f5285828601610ebb565b92509250509250929050565b7f4e487b7100000000000000000000000000000000000000000000000000000000600052602160045260246000fd5b60028110610f9e57610f9d610f5e565b5b50565b6000819050610faf82610f8d565b919050565b6000610fbf82610fa1565b9050919050565b610fcf81610fb4565b82525050565b6000602082019050610fea6000830184610fc6565b92915050565b600080fd5b600067ffffffffffffffff8211156110105761100f610d17565b5b61101982610d06565b9050602081019050919050565b82818337600083830152505050565b600061104861104384610ff5565b610d77565b90508281526020810184848401111561106457611063610ff0565b5b61106f848285611026565b509392505050565b600082601f83011261108c5761108b610d01565b5b813561109c848260208601611035565b91505092915050565b6000602082840312156110bb576110ba610c0e565b5b600082013567ffffffffffffffff8111156110d9576110d8610c13565b5b6110e584828501611077565b91505092915050565b60008115159050919050565b611103816110ee565b82525050565b600081519050919050565b600082825260208201905092915050565b60005b83811015611143578082015181840152602081019050611128565b60008484015250505050565b600061115a82611109565b6111648185611114565b9350611174818560208601611125565b61117d81610d06565b840191505092915050565b600060408201905061119d60008301856110fa565b81810360208301526111af818461114f565b90509392505050565b7f4e487b7100000000000000000000000000000000000000000000000000000000600052603260045260246000fd5b60006040820190506111fc6000830185610cad565b6112096020830184610cad565b9392505050565b60006060820190506112256000830186610cd7565b6112326020830185610cd7565b61123f6040830184610fc6565b949350505050565b6000819050919050565b61125a81611247565b82525050565b600067ffffffffffffffff82169050919050565b61127d81611260565b82525050565b600061ffff82169050919050565b61129a81611283565b82525050565b600063ffffffff82169050919050565b6112b9816112a0565b82525050565b6000819050919050565b60006112e46112df6112da84611283565b6112bf565b6112a0565b9050919050565b6112f4816112c9565b82525050565b600060a08201905061130f6000830188611251565b61131c6020830187611274565b6113296040830186611291565b61133660608301856112b0565b61134360808301846112eb565b9695505050505050565b60008151905061135c81610c22565b92915050565b60006020828403121561137857611377610c0e565b5b60006113868482850161134d565b91505092915050565b7f4e487b7100000000000000000000000000000000000000000000000000000000600052601160045260246000fd5b60006113c982610c18565b91506113d483610c18565b92508282039050818111156113ec576113eb61138f565b5b92915050565b7f4e487b7100000000000000000000000000000000000000000000000000000000600052601260045260246000fd5b600061142c82610c18565b915061143783610c18565b925082611447576114466113f2565b5b828206905092915050565b600081905092915050565b50565b600061146d600083611452565b91506114788261145d565b600082019050919050565b600061148e82611460565b915081905091905056fea26469706673582212207a39d0086a51bc0e144f0ac5d53f766c5d30ee189bfe0537dc394b8fd57b3ae564736f6c63430008180033",
  "linkReferences": {},
  "deployedLinkReferences": {}
}