{
  "_format": "hh-sol-artifact-1",
  "contractName": "Lottery",
  "sourceName": "contracts/Lottery.sol",
  "abi": [
    {
      "inputs": [
        {
          "internalType": "address",
          "name": "vrfCoordinatorV2",
          "type": "address"
        },
        {
          "internalType": "uint256",
          "name": "entranceFee",
          "type": "uint256"
        },
        {
          "internalType": "bytes32",
          "name": "gasLane",
          "type": "bytes32"
        },
        {
          "internalType": "uint64",
          "name": "subscriptionId",
          "type": "uint64"
        },
        {
          "internalType": "uint32",
          "name": "callbackGasLimit",
          "type": "uint32"
        },
        {
          "internalType": "uint256",
          "name": "lotteryDuration",
          "type": "uint256"
        },
        {
          "internalType": "uint256",
          "name": "chainlinkAutomationUpdateInterval",
          "type": "uint256"
        }
      ],
      "stateMutability": "nonpayable",
      "type": "constructor"
    },
    {
      "inputs": [],
      "name": "Lottery__InsufficientEntryETH",
      "type": "error"
    },
    {
      "inputs": [],
      "name": "Lottery__NotOpen",
      "type": "error"
    },
    {
      "inputs": [],
      "name": "Lottery__TransferFailed",
      "type": "error"
    },
    {
      "inputs": [
        {
          "internalType": "uint256",
          "name": "ethBalance",
          "type": "uint256"
        },
        {
          "internalType": "uint256",
          "name": "numEntrants",
          "type": "uint256"
        },
        {
          "internalType": "enum LotteryState",
          "name": "lotteryState",
          "type": "uint8"
        }
      ],
      "name": "Lottery__UpkeepNotNeeded",
      "type": "error"
    },
    {
      "inputs": [
        {
          "internalType": "address",
          "name": "have",
          "type": "address"
        },
        {
          "internalType": "address",
          "name": "want",
          "type": "address"
        }
      ],
      "name": "OnlyCoordinatorCanFulfill",
      "type": "error"
    },
    {
      "anonymous": false,
      "inputs": [
        {
          "indexed": true,
          "internalType": "address",
          "name": "player",
          "type": "address"
        }
      ],
      "name": "LotteryEnter",
      "type": "event"
    },
    {
      "anonymous": false,
      "inputs": [
        {
          "indexed": true,
          "internalType": "uint256",
          "name": "requestId",
          "type": "uint256"
        }
      ],
      "name": "RequestedLotteryWinner",
      "type": "event"
    },
    {
      "anonymous": false,
      "inputs": [
        {
          "indexed": true,
          "internalType": "address",
          "name": "winner",
          "type": "address"
        }
      ],
      "name": "WinnerPicked",
      "type": "event"
    },
    {
      "inputs": [
        {
          "internalType": "bytes",
          "name": "",
          "type": "bytes"
        }
      ],
      "name": "checkUpkeep",
      "outputs": [
        {
          "internalType": "bool",
          "name": "upkeepNeeded",
          "type": "bool"
        },
        {
          "internalType": "bytes",
          "name": "performData",
          "type": "bytes"
        }
      ],
      "stateMutability": "view",
      "type": "function"
    },
    {
      "inputs": [],
      "name": "enterLottery",
      "outputs": [],
      "stateMutability": "payable",
      "type": "function"
    },
    {
      "inputs": [],
      "name": "getChainlinkAutomationUpdateInterval",
      "outputs": [
        {
          "internalType": "uint256",
          "name": "",
          "type": "uint256"
        }
      ],
      "stateMutability": "view",
      "type": "function"
    },
    {
      "inputs": [],
      "name": "getEntranceFee",
      "outputs": [
        {
          "internalType": "uint256",
          "name": "",
          "type": "uint256"
        }
      ],
      "stateMutability": "view",
      "type": "function"
    },
    {
      "inputs": [
        {
          "internalType": "uint256",
          "name": "index",
          "type": "uint256"
        }
      ],
      "name": "getEntrant",
      "outputs": [
        {
          "internalType": "address",
          "name": "",
          "type": "address"
        }
      ],
      "stateMutability": "view",
      "type": "function"
    },
    {
      "inputs": [],
      "name": "getLotteryDuration",
      "outputs": [
        {
          "internalType": "uint256",
          "name": "",
          "type": "uint256"
        }
      ],
      "stateMutability": "view",
      "type": "function"
    },
    {
      "inputs": [],
      "name": "getLotteryStartTimestamp",
      "outputs": [
        {
          "internalType": "uint256",
          "name": "",
          "type": "uint256"
        }
      ],
      "stateMutability": "view",
      "type": "function"
    },
    {
      "inputs": [],
      "name": "getLotteryState",
      "outputs": [
        {
          "internalType": "enum LotteryState",
          "name": "",
          "type": "uint8"
        }
      ],
      "stateMutability": "view",
      "type": "function"
    },
    {
      "inputs": [],
      "name": "getNumWords",
      "outputs": [
        {
          "internalType": "uint256",
          "name": "",
          "type": "uint256"
        }
      ],
      "stateMutability": "pure",
      "type": "function"
    },
    {
      "inputs": [],
      "name": "getNumberOfEntrants",
      "outputs": [
        {
          "internalType": "uint256",
          "name": "",
          "type": "uint256"
        }
      ],
      "stateMutability": "view",
      "type": "function"
    },
    {
      "inputs": [],
      "name": "getRecentWinner",
      "outputs": [
        {
          "internalType": "address",
          "name": "",
          "type": "address"
        }
      ],
      "stateMutability": "view",
      "type": "function"
    },
    {
      "inputs": [],
      "name": "getRequestConfirmations",
      "outputs": [
        {
          "internalType": "uint256",
          "name": "",
          "type": "uint256"
        }
      ],
      "stateMutability": "pure",
      "type": "function"
    },
    {
      "inputs": [],
      "name": "getTimeSoFar",
      "outputs": [
        {
          "internalType": "uint256",
          "name": "",
          "type": "uint256"
        }
      ],
      "stateMutability": "view",
      "type": "function"
    },
    {
      "inputs": [],
      "name": "getTimestamp",
      "outputs": [
        {
          "internalType": "uint256",
          "name": "",
          "type": "uint256"
        }
      ],
      "stateMutability": "view",
      "type": "function"
    },
    {
      "inputs": [
        {
          "internalType": "bytes",
          "name": "",
          "type": "bytes"
        }
      ],
      "name": "performUpkeep",
      "outputs": [],
      "stateMutability": "nonpayable",
      "type": "function"
    },
    {
      "inputs": [
        {
          "internalType": "uint256",
          "name": "requestId",
          "type": "uint256"
        },
        {
          "internalType": "uint256[]",
          "name": "randomWords",
          "type": "uint256[]"
        }
      ],
      "name": "rawFulfillRandomWords",
      "outputs": [],
      "stateMutability": "nonpayable",
      "type": "function"
    }
  ],
  "bytecode": "0x6101806040523480156200001257600080fd5b5060405162001dc138038062001dc18339818101604052810190620000389190620002b5565b868073ffffffffffffffffffffffffffffffffffffffff1660808173ffffffffffffffffffffffffffffffffffffffff1681525050508560a081815250508673ffffffffffffffffffffffffffffffffffffffff1660c08173ffffffffffffffffffffffffffffffffffffffff16815250508460e081815250508367ffffffffffffffff166101008167ffffffffffffffff16815250508263ffffffff166101208163ffffffff16815250506000600160146101000a81548160ff021916908360018111156200010d576200010c62000368565b5b0217905550620001226200014760201b60201c565b6002819055508161014081815250508061016081815250505050505050505062000397565b600042905090565b600080fd5b600073ffffffffffffffffffffffffffffffffffffffff82169050919050565b6000620001818262000154565b9050919050565b620001938162000174565b81146200019f57600080fd5b50565b600081519050620001b38162000188565b92915050565b6000819050919050565b620001ce81620001b9565b8114620001da57600080fd5b50565b600081519050620001ee81620001c3565b92915050565b6000819050919050565b6200020981620001f4565b81146200021557600080fd5b50565b6000815190506200022981620001fe565b92915050565b600067ffffffffffffffff82169050919050565b6200024e816200022f565b81146200025a57600080fd5b50565b6000815190506200026e8162000243565b92915050565b600063ffffffff82169050919050565b6200028f8162000274565b81146200029b57600080fd5b50565b600081519050620002af8162000284565b92915050565b600080600080600080600060e0888a031215620002d757620002d66200014f565b5b6000620002e78a828b01620001a2565b9750506020620002fa8a828b01620001dd565b96505060406200030d8a828b0162000218565b9550506060620003208a828b016200025d565b9450506080620003338a828b016200029e565b93505060a0620003468a828b01620001dd565b92505060c0620003598a828b01620001dd565b91505092959891949750929550565b7f4e487b7100000000000000000000000000000000000000000000000000000000600052602160045260246000fd5b60805160a05160c05160e051610100516101205161014051610160516119af62000412600039600061083e01526000818161079f01526108010152600061061a015260006105f7015260006105d60152600061059a0152600081816103f3015261086401526000818161042d015261048101526119af6000f3fe6080604052600436106100f35760003560e01c806353a2c19a1161008a5780636f3343b9116100595780636f3343b91461031d578063a3c459b614610348578063b1b3175914610373578063c1af57851461039e576100f3565b806353a2c19a1461025e5780635f1b0fd8146102895780636b68c03c146102b45780636e04ff0d146102df576100f3565b80631fe543e3116100c65780631fe543e3146101b657806336cfeadf146101df5780634585e33b1461020a578063473f1ddc14610233576100f3565b806304763ce0146100f857806309bc33a7146101355780630dae957414610160578063188ec3561461018b575b600080fd5b34801561010457600080fd5b5061011f600480360381019061011a9190610fbe565b6103a8565b60405161012c919061102c565b60405180910390f35b34801561014157600080fd5b5061014a6103ef565b6040516101579190611056565b60405180910390f35b34801561016c57600080fd5b50610175610417565b6040516101829190611056565b60405180910390f35b34801561019757600080fd5b506101a0610423565b6040516101ad9190611056565b60405180910390f35b3480156101c257600080fd5b506101dd60048036038101906101d891906111ca565b61042b565b005b3480156101eb57600080fd5b506101f46104eb565b6040516102019190611056565b60405180910390f35b34801561021657600080fd5b50610231600480360381019061022c9190611281565b6104f5565b005b34801561023f57600080fd5b506102486106f5565b604051610255919061102c565b60405180910390f35b34801561026a57600080fd5b5061027361071f565b6040516102809190611056565b60405180910390f35b34801561029557600080fd5b5061029e61072c565b6040516102ab9190611056565b60405180910390f35b3480156102c057600080fd5b506102c9610739565b6040516102d69190611345565b60405180910390f35b3480156102eb57600080fd5b5061030660048036038101906103019190611415565b610750565b6040516103149291906114f8565b60405180910390f35b34801561032957600080fd5b506103326107fd565b60405161033f9190611056565b60405180910390f35b34801561035457600080fd5b5061035d610825565b60405161036a9190611056565b60405180910390f35b34801561037f57600080fd5b5061038861083a565b6040516103959190611056565b60405180910390f35b6103a6610862565b005b60008082815481106103bd576103bc611528565b5b9060005260206000200160009054906101000a900473ffffffffffffffffffffffffffffffffffffffff169050919050565b60007f0000000000000000000000000000000000000000000000000000000000000000905090565b60008080549050905090565b600042905090565b7f000000000000000000000000000000000000000000000000000000000000000073ffffffffffffffffffffffffffffffffffffffff163373ffffffffffffffffffffffffffffffffffffffff16146104dd57337f00000000000000000000000000000000000000000000000000000000000000006040517f1cf993f40000000000000000000000000000000000000000000000000000000081526004016104d4929190611557565b60405180910390fd5b6104e782826109d1565b5050565b6000600254905090565b600061050f60405180602001604052806000815250610750565b50905060018060146101000a81548160ff02191690836001811115610537576105366112ce565b5b0217905550806105965747600080549050600160149054906101000a900460ff166040517f8c4c25f100000000000000000000000000000000000000000000000000000000815260040161058d93929190611580565b60405180910390fd5b60007f000000000000000000000000000000000000000000000000000000000000000073ffffffffffffffffffffffffffffffffffffffff16635d3b1d307f00000000000000000000000000000000000000000000000000000000000000007f000000000000000000000000000000000000000000000000000000000000000060037f000000000000000000000000000000000000000000000000000000000000000060016040518663ffffffff1660e01b815260040161065b95949392919061166a565b6020604051808303816000875af115801561067a573d6000803e3d6000fd5b505050506040513d601f19601f8201168201806040525081019061069e91906116d2565b90506106c26040518060600160405280603381526020016119476033913982610ca9565b807febf56642252004c18a776f30d528e7a0ce8c5db14b6596fb6550f630c8a24c6c60405160405180910390a250505050565b6000600160009054906101000a900473ffffffffffffffffffffffffffffffffffffffff16905090565b6000600161ffff16905090565b6000600361ffff16905090565b6000600160149054906101000a900460ff16905090565b600060606000600160149054906101000a900460ff166001811115610778576107776112ce565b5b6000600181111561078c5761078b6112ce565b5b1490506000610799610825565b905060007f000000000000000000000000000000000000000000000000000000000000000082119050600080600080549050119050600080471190508480156107df5750825b80156107e85750815b80156107f15750805b96505050505050915091565b60007f0000000000000000000000000000000000000000000000000000000000000000905090565b600060025442610835919061172e565b905090565b60007f0000000000000000000000000000000000000000000000000000000000000000905090565b7f00000000000000000000000000000000000000000000000000000000000000003410156108bc576040517ff4220b0000000000000000000000000000000000000000000000000000000000815260040160405180910390fd5b600060018111156108d0576108cf6112ce565b5b600160149054906101000a900460ff1660018111156108f2576108f16112ce565b5b14610929576040517fe76be6fc00000000000000000000000000000000000000000000000000000000815260040160405180910390fd5b6000339080600181540180825580915050600190039060005260206000200160009091909190916101000a81548173ffffffffffffffffffffffffffffffffffffffff021916908373ffffffffffffffffffffffffffffffffffffffff1602179055503373ffffffffffffffffffffffffffffffffffffffff167f1d64fb5ba9f2548c5b98468d58f25b87b9e866afee0122e92d9fe722bf85076c60405160405180910390a2565b6109f36040518060600160405280602a815260200161191d602a913983610ca9565b6000808054905082600081518110610a0e57610a0d611528565b5b6020026020010151610a209190611791565b90506000808281548110610a3757610a36611528565b5b9060005260206000200160009054906101000a900473ffffffffffffffffffffffffffffffffffffffff16905080600160006101000a81548173ffffffffffffffffffffffffffffffffffffffff021916908373ffffffffffffffffffffffffffffffffffffffff160217905550610aad610423565b6002819055506000600160146101000a81548160ff02191690836001811115610ad957610ad86112ce565b5b0217905550600067ffffffffffffffff811115610af957610af8611087565b5b604051908082528060200260200182016040528015610b275781602001602082028036833780820191505090505b5060009080519060200190610b3d929190610ec3565b5060008173ffffffffffffffffffffffffffffffffffffffff1647604051610b64906117f3565b60006040518083038185875af1925050503d8060008114610ba1576040519150601f19603f3d011682016040523d82523d6000602084013e610ba6565b606091505b5050905080610c1f57610bed6040518060400160405280602081526020017f4c6f74746572792e736f6c202d2077696e6e65722e63616c6c206661696c6564815250610d45565b6040517f1c94012000000000000000000000000000000000000000000000000000000000815260040160405180910390fd5b8173ffffffffffffffffffffffffffffffffffffffff167f5b690ec4a06fe979403046eaeea5b3ce38524683c3001f662c8b5a829632f7df60405160405180910390a2610ca26040518060400160405280601a81526020017f4c6f74746572792e736f6c202d2057696e6e65725069636b65640000000000008152508385610dde565b5050505050565b610d418282604051602401610cbf92919061185d565b6040516020818303038152906040527fb60e72cc000000000000000000000000000000000000000000000000000000007bffffffffffffffffffffffffffffffffffffffffffffffffffffffff19166020820180517bffffffffffffffffffffffffffffffffffffffffffffffffffffffff8381831617835250505050610e7d565b5050565b610ddb81604051602401610d59919061188d565b6040516020818303038152906040527f41304fac000000000000000000000000000000000000000000000000000000007bffffffffffffffffffffffffffffffffffffffffffffffffffffffff19166020820180517bffffffffffffffffffffffffffffffffffffffffffffffffffffffff8381831617835250505050610e7d565b50565b610e78838383604051602401610df6939291906118af565b6040516020818303038152906040527f0d26b925000000000000000000000000000000000000000000000000000000007bffffffffffffffffffffffffffffffffffffffffffffffffffffffff19166020820180517bffffffffffffffffffffffffffffffffffffffffffffffffffffffff8381831617835250505050610e7d565b505050565b610e9481610e8c610e97610eb8565b63ffffffff16565b50565b60006a636f6e736f6c652e6c6f679050600080835160208501845afa505050565b610f4d819050919050565b828054828255906000526020600020908101928215610f3c579160200282015b82811115610f3b5782518260006101000a81548173ffffffffffffffffffffffffffffffffffffffff021916908373ffffffffffffffffffffffffffffffffffffffff16021790555091602001919060010190610ee3565b5b509050610f499190610f57565b5090565b610f556118ed565b565b5b80821115610f70576000816000905550600101610f58565b5090565b6000604051905090565b600080fd5b600080fd5b6000819050919050565b610f9b81610f88565b8114610fa657600080fd5b50565b600081359050610fb881610f92565b92915050565b600060208284031215610fd457610fd3610f7e565b5b6000610fe284828501610fa9565b91505092915050565b600073ffffffffffffffffffffffffffffffffffffffff82169050919050565b600061101682610feb565b9050919050565b6110268161100b565b82525050565b6000602082019050611041600083018461101d565b92915050565b61105081610f88565b82525050565b600060208201905061106b6000830184611047565b92915050565b600080fd5b6000601f19601f8301169050919050565b7f4e487b7100000000000000000000000000000000000000000000000000000000600052604160045260246000fd5b6110bf82611076565b810181811067ffffffffffffffff821117156110de576110dd611087565b5b80604052505050565b60006110f1610f74565b90506110fd82826110b6565b919050565b600067ffffffffffffffff82111561111d5761111c611087565b5b602082029050602081019050919050565b600080fd5b600061114661114184611102565b6110e7565b905080838252602082019050602084028301858111156111695761116861112e565b5b835b81811015611192578061117e8882610fa9565b84526020840193505060208101905061116b565b5050509392505050565b600082601f8301126111b1576111b0611071565b5b81356111c1848260208601611133565b91505092915050565b600080604083850312156111e1576111e0610f7e565b5b60006111ef85828601610fa9565b925050602083013567ffffffffffffffff8111156112105761120f610f83565b5b61121c8582860161119c565b9150509250929050565b600080fd5b60008083601f84011261124157611240611071565b5b8235905067ffffffffffffffff81111561125e5761125d611226565b5b60208301915083600182028301111561127a5761127961112e565b5b9250929050565b6000806020838503121561129857611297610f7e565b5b600083013567ffffffffffffffff8111156112b6576112b5610f83565b5b6112c28582860161122b565b92509250509250929050565b7f4e487b7100000000000000000000000000000000000000000000000000000000600052602160045260246000fd5b6002811061130e5761130d6112ce565b5b50565b600081905061131f826112fd565b919050565b600061132f82611311565b9050919050565b61133f81611324565b82525050565b600060208201905061135a6000830184611336565b92915050565b600080fd5b600067ffffffffffffffff8211156113805761137f611087565b5b61138982611076565b9050602081019050919050565b82818337600083830152505050565b60006113b86113b384611365565b6110e7565b9050828152602081018484840111156113d4576113d3611360565b5b6113df848285611396565b509392505050565b600082601f8301126113fc576113fb611071565b5b813561140c8482602086016113a5565b91505092915050565b60006020828403121561142b5761142a610f7e565b5b600082013567ffffffffffffffff81111561144957611448610f83565b5b611455848285016113e7565b91505092915050565b60008115159050919050565b6114738161145e565b82525050565b600081519050919050565b600082825260208201905092915050565b60005b838110156114b3578082015181840152602081019050611498565b60008484015250505050565b60006114ca82611479565b6114d48185611484565b93506114e4818560208601611495565b6114ed81611076565b840191505092915050565b600060408201905061150d600083018561146a565b818103602083015261151f81846114bf565b90509392505050565b7f4e487b7100000000000000000000000000000000000000000000000000000000600052603260045260246000fd5b600060408201905061156c600083018561101d565b611579602083018461101d565b9392505050565b60006060820190506115956000830186611047565b6115a26020830185611047565b6115af6040830184611336565b949350505050565b6000819050919050565b6115ca816115b7565b82525050565b600067ffffffffffffffff82169050919050565b6115ed816115d0565b82525050565b600061ffff82169050919050565b61160a816115f3565b82525050565b600063ffffffff82169050919050565b61162981611610565b82525050565b6000819050919050565b600061165461164f61164a846115f3565b61162f565b611610565b9050919050565b61166481611639565b82525050565b600060a08201905061167f60008301886115c1565b61168c60208301876115e4565b6116996040830186611601565b6116a66060830185611620565b6116b3608083018461165b565b9695505050505050565b6000815190506116cc81610f92565b92915050565b6000602082840312156116e8576116e7610f7e565b5b60006116f6848285016116bd565b91505092915050565b7f4e487b7100000000000000000000000000000000000000000000000000000000600052601160045260246000fd5b600061173982610f88565b915061174483610f88565b925082820390508181111561175c5761175b6116ff565b5b92915050565b7f4e487b7100000000000000000000000000000000000000000000000000000000600052601260045260246000fd5b600061179c82610f88565b91506117a783610f88565b9250826117b7576117b6611762565b5b828206905092915050565b600081905092915050565b50565b60006117dd6000836117c2565b91506117e8826117cd565b600082019050919050565b60006117fe826117d0565b9150819050919050565b600081519050919050565b600082825260208201905092915050565b600061182f82611808565b6118398185611813565b9350611849818560208601611495565b61185281611076565b840191505092915050565b600060408201905081810360008301526118778185611824565b90506118866020830184611047565b9392505050565b600060208201905081810360008301526118a78184611824565b905092915050565b600060608201905081810360008301526118c98186611824565b90506118d8602083018561101d565b6118e56040830184611047565b949350505050565b7f4e487b7100000000000000000000000000000000000000000000000000000000600052605160045260246000fdfe4c6f74746572792e736f6c202d2066756c66696c6c52616e646f6d576f7264732c20656e746572696e67736f6c69646974793a706572666f726d55706b656570207265717565737452616e646f6d576f72647320726571756573744964a2646970667358221220d24ca61b4f935a960f510ca66ed00b58f926e7399a47725075b84567a19731a364736f6c63430008180033",
  "linkReferences": {},
  "deployedLinkReferences": {}
}