{
  "_format": "hh-sol-artifact-1",
  "contractName": "Lottery",
  "sourceName": "contracts/Lottery.sol",
  "abi": [
    {
      "inputs": [
        {
          "internalType": "address",
          "name": "vrfCoordinatorV2",
          "type": "address"
        },
        {
          "internalType": "uint256",
          "name": "entranceFee",
          "type": "uint256"
        },
        {
          "internalType": "bytes32",
          "name": "gasLane",
          "type": "bytes32"
        },
        {
          "internalType": "uint64",
          "name": "subscriptionId",
          "type": "uint64"
        },
        {
          "internalType": "uint32",
          "name": "callbackGasLimit",
          "type": "uint32"
        },
        {
          "internalType": "uint256",
          "name": "duration",
          "type": "uint256"
        }
      ],
      "stateMutability": "nonpayable",
      "type": "constructor"
    },
    {
      "inputs": [],
      "name": "Lottery__InsufficientEntryETH",
      "type": "error"
    },
    {
      "inputs": [
        {
          "internalType": "uint256",
          "name": "ethBalance",
          "type": "uint256"
        },
        {
          "internalType": "uint256",
          "name": "numEntrants",
          "type": "uint256"
        },
        {
          "internalType": "enum LotteryState",
          "name": "lotteryState",
          "type": "uint8"
        }
      ],
      "name": "Lottery__InvalidCallToPerformUpkeep",
      "type": "error"
    },
    {
      "inputs": [],
      "name": "Lottery__NotOpen",
      "type": "error"
    },
    {
      "inputs": [],
      "name": "Lottery__TransferFailed",
      "type": "error"
    },
    {
      "inputs": [
        {
          "internalType": "address",
          "name": "have",
          "type": "address"
        },
        {
          "internalType": "address",
          "name": "want",
          "type": "address"
        }
      ],
      "name": "OnlyCoordinatorCanFulfill",
      "type": "error"
    },
    {
      "anonymous": false,
      "inputs": [
        {
          "indexed": true,
          "internalType": "address",
          "name": "player",
          "type": "address"
        }
      ],
      "name": "LotteryEnter",
      "type": "event"
    },
    {
      "anonymous": false,
      "inputs": [
        {
          "indexed": true,
          "internalType": "uint256",
          "name": "requestId",
          "type": "uint256"
        }
      ],
      "name": "RequestedLotteryWinner",
      "type": "event"
    },
    {
      "anonymous": false,
      "inputs": [
        {
          "indexed": true,
          "internalType": "address",
          "name": "winner",
          "type": "address"
        }
      ],
      "name": "WinnerPicked",
      "type": "event"
    },
    {
      "inputs": [
        {
          "internalType": "bytes",
          "name": "",
          "type": "bytes"
        }
      ],
      "name": "checkUpkeep",
      "outputs": [
        {
          "internalType": "bool",
          "name": "upkeepNeeded",
          "type": "bool"
        },
        {
          "internalType": "bytes",
          "name": "performData",
          "type": "bytes"
        }
      ],
      "stateMutability": "view",
      "type": "function"
    },
    {
      "inputs": [],
      "name": "enterLottery",
      "outputs": [],
      "stateMutability": "payable",
      "type": "function"
    },
    {
      "inputs": [],
      "name": "getEntranceFee",
      "outputs": [
        {
          "internalType": "uint256",
          "name": "",
          "type": "uint256"
        }
      ],
      "stateMutability": "view",
      "type": "function"
    },
    {
      "inputs": [
        {
          "internalType": "uint256",
          "name": "index",
          "type": "uint256"
        }
      ],
      "name": "getEntrant",
      "outputs": [
        {
          "internalType": "address",
          "name": "",
          "type": "address"
        }
      ],
      "stateMutability": "view",
      "type": "function"
    },
    {
      "inputs": [],
      "name": "getLotteryState",
      "outputs": [
        {
          "internalType": "enum LotteryState",
          "name": "",
          "type": "uint8"
        }
      ],
      "stateMutability": "view",
      "type": "function"
    },
    {
      "inputs": [],
      "name": "getRecentWinner",
      "outputs": [
        {
          "internalType": "address",
          "name": "",
          "type": "address"
        }
      ],
      "stateMutability": "view",
      "type": "function"
    },
    {
      "inputs": [
        {
          "internalType": "bytes",
          "name": "",
          "type": "bytes"
        }
      ],
      "name": "performUpkeep",
      "outputs": [],
      "stateMutability": "nonpayable",
      "type": "function"
    },
    {
      "inputs": [
        {
          "internalType": "uint256",
          "name": "requestId",
          "type": "uint256"
        },
        {
          "internalType": "uint256[]",
          "name": "randomWords",
          "type": "uint256[]"
        }
      ],
      "name": "rawFulfillRandomWords",
      "outputs": [],
      "stateMutability": "nonpayable",
      "type": "function"
    }
  ],
  "bytecode": "0x6101606040523480156200001257600080fd5b50604051620016b2380380620016b2833981810160405281019062000038919062000294565b858073ffffffffffffffffffffffffffffffffffffffff1660808173ffffffffffffffffffffffffffffffffffffffff1681525050508460a081815250508573ffffffffffffffffffffffffffffffffffffffff1660c08173ffffffffffffffffffffffffffffffffffffffff16815250508360e081815250508267ffffffffffffffff166101008167ffffffffffffffff16815250508163ffffffff166101208163ffffffff16815250506000600160146101000a81548160ff021916908360018111156200010d576200010c62000330565b5b0217905550426002819055508061014081815250505050505050506200035f565b600080fd5b600073ffffffffffffffffffffffffffffffffffffffff82169050919050565b6000620001608262000133565b9050919050565b620001728162000153565b81146200017e57600080fd5b50565b600081519050620001928162000167565b92915050565b6000819050919050565b620001ad8162000198565b8114620001b957600080fd5b50565b600081519050620001cd81620001a2565b92915050565b6000819050919050565b620001e881620001d3565b8114620001f457600080fd5b50565b6000815190506200020881620001dd565b92915050565b600067ffffffffffffffff82169050919050565b6200022d816200020e565b81146200023957600080fd5b50565b6000815190506200024d8162000222565b92915050565b600063ffffffff82169050919050565b6200026e8162000253565b81146200027a57600080fd5b50565b6000815190506200028e8162000263565b92915050565b60008060008060008060c08789031215620002b457620002b36200012e565b5b6000620002c489828a0162000181565b9650506020620002d789828a01620001bc565b9550506040620002ea89828a01620001f7565b9450506060620002fd89828a016200023c565b93505060806200031089828a016200027d565b92505060a06200032389828a01620001bc565b9150509295509295509295565b7f4e487b7100000000000000000000000000000000000000000000000000000000600052602160045260246000fd5b60805160a05160c05160e0516101005161012051610140516112ea620003c8600039600061057b0152600061042c01526000610409015260006103e8015260006103ac01526000818161022301526105db015260008181610249015261029d01526112ea6000f3fe60806040526004361061007b5760003560e01c8063473f1ddc1161004e578063473f1ddc1461013a5780636b68c03c146101655780636e04ff0d14610190578063c1af5785146101ce5761007b565b806304763ce01461008057806309bc33a7146100bd5780631fe543e3146100e85780634585e33b14610111575b600080fd5b34801561008c57600080fd5b506100a760048036038101906100a29190610a6a565b6101d8565b6040516100b49190610ad8565b60405180910390f35b3480156100c957600080fd5b506100d261021f565b6040516100df9190610b02565b60405180910390f35b3480156100f457600080fd5b5061010f600480360381019061010a9190610c76565b610247565b005b34801561011d57600080fd5b5061013860048036038101906101339190610d2d565b610307565b005b34801561014657600080fd5b5061014f6104e5565b60405161015c9190610ad8565b60405180910390f35b34801561017157600080fd5b5061017a61050f565b6040516101879190610df1565b60405180910390f35b34801561019c57600080fd5b506101b760048036038101906101b29190610ec1565b610526565b6040516101c5929190610fa4565b60405180910390f35b6101d66105d9565b005b60008082815481106101ed576101ec610fd4565b5b9060005260206000200160009054906101000a900473ffffffffffffffffffffffffffffffffffffffff169050919050565b60007f0000000000000000000000000000000000000000000000000000000000000000905090565b7f000000000000000000000000000000000000000000000000000000000000000073ffffffffffffffffffffffffffffffffffffffff163373ffffffffffffffffffffffffffffffffffffffff16146102f957337f00000000000000000000000000000000000000000000000000000000000000006040517f1cf993f40000000000000000000000000000000000000000000000000000000081526004016102f0929190611003565b60405180910390fd5b6103038282610748565b5050565b600061032160405180602001604052806000815250610526565b50905060018060146101000a81548160ff0219169083600181111561034957610348610d7a565b5b0217905550806103a85747600080549050600160149054906101000a900460ff166040517ff806585000000000000000000000000000000000000000000000000000000000815260040161039f9392919061102c565b60405180910390fd5b60007f000000000000000000000000000000000000000000000000000000000000000073ffffffffffffffffffffffffffffffffffffffff16635d3b1d307f00000000000000000000000000000000000000000000000000000000000000007f000000000000000000000000000000000000000000000000000000000000000060037f000000000000000000000000000000000000000000000000000000000000000060016040518663ffffffff1660e01b815260040161046d959493929190611116565b6020604051808303816000875af115801561048c573d6000803e3d6000fd5b505050506040513d601f19601f820116820180604052508101906104b0919061117e565b9050807febf56642252004c18a776f30d528e7a0ce8c5db14b6596fb6550f630c8a24c6c60405160405180910390a250505050565b6000600160009054906101000a900473ffffffffffffffffffffffffffffffffffffffff16905090565b6000600160149054906101000a900460ff16905090565b600060606000600160149054906101000a900460ff16600181111561054e5761054d610d7a565b5b6000600181111561056257610561610d7a565b5b14905060006002544261057591906111da565b905060007f000000000000000000000000000000000000000000000000000000000000000082119050600080600080549050119050600080471190508480156105bb5750825b80156105c45750815b80156105cd5750805b96505050505050915091565b7f0000000000000000000000000000000000000000000000000000000000000000341015610633576040517ff4220b0000000000000000000000000000000000000000000000000000000000815260040160405180910390fd5b6000600181111561064757610646610d7a565b5b600160149054906101000a900460ff16600181111561066957610668610d7a565b5b146106a0576040517fe76be6fc00000000000000000000000000000000000000000000000000000000815260040160405180910390fd5b6000339080600181540180825580915050600190039060005260206000200160009091909190916101000a81548173ffffffffffffffffffffffffffffffffffffffff021916908373ffffffffffffffffffffffffffffffffffffffff1602179055503373ffffffffffffffffffffffffffffffffffffffff167f1d64fb5ba9f2548c5b98468d58f25b87b9e866afee0122e92d9fe722bf85076c60405160405180910390a2565b600080805490508260008151811061076357610762610fd4565b5b6020026020010151610775919061123d565b9050600080828154811061078c5761078b610fd4565b5b9060005260206000200160009054906101000a900473ffffffffffffffffffffffffffffffffffffffff16905080600160006101000a81548173ffffffffffffffffffffffffffffffffffffffff021916908373ffffffffffffffffffffffffffffffffffffffff160217905550426002819055506000600160146101000a81548160ff0219169083600181111561082757610826610d7a565b5b0217905550600067ffffffffffffffff81111561084757610846610b33565b5b6040519080825280602002602001820160405280156108755781602001602082028036833780820191505090505b506000908051906020019061088b929190610979565b5060008173ffffffffffffffffffffffffffffffffffffffff16476040516108b29061129f565b60006040518083038185875af1925050503d80600081146108ef576040519150601f19603f3d011682016040523d82523d6000602084013e6108f4565b606091505b505090508061092f576040517f1c94012000000000000000000000000000000000000000000000000000000000815260040160405180910390fd5b8173ffffffffffffffffffffffffffffffffffffffff167f5b690ec4a06fe979403046eaeea5b3ce38524683c3001f662c8b5a829632f7df60405160405180910390a25050505050565b8280548282559060005260206000209081019282156109f2579160200282015b828111156109f15782518260006101000a81548173ffffffffffffffffffffffffffffffffffffffff021916908373ffffffffffffffffffffffffffffffffffffffff16021790555091602001919060010190610999565b5b5090506109ff9190610a03565b5090565b5b80821115610a1c576000816000905550600101610a04565b5090565b6000604051905090565b600080fd5b600080fd5b6000819050919050565b610a4781610a34565b8114610a5257600080fd5b50565b600081359050610a6481610a3e565b92915050565b600060208284031215610a8057610a7f610a2a565b5b6000610a8e84828501610a55565b91505092915050565b600073ffffffffffffffffffffffffffffffffffffffff82169050919050565b6000610ac282610a97565b9050919050565b610ad281610ab7565b82525050565b6000602082019050610aed6000830184610ac9565b92915050565b610afc81610a34565b82525050565b6000602082019050610b176000830184610af3565b92915050565b600080fd5b6000601f19601f8301169050919050565b7f4e487b7100000000000000000000000000000000000000000000000000000000600052604160045260246000fd5b610b6b82610b22565b810181811067ffffffffffffffff82111715610b8a57610b89610b33565b5b80604052505050565b6000610b9d610a20565b9050610ba98282610b62565b919050565b600067ffffffffffffffff821115610bc957610bc8610b33565b5b602082029050602081019050919050565b600080fd5b6000610bf2610bed84610bae565b610b93565b90508083825260208201905060208402830185811115610c1557610c14610bda565b5b835b81811015610c3e5780610c2a8882610a55565b845260208401935050602081019050610c17565b5050509392505050565b600082601f830112610c5d57610c5c610b1d565b5b8135610c6d848260208601610bdf565b91505092915050565b60008060408385031215610c8d57610c8c610a2a565b5b6000610c9b85828601610a55565b925050602083013567ffffffffffffffff811115610cbc57610cbb610a2f565b5b610cc885828601610c48565b9150509250929050565b600080fd5b60008083601f840112610ced57610cec610b1d565b5b8235905067ffffffffffffffff811115610d0a57610d09610cd2565b5b602083019150836001820283011115610d2657610d25610bda565b5b9250929050565b60008060208385031215610d4457610d43610a2a565b5b600083013567ffffffffffffffff811115610d6257610d61610a2f565b5b610d6e85828601610cd7565b92509250509250929050565b7f4e487b7100000000000000000000000000000000000000000000000000000000600052602160045260246000fd5b60028110610dba57610db9610d7a565b5b50565b6000819050610dcb82610da9565b919050565b6000610ddb82610dbd565b9050919050565b610deb81610dd0565b82525050565b6000602082019050610e066000830184610de2565b92915050565b600080fd5b600067ffffffffffffffff821115610e2c57610e2b610b33565b5b610e3582610b22565b9050602081019050919050565b82818337600083830152505050565b6000610e64610e5f84610e11565b610b93565b905082815260208101848484011115610e8057610e7f610e0c565b5b610e8b848285610e42565b509392505050565b600082601f830112610ea857610ea7610b1d565b5b8135610eb8848260208601610e51565b91505092915050565b600060208284031215610ed757610ed6610a2a565b5b600082013567ffffffffffffffff811115610ef557610ef4610a2f565b5b610f0184828501610e93565b91505092915050565b60008115159050919050565b610f1f81610f0a565b82525050565b600081519050919050565b600082825260208201905092915050565b60005b83811015610f5f578082015181840152602081019050610f44565b60008484015250505050565b6000610f7682610f25565b610f808185610f30565b9350610f90818560208601610f41565b610f9981610b22565b840191505092915050565b6000604082019050610fb96000830185610f16565b8181036020830152610fcb8184610f6b565b90509392505050565b7f4e487b7100000000000000000000000000000000000000000000000000000000600052603260045260246000fd5b60006040820190506110186000830185610ac9565b6110256020830184610ac9565b9392505050565b60006060820190506110416000830186610af3565b61104e6020830185610af3565b61105b6040830184610de2565b949350505050565b6000819050919050565b61107681611063565b82525050565b600067ffffffffffffffff82169050919050565b6110998161107c565b82525050565b600061ffff82169050919050565b6110b68161109f565b82525050565b600063ffffffff82169050919050565b6110d5816110bc565b82525050565b6000819050919050565b60006111006110fb6110f68461109f565b6110db565b6110bc565b9050919050565b611110816110e5565b82525050565b600060a08201905061112b600083018861106d565b6111386020830187611090565b61114560408301866110ad565b61115260608301856110cc565b61115f6080830184611107565b9695505050505050565b60008151905061117881610a3e565b92915050565b60006020828403121561119457611193610a2a565b5b60006111a284828501611169565b91505092915050565b7f4e487b7100000000000000000000000000000000000000000000000000000000600052601160045260246000fd5b60006111e582610a34565b91506111f083610a34565b9250828203905081811115611208576112076111ab565b5b92915050565b7f4e487b7100000000000000000000000000000000000000000000000000000000600052601260045260246000fd5b600061124882610a34565b915061125383610a34565b9250826112635761126261120e565b5b828206905092915050565b600081905092915050565b50565b600061128960008361126e565b915061129482611279565b600082019050919050565b60006112aa8261127c565b915081905091905056fea26469706673582212207f465d14586900efb7d51f0ebb65ea5e5cab391c4b3ea32ed57fe08d0c51696664736f6c63430008180033",
  "linkReferences": {},
  "deployedLinkReferences": {}
}