{
  "_format": "hh-sol-artifact-1",
  "contractName": "Lottery",
  "sourceName": "contracts/Lottery.sol",
  "abi": [
    {
      "inputs": [
        {
          "internalType": "address",
          "name": "vrfCoordinatorV2",
          "type": "address"
        },
        {
          "internalType": "uint256",
          "name": "entranceFee",
          "type": "uint256"
        },
        {
          "internalType": "bytes32",
          "name": "gasLane",
          "type": "bytes32"
        },
        {
          "internalType": "uint64",
          "name": "subscriptionId",
          "type": "uint64"
        },
        {
          "internalType": "uint32",
          "name": "callbackGasLimit",
          "type": "uint32"
        },
        {
          "internalType": "uint256",
          "name": "duration",
          "type": "uint256"
        }
      ],
      "stateMutability": "nonpayable",
      "type": "constructor"
    },
    {
      "inputs": [],
      "name": "Lottery__InsufficientEntryETH",
      "type": "error"
    },
    {
      "inputs": [
        {
          "internalType": "uint256",
          "name": "ethBalance",
          "type": "uint256"
        },
        {
          "internalType": "uint256",
          "name": "numEntrants",
          "type": "uint256"
        },
        {
          "internalType": "enum LotteryState",
          "name": "lotteryState",
          "type": "uint8"
        }
      ],
      "name": "Lottery__InvalidCallToPerformUpkeep",
      "type": "error"
    },
    {
      "inputs": [],
      "name": "Lottery__NotOpen",
      "type": "error"
    },
    {
      "inputs": [],
      "name": "Lottery__TransferFailed",
      "type": "error"
    },
    {
      "inputs": [
        {
          "internalType": "address",
          "name": "have",
          "type": "address"
        },
        {
          "internalType": "address",
          "name": "want",
          "type": "address"
        }
      ],
      "name": "OnlyCoordinatorCanFulfill",
      "type": "error"
    },
    {
      "anonymous": false,
      "inputs": [
        {
          "indexed": true,
          "internalType": "address",
          "name": "player",
          "type": "address"
        }
      ],
      "name": "LotteryEnter",
      "type": "event"
    },
    {
      "anonymous": false,
      "inputs": [
        {
          "indexed": true,
          "internalType": "uint256",
          "name": "requestId",
          "type": "uint256"
        }
      ],
      "name": "RequestedLotteryWinner",
      "type": "event"
    },
    {
      "anonymous": false,
      "inputs": [
        {
          "indexed": true,
          "internalType": "address",
          "name": "winner",
          "type": "address"
        }
      ],
      "name": "WinnerPicked",
      "type": "event"
    },
    {
      "inputs": [
        {
          "internalType": "bytes",
          "name": "",
          "type": "bytes"
        }
      ],
      "name": "checkUpkeep",
      "outputs": [
        {
          "internalType": "bool",
          "name": "upkeepNeeded",
          "type": "bool"
        },
        {
          "internalType": "bytes",
          "name": "performData",
          "type": "bytes"
        }
      ],
      "stateMutability": "view",
      "type": "function"
    },
    {
      "inputs": [],
      "name": "enterLottery",
      "outputs": [],
      "stateMutability": "payable",
      "type": "function"
    },
    {
      "inputs": [],
      "name": "getEntranceFee",
      "outputs": [
        {
          "internalType": "uint256",
          "name": "",
          "type": "uint256"
        }
      ],
      "stateMutability": "view",
      "type": "function"
    },
    {
      "inputs": [
        {
          "internalType": "uint256",
          "name": "index",
          "type": "uint256"
        }
      ],
      "name": "getEntrant",
      "outputs": [
        {
          "internalType": "address",
          "name": "",
          "type": "address"
        }
      ],
      "stateMutability": "view",
      "type": "function"
    },
    {
      "inputs": [],
      "name": "getLotteryStartTimestamp",
      "outputs": [
        {
          "internalType": "uint256",
          "name": "",
          "type": "uint256"
        }
      ],
      "stateMutability": "view",
      "type": "function"
    },
    {
      "inputs": [],
      "name": "getLotteryState",
      "outputs": [
        {
          "internalType": "enum LotteryState",
          "name": "",
          "type": "uint8"
        }
      ],
      "stateMutability": "view",
      "type": "function"
    },
    {
      "inputs": [],
      "name": "getNumWords",
      "outputs": [
        {
          "internalType": "uint256",
          "name": "",
          "type": "uint256"
        }
      ],
      "stateMutability": "pure",
      "type": "function"
    },
    {
      "inputs": [],
      "name": "getNumberOfEntrants",
      "outputs": [
        {
          "internalType": "uint256",
          "name": "",
          "type": "uint256"
        }
      ],
      "stateMutability": "view",
      "type": "function"
    },
    {
      "inputs": [],
      "name": "getRecentWinner",
      "outputs": [
        {
          "internalType": "address",
          "name": "",
          "type": "address"
        }
      ],
      "stateMutability": "view",
      "type": "function"
    },
    {
      "inputs": [],
      "name": "getRequestConfirmations",
      "outputs": [
        {
          "internalType": "uint256",
          "name": "",
          "type": "uint256"
        }
      ],
      "stateMutability": "pure",
      "type": "function"
    },
    {
      "inputs": [
        {
          "internalType": "bytes",
          "name": "",
          "type": "bytes"
        }
      ],
      "name": "performUpkeep",
      "outputs": [],
      "stateMutability": "nonpayable",
      "type": "function"
    },
    {
      "inputs": [
        {
          "internalType": "uint256",
          "name": "requestId",
          "type": "uint256"
        },
        {
          "internalType": "uint256[]",
          "name": "randomWords",
          "type": "uint256[]"
        }
      ],
      "name": "rawFulfillRandomWords",
      "outputs": [],
      "stateMutability": "nonpayable",
      "type": "function"
    }
  ],
  "bytecode": "0x6101606040523480156200001257600080fd5b50604051620017ba380380620017ba833981810160405281019062000038919062000294565b858073ffffffffffffffffffffffffffffffffffffffff1660808173ffffffffffffffffffffffffffffffffffffffff1681525050508460a081815250508573ffffffffffffffffffffffffffffffffffffffff1660c08173ffffffffffffffffffffffffffffffffffffffff16815250508360e081815250508267ffffffffffffffff166101008167ffffffffffffffff16815250508163ffffffff166101208163ffffffff16815250506000600160146101000a81548160ff021916908360018111156200010d576200010c62000330565b5b0217905550426002819055508061014081815250505050505050506200035f565b600080fd5b600073ffffffffffffffffffffffffffffffffffffffff82169050919050565b6000620001608262000133565b9050919050565b620001728162000153565b81146200017e57600080fd5b50565b600081519050620001928162000167565b92915050565b6000819050919050565b620001ad8162000198565b8114620001b957600080fd5b50565b600081519050620001cd81620001a2565b92915050565b6000819050919050565b620001e881620001d3565b8114620001f457600080fd5b50565b6000815190506200020881620001dd565b92915050565b600067ffffffffffffffff82169050919050565b6200022d816200020e565b81146200023957600080fd5b50565b6000815190506200024d8162000222565b92915050565b600063ffffffff82169050919050565b6200026e8162000253565b81146200027a57600080fd5b50565b6000815190506200028e8162000263565b92915050565b60008060008060008060c08789031215620002b457620002b36200012e565b5b6000620002c489828a0162000181565b9650506020620002d789828a01620001bc565b9550506040620002ea89828a01620001f7565b9450506060620002fd89828a016200023c565b93505060806200031089828a016200027d565b92505060a06200032389828a01620001bc565b9150509295509295509295565b7f4e487b7100000000000000000000000000000000000000000000000000000000600052602160045260246000fd5b60805160a05160c05160e0516101005161012051610140516113f2620003c860003960006106830152600061051a015260006104f7015260006104d60152600061049a0152600081816102fb01526106e301526000818161032d015261038101526113f26000f3fe6080604052600436106100a75760003560e01c8063473f1ddc11610064578063473f1ddc146101bc57806353a2c19a146101e75780635f1b0fd8146102125780636b68c03c1461023d5780636e04ff0d14610268578063c1af5785146102a6576100a7565b806304763ce0146100ac57806309bc33a7146100e95780630dae9574146101145780631fe543e31461013f57806336cfeadf146101685780634585e33b14610193575b600080fd5b3480156100b857600080fd5b506100d360048036038101906100ce9190610b72565b6102b0565b6040516100e09190610be0565b60405180910390f35b3480156100f557600080fd5b506100fe6102f7565b60405161010b9190610c0a565b60405180910390f35b34801561012057600080fd5b5061012961031f565b6040516101369190610c0a565b60405180910390f35b34801561014b57600080fd5b5061016660048036038101906101619190610d7e565b61032b565b005b34801561017457600080fd5b5061017d6103eb565b60405161018a9190610c0a565b60405180910390f35b34801561019f57600080fd5b506101ba60048036038101906101b59190610e35565b6103f5565b005b3480156101c857600080fd5b506101d16105d3565b6040516101de9190610be0565b60405180910390f35b3480156101f357600080fd5b506101fc6105fd565b6040516102099190610c0a565b60405180910390f35b34801561021e57600080fd5b5061022761060a565b6040516102349190610c0a565b60405180910390f35b34801561024957600080fd5b50610252610617565b60405161025f9190610ef9565b60405180910390f35b34801561027457600080fd5b5061028f600480360381019061028a9190610fc9565b61062e565b60405161029d9291906110ac565b60405180910390f35b6102ae6106e1565b005b60008082815481106102c5576102c46110dc565b5b9060005260206000200160009054906101000a900473ffffffffffffffffffffffffffffffffffffffff169050919050565b60007f0000000000000000000000000000000000000000000000000000000000000000905090565b60008080549050905090565b7f000000000000000000000000000000000000000000000000000000000000000073ffffffffffffffffffffffffffffffffffffffff163373ffffffffffffffffffffffffffffffffffffffff16146103dd57337f00000000000000000000000000000000000000000000000000000000000000006040517f1cf993f40000000000000000000000000000000000000000000000000000000081526004016103d492919061110b565b60405180910390fd5b6103e78282610850565b5050565b6000600254905090565b600061040f6040518060200160405280600081525061062e565b50905060018060146101000a81548160ff0219169083600181111561043757610436610e82565b5b0217905550806104965747600080549050600160149054906101000a900460ff166040517ff806585000000000000000000000000000000000000000000000000000000000815260040161048d93929190611134565b60405180910390fd5b60007f000000000000000000000000000000000000000000000000000000000000000073ffffffffffffffffffffffffffffffffffffffff16635d3b1d307f00000000000000000000000000000000000000000000000000000000000000007f000000000000000000000000000000000000000000000000000000000000000060037f000000000000000000000000000000000000000000000000000000000000000060016040518663ffffffff1660e01b815260040161055b95949392919061121e565b6020604051808303816000875af115801561057a573d6000803e3d6000fd5b505050506040513d601f19601f8201168201806040525081019061059e9190611286565b9050807febf56642252004c18a776f30d528e7a0ce8c5db14b6596fb6550f630c8a24c6c60405160405180910390a250505050565b6000600160009054906101000a900473ffffffffffffffffffffffffffffffffffffffff16905090565b6000600161ffff16905090565b6000600361ffff16905090565b6000600160149054906101000a900460ff16905090565b600060606000600160149054906101000a900460ff16600181111561065657610655610e82565b5b6000600181111561066a57610669610e82565b5b14905060006002544261067d91906112e2565b905060007f000000000000000000000000000000000000000000000000000000000000000082119050600080600080549050119050600080471190508480156106c35750825b80156106cc5750815b80156106d55750805b96505050505050915091565b7f000000000000000000000000000000000000000000000000000000000000000034101561073b576040517ff4220b0000000000000000000000000000000000000000000000000000000000815260040160405180910390fd5b6000600181111561074f5761074e610e82565b5b600160149054906101000a900460ff16600181111561077157610770610e82565b5b146107a8576040517fe76be6fc00000000000000000000000000000000000000000000000000000000815260040160405180910390fd5b6000339080600181540180825580915050600190039060005260206000200160009091909190916101000a81548173ffffffffffffffffffffffffffffffffffffffff021916908373ffffffffffffffffffffffffffffffffffffffff1602179055503373ffffffffffffffffffffffffffffffffffffffff167f1d64fb5ba9f2548c5b98468d58f25b87b9e866afee0122e92d9fe722bf85076c60405160405180910390a2565b600080805490508260008151811061086b5761086a6110dc565b5b602002602001015161087d9190611345565b90506000808281548110610894576108936110dc565b5b9060005260206000200160009054906101000a900473ffffffffffffffffffffffffffffffffffffffff16905080600160006101000a81548173ffffffffffffffffffffffffffffffffffffffff021916908373ffffffffffffffffffffffffffffffffffffffff160217905550426002819055506000600160146101000a81548160ff0219169083600181111561092f5761092e610e82565b5b0217905550600067ffffffffffffffff81111561094f5761094e610c3b565b5b60405190808252806020026020018201604052801561097d5781602001602082028036833780820191505090505b5060009080519060200190610993929190610a81565b5060008173ffffffffffffffffffffffffffffffffffffffff16476040516109ba906113a7565b60006040518083038185875af1925050503d80600081146109f7576040519150601f19603f3d011682016040523d82523d6000602084013e6109fc565b606091505b5050905080610a37576040517f1c94012000000000000000000000000000000000000000000000000000000000815260040160405180910390fd5b8173ffffffffffffffffffffffffffffffffffffffff167f5b690ec4a06fe979403046eaeea5b3ce38524683c3001f662c8b5a829632f7df60405160405180910390a25050505050565b828054828255906000526020600020908101928215610afa579160200282015b82811115610af95782518260006101000a81548173ffffffffffffffffffffffffffffffffffffffff021916908373ffffffffffffffffffffffffffffffffffffffff16021790555091602001919060010190610aa1565b5b509050610b079190610b0b565b5090565b5b80821115610b24576000816000905550600101610b0c565b5090565b6000604051905090565b600080fd5b600080fd5b6000819050919050565b610b4f81610b3c565b8114610b5a57600080fd5b50565b600081359050610b6c81610b46565b92915050565b600060208284031215610b8857610b87610b32565b5b6000610b9684828501610b5d565b91505092915050565b600073ffffffffffffffffffffffffffffffffffffffff82169050919050565b6000610bca82610b9f565b9050919050565b610bda81610bbf565b82525050565b6000602082019050610bf56000830184610bd1565b92915050565b610c0481610b3c565b82525050565b6000602082019050610c1f6000830184610bfb565b92915050565b600080fd5b6000601f19601f8301169050919050565b7f4e487b7100000000000000000000000000000000000000000000000000000000600052604160045260246000fd5b610c7382610c2a565b810181811067ffffffffffffffff82111715610c9257610c91610c3b565b5b80604052505050565b6000610ca5610b28565b9050610cb18282610c6a565b919050565b600067ffffffffffffffff821115610cd157610cd0610c3b565b5b602082029050602081019050919050565b600080fd5b6000610cfa610cf584610cb6565b610c9b565b90508083825260208201905060208402830185811115610d1d57610d1c610ce2565b5b835b81811015610d465780610d328882610b5d565b845260208401935050602081019050610d1f565b5050509392505050565b600082601f830112610d6557610d64610c25565b5b8135610d75848260208601610ce7565b91505092915050565b60008060408385031215610d9557610d94610b32565b5b6000610da385828601610b5d565b925050602083013567ffffffffffffffff811115610dc457610dc3610b37565b5b610dd085828601610d50565b9150509250929050565b600080fd5b60008083601f840112610df557610df4610c25565b5b8235905067ffffffffffffffff811115610e1257610e11610dda565b5b602083019150836001820283011115610e2e57610e2d610ce2565b5b9250929050565b60008060208385031215610e4c57610e4b610b32565b5b600083013567ffffffffffffffff811115610e6a57610e69610b37565b5b610e7685828601610ddf565b92509250509250929050565b7f4e487b7100000000000000000000000000000000000000000000000000000000600052602160045260246000fd5b60028110610ec257610ec1610e82565b5b50565b6000819050610ed382610eb1565b919050565b6000610ee382610ec5565b9050919050565b610ef381610ed8565b82525050565b6000602082019050610f0e6000830184610eea565b92915050565b600080fd5b600067ffffffffffffffff821115610f3457610f33610c3b565b5b610f3d82610c2a565b9050602081019050919050565b82818337600083830152505050565b6000610f6c610f6784610f19565b610c9b565b905082815260208101848484011115610f8857610f87610f14565b5b610f93848285610f4a565b509392505050565b600082601f830112610fb057610faf610c25565b5b8135610fc0848260208601610f59565b91505092915050565b600060208284031215610fdf57610fde610b32565b5b600082013567ffffffffffffffff811115610ffd57610ffc610b37565b5b61100984828501610f9b565b91505092915050565b60008115159050919050565b61102781611012565b82525050565b600081519050919050565b600082825260208201905092915050565b60005b8381101561106757808201518184015260208101905061104c565b60008484015250505050565b600061107e8261102d565b6110888185611038565b9350611098818560208601611049565b6110a181610c2a565b840191505092915050565b60006040820190506110c1600083018561101e565b81810360208301526110d38184611073565b90509392505050565b7f4e487b7100000000000000000000000000000000000000000000000000000000600052603260045260246000fd5b60006040820190506111206000830185610bd1565b61112d6020830184610bd1565b9392505050565b60006060820190506111496000830186610bfb565b6111566020830185610bfb565b6111636040830184610eea565b949350505050565b6000819050919050565b61117e8161116b565b82525050565b600067ffffffffffffffff82169050919050565b6111a181611184565b82525050565b600061ffff82169050919050565b6111be816111a7565b82525050565b600063ffffffff82169050919050565b6111dd816111c4565b82525050565b6000819050919050565b60006112086112036111fe846111a7565b6111e3565b6111c4565b9050919050565b611218816111ed565b82525050565b600060a0820190506112336000830188611175565b6112406020830187611198565b61124d60408301866111b5565b61125a60608301856111d4565b611267608083018461120f565b9695505050505050565b60008151905061128081610b46565b92915050565b60006020828403121561129c5761129b610b32565b5b60006112aa84828501611271565b91505092915050565b7f4e487b7100000000000000000000000000000000000000000000000000000000600052601160045260246000fd5b60006112ed82610b3c565b91506112f883610b3c565b92508282039050818111156113105761130f6112b3565b5b92915050565b7f4e487b7100000000000000000000000000000000000000000000000000000000600052601260045260246000fd5b600061135082610b3c565b915061135b83610b3c565b92508261136b5761136a611316565b5b828206905092915050565b600081905092915050565b50565b6000611391600083611376565b915061139c82611381565b600082019050919050565b60006113b282611384565b915081905091905056fea2646970667358221220dfcf7823cb3539d97186dbf4a0acecc096e8e2d1e5f145ddc3d6f9c31a14521364736f6c63430008180033",
  "linkReferences": {},
  "deployedLinkReferences": {}
}