{
  "_format": "hh-sol-artifact-1",
  "contractName": "Lottery",
  "sourceName": "contracts/Lottery.sol",
  "abi": [
    {
      "inputs": [
        {
          "internalType": "address",
          "name": "vrfCoordinator",
          "type": "address"
        },
        {
          "internalType": "uint256",
          "name": "entranceFee",
          "type": "uint256"
        }
      ],
      "stateMutability": "nonpayable",
      "type": "constructor"
    },
    {
      "inputs": [],
      "name": "Lottery__InsufficientEntryETH",
      "type": "error"
    },
    {
      "inputs": [
        {
          "internalType": "address",
          "name": "have",
          "type": "address"
        },
        {
          "internalType": "address",
          "name": "want",
          "type": "address"
        }
      ],
      "name": "OnlyCoordinatorCanFulfill",
      "type": "error"
    },
    {
      "anonymous": false,
      "inputs": [
        {
          "indexed": true,
          "internalType": "address",
          "name": "player",
          "type": "address"
        }
      ],
      "name": "LotteryEnter",
      "type": "event"
    },
    {
      "inputs": [],
      "name": "enterLottery",
      "outputs": [],
      "stateMutability": "payable",
      "type": "function"
    },
    {
      "inputs": [],
      "name": "getEntranceFee",
      "outputs": [
        {
          "internalType": "uint256",
          "name": "",
          "type": "uint256"
        }
      ],
      "stateMutability": "view",
      "type": "function"
    },
    {
      "inputs": [
        {
          "internalType": "uint256",
          "name": "index",
          "type": "uint256"
        }
      ],
      "name": "getEntrant",
      "outputs": [
        {
          "internalType": "address",
          "name": "",
          "type": "address"
        }
      ],
      "stateMutability": "view",
      "type": "function"
    },
    {
      "inputs": [
        {
          "internalType": "uint256",
          "name": "requestId",
          "type": "uint256"
        },
        {
          "internalType": "uint256[]",
          "name": "randomWords",
          "type": "uint256[]"
        }
      ],
      "name": "rawFulfillRandomWords",
      "outputs": [],
      "stateMutability": "nonpayable",
      "type": "function"
    }
  ],
  "bytecode": "0x60c060405234801561001057600080fd5b506040516107d73803806107d783398181016040528101906100329190610110565b818073ffffffffffffffffffffffffffffffffffffffff1660808173ffffffffffffffffffffffffffffffffffffffff1681525050508060a081815250505050610150565b600080fd5b600073ffffffffffffffffffffffffffffffffffffffff82169050919050565b60006100a78261007c565b9050919050565b6100b78161009c565b81146100c257600080fd5b50565b6000815190506100d4816100ae565b92915050565b6000819050919050565b6100ed816100da565b81146100f857600080fd5b50565b60008151905061010a816100e4565b92915050565b6000806040838503121561012757610126610077565b5b6000610135858286016100c5565b9250506020610146858286016100fb565b9150509250929050565b60805160a0516106546101836000396000818161012a015261021001526000818161015001526101a401526106546000f3fe60806040526004361061003f5760003560e01c806304763ce01461004457806309bc33a7146100815780631fe543e3146100ac578063c1af5785146100d5575b600080fd5b34801561005057600080fd5b5061006b6004803603810190610066919061035e565b6100df565b60405161007891906103cc565b60405180910390f35b34801561008d57600080fd5b50610096610126565b6040516100a391906103f6565b60405180910390f35b3480156100b857600080fd5b506100d360048036038101906100ce919061056a565b61014e565b005b6100dd61020e565b005b60008082815481106100f4576100f36105c6565b5b9060005260206000200160009054906101000a900473ffffffffffffffffffffffffffffffffffffffff169050919050565b60007f0000000000000000000000000000000000000000000000000000000000000000905090565b7f000000000000000000000000000000000000000000000000000000000000000073ffffffffffffffffffffffffffffffffffffffff163373ffffffffffffffffffffffffffffffffffffffff161461020057337f00000000000000000000000000000000000000000000000000000000000000006040517f1cf993f40000000000000000000000000000000000000000000000000000000081526004016101f79291906105f5565b60405180910390fd5b61020a8282610310565b5050565b7f0000000000000000000000000000000000000000000000000000000000000000341015610268576040517ff4220b0000000000000000000000000000000000000000000000000000000000815260040160405180910390fd5b6000339080600181540180825580915050600190039060005260206000200160009091909190916101000a81548173ffffffffffffffffffffffffffffffffffffffff021916908373ffffffffffffffffffffffffffffffffffffffff1602179055503373ffffffffffffffffffffffffffffffffffffffff167f1d64fb5ba9f2548c5b98468d58f25b87b9e866afee0122e92d9fe722bf85076c60405160405180910390a2565b5050565b6000604051905090565b600080fd5b600080fd5b6000819050919050565b61033b81610328565b811461034657600080fd5b50565b60008135905061035881610332565b92915050565b6000602082840312156103745761037361031e565b5b600061038284828501610349565b91505092915050565b600073ffffffffffffffffffffffffffffffffffffffff82169050919050565b60006103b68261038b565b9050919050565b6103c6816103ab565b82525050565b60006020820190506103e160008301846103bd565b92915050565b6103f081610328565b82525050565b600060208201905061040b60008301846103e7565b92915050565b600080fd5b6000601f19601f8301169050919050565b7f4e487b7100000000000000000000000000000000000000000000000000000000600052604160045260246000fd5b61045f82610416565b810181811067ffffffffffffffff8211171561047e5761047d610427565b5b80604052505050565b6000610491610314565b905061049d8282610456565b919050565b600067ffffffffffffffff8211156104bd576104bc610427565b5b602082029050602081019050919050565b600080fd5b60006104e66104e1846104a2565b610487565b90508083825260208201905060208402830185811115610509576105086104ce565b5b835b81811015610532578061051e8882610349565b84526020840193505060208101905061050b565b5050509392505050565b600082601f83011261055157610550610411565b5b81356105618482602086016104d3565b91505092915050565b600080604083850312156105815761058061031e565b5b600061058f85828601610349565b925050602083013567ffffffffffffffff8111156105b0576105af610323565b5b6105bc8582860161053c565b9150509250929050565b7f4e487b7100000000000000000000000000000000000000000000000000000000600052603260045260246000fd5b600060408201905061060a60008301856103bd565b61061760208301846103bd565b939250505056fea26469706673582212208f68887e9e451111cb5fcae8a2850bb48609931862271dc875ff500edcdb5f2264736f6c63430008180033",
  "linkReferences": {},
  "deployedLinkReferences": {}
}