{
  "_format": "hh-sol-artifact-1",
  "contractName": "Lottery",
  "sourceName": "contracts/Lottery.sol",
  "abi": [
    {
      "inputs": [
        {
          "internalType": "address",
          "name": "vrfCoordinatorV2",
          "type": "address"
        },
        {
          "internalType": "uint256",
          "name": "entranceFee",
          "type": "uint256"
        },
        {
          "internalType": "bytes32",
          "name": "gasLane",
          "type": "bytes32"
        },
        {
          "internalType": "uint64",
          "name": "subscriptionId",
          "type": "uint64"
        },
        {
          "internalType": "uint32",
          "name": "callbackGasLimit",
          "type": "uint32"
        },
        {
          "internalType": "uint256",
          "name": "lotteryDuration",
          "type": "uint256"
        },
        {
          "internalType": "uint256",
          "name": "chainlinkAutomationUpdateInterval",
          "type": "uint256"
        }
      ],
      "stateMutability": "nonpayable",
      "type": "constructor"
    },
    {
      "inputs": [],
      "name": "Lottery__InsufficientEntryETH",
      "type": "error"
    },
    {
      "inputs": [],
      "name": "Lottery__NotOpen",
      "type": "error"
    },
    {
      "inputs": [],
      "name": "Lottery__TransferFailed",
      "type": "error"
    },
    {
      "inputs": [
        {
          "internalType": "uint256",
          "name": "ethBalance",
          "type": "uint256"
        },
        {
          "internalType": "uint256",
          "name": "numEntrants",
          "type": "uint256"
        },
        {
          "internalType": "enum LotteryState",
          "name": "lotteryState",
          "type": "uint8"
        }
      ],
      "name": "Lottery__UpkeepNotNeeded",
      "type": "error"
    },
    {
      "inputs": [
        {
          "internalType": "address",
          "name": "have",
          "type": "address"
        },
        {
          "internalType": "address",
          "name": "want",
          "type": "address"
        }
      ],
      "name": "OnlyCoordinatorCanFulfill",
      "type": "error"
    },
    {
      "anonymous": false,
      "inputs": [
        {
          "indexed": true,
          "internalType": "address",
          "name": "player",
          "type": "address"
        }
      ],
      "name": "LotteryEnter",
      "type": "event"
    },
    {
      "anonymous": false,
      "inputs": [
        {
          "indexed": true,
          "internalType": "uint256",
          "name": "requestId",
          "type": "uint256"
        }
      ],
      "name": "RequestedLotteryWinner",
      "type": "event"
    },
    {
      "anonymous": false,
      "inputs": [
        {
          "indexed": true,
          "internalType": "address",
          "name": "winner",
          "type": "address"
        }
      ],
      "name": "WinnerPicked",
      "type": "event"
    },
    {
      "inputs": [
        {
          "internalType": "bytes",
          "name": "",
          "type": "bytes"
        }
      ],
      "name": "checkUpkeep",
      "outputs": [
        {
          "internalType": "bool",
          "name": "upkeepNeeded",
          "type": "bool"
        },
        {
          "internalType": "bytes",
          "name": "performData",
          "type": "bytes"
        }
      ],
      "stateMutability": "view",
      "type": "function"
    },
    {
      "inputs": [],
      "name": "enterLottery",
      "outputs": [],
      "stateMutability": "payable",
      "type": "function"
    },
    {
      "inputs": [],
      "name": "getChainlinkAutomationUpdateInterval",
      "outputs": [
        {
          "internalType": "uint256",
          "name": "",
          "type": "uint256"
        }
      ],
      "stateMutability": "view",
      "type": "function"
    },
    {
      "inputs": [],
      "name": "getEntranceFee",
      "outputs": [
        {
          "internalType": "uint256",
          "name": "",
          "type": "uint256"
        }
      ],
      "stateMutability": "view",
      "type": "function"
    },
    {
      "inputs": [
        {
          "internalType": "uint256",
          "name": "index",
          "type": "uint256"
        }
      ],
      "name": "getEntrant",
      "outputs": [
        {
          "internalType": "address",
          "name": "",
          "type": "address"
        }
      ],
      "stateMutability": "view",
      "type": "function"
    },
    {
      "inputs": [],
      "name": "getLotteryDuration",
      "outputs": [
        {
          "internalType": "uint256",
          "name": "",
          "type": "uint256"
        }
      ],
      "stateMutability": "view",
      "type": "function"
    },
    {
      "inputs": [],
      "name": "getLotteryStartTimestamp",
      "outputs": [
        {
          "internalType": "uint256",
          "name": "",
          "type": "uint256"
        }
      ],
      "stateMutability": "view",
      "type": "function"
    },
    {
      "inputs": [],
      "name": "getLotteryState",
      "outputs": [
        {
          "internalType": "enum LotteryState",
          "name": "",
          "type": "uint8"
        }
      ],
      "stateMutability": "view",
      "type": "function"
    },
    {
      "inputs": [],
      "name": "getNumWords",
      "outputs": [
        {
          "internalType": "uint256",
          "name": "",
          "type": "uint256"
        }
      ],
      "stateMutability": "pure",
      "type": "function"
    },
    {
      "inputs": [],
      "name": "getNumberOfEntrants",
      "outputs": [
        {
          "internalType": "uint256",
          "name": "",
          "type": "uint256"
        }
      ],
      "stateMutability": "view",
      "type": "function"
    },
    {
      "inputs": [],
      "name": "getRecentWinner",
      "outputs": [
        {
          "internalType": "address",
          "name": "",
          "type": "address"
        }
      ],
      "stateMutability": "view",
      "type": "function"
    },
    {
      "inputs": [],
      "name": "getRequestConfirmations",
      "outputs": [
        {
          "internalType": "uint256",
          "name": "",
          "type": "uint256"
        }
      ],
      "stateMutability": "pure",
      "type": "function"
    },
    {
      "inputs": [],
      "name": "getTimeSoFar",
      "outputs": [
        {
          "internalType": "uint256",
          "name": "",
          "type": "uint256"
        }
      ],
      "stateMutability": "view",
      "type": "function"
    },
    {
      "inputs": [],
      "name": "getTimestamp",
      "outputs": [
        {
          "internalType": "uint256",
          "name": "",
          "type": "uint256"
        }
      ],
      "stateMutability": "view",
      "type": "function"
    },
    {
      "inputs": [
        {
          "internalType": "bytes",
          "name": "",
          "type": "bytes"
        }
      ],
      "name": "performUpkeep",
      "outputs": [],
      "stateMutability": "nonpayable",
      "type": "function"
    },
    {
      "inputs": [
        {
          "internalType": "uint256",
          "name": "requestId",
          "type": "uint256"
        },
        {
          "internalType": "uint256[]",
          "name": "randomWords",
          "type": "uint256[]"
        }
      ],
      "name": "rawFulfillRandomWords",
      "outputs": [],
      "stateMutability": "nonpayable",
      "type": "function"
    }
  ],
  "bytecode": "0x6101806040523480156200001257600080fd5b5060405162001b3738038062001b378339818101604052810190620000389190620002b5565b868073ffffffffffffffffffffffffffffffffffffffff1660808173ffffffffffffffffffffffffffffffffffffffff1681525050508560a081815250508673ffffffffffffffffffffffffffffffffffffffff1660c08173ffffffffffffffffffffffffffffffffffffffff16815250508460e081815250508367ffffffffffffffff166101008167ffffffffffffffff16815250508263ffffffff166101208163ffffffff16815250506000600160146101000a81548160ff021916908360018111156200010d576200010c62000368565b5b0217905550620001226200014760201b60201c565b6002819055508161014081815250508061016081815250505050505050505062000397565b600042905090565b600080fd5b600073ffffffffffffffffffffffffffffffffffffffff82169050919050565b6000620001818262000154565b9050919050565b620001938162000174565b81146200019f57600080fd5b50565b600081519050620001b38162000188565b92915050565b6000819050919050565b620001ce81620001b9565b8114620001da57600080fd5b50565b600081519050620001ee81620001c3565b92915050565b6000819050919050565b6200020981620001f4565b81146200021557600080fd5b50565b6000815190506200022981620001fe565b92915050565b600067ffffffffffffffff82169050919050565b6200024e816200022f565b81146200025a57600080fd5b50565b6000815190506200026e8162000243565b92915050565b600063ffffffff82169050919050565b6200028f8162000274565b81146200029b57600080fd5b50565b600081519050620002af8162000284565b92915050565b600080600080600080600060e0888a031215620002d757620002d66200014f565b5b6000620002e78a828b01620001a2565b9750506020620002fa8a828b01620001dd565b96505060406200030d8a828b0162000218565b9550506060620003208a828b016200025d565b9450506080620003338a828b016200029e565b93505060a0620003468a828b01620001dd565b92505060c0620003598a828b01620001dd565b91505092959891949750929550565b7f4e487b7100000000000000000000000000000000000000000000000000000000600052602160045260246000fd5b60805160a05160c05160e0516101005161012051610140516101605161172562000412600039600061081c01526000818161077d01526107df0152600061061a015260006105f7015260006105d60152600061059a0152600081816103f3015261084201526000818161042d015261048101526117256000f3fe6080604052600436106100f35760003560e01c806353a2c19a1161008a5780636f3343b9116100595780636f3343b91461031d578063a3c459b614610348578063b1b3175914610373578063c1af57851461039e576100f3565b806353a2c19a1461025e5780635f1b0fd8146102895780636b68c03c146102b45780636e04ff0d146102df576100f3565b80631fe543e3116100c65780631fe543e3146101b657806336cfeadf146101df5780634585e33b1461020a578063473f1ddc14610233576100f3565b806304763ce0146100f857806309bc33a7146101355780630dae957414610160578063188ec3561461018b575b600080fd5b34801561010457600080fd5b5061011f600480360381019061011a9190610dff565b6103a8565b60405161012c9190610e6d565b60405180910390f35b34801561014157600080fd5b5061014a6103ef565b6040516101579190610e97565b60405180910390f35b34801561016c57600080fd5b50610175610417565b6040516101829190610e97565b60405180910390f35b34801561019757600080fd5b506101a0610423565b6040516101ad9190610e97565b60405180910390f35b3480156101c257600080fd5b506101dd60048036038101906101d8919061100b565b61042b565b005b3480156101eb57600080fd5b506101f46104eb565b6040516102019190610e97565b60405180910390f35b34801561021657600080fd5b50610231600480360381019061022c91906110c2565b6104f5565b005b34801561023f57600080fd5b506102486106d3565b6040516102559190610e6d565b60405180910390f35b34801561026a57600080fd5b506102736106fd565b6040516102809190610e97565b60405180910390f35b34801561029557600080fd5b5061029e61070a565b6040516102ab9190610e97565b60405180910390f35b3480156102c057600080fd5b506102c9610717565b6040516102d69190611186565b60405180910390f35b3480156102eb57600080fd5b5061030660048036038101906103019190611256565b61072e565b604051610314929190611339565b60405180910390f35b34801561032957600080fd5b506103326107db565b60405161033f9190610e97565b60405180910390f35b34801561035457600080fd5b5061035d610803565b60405161036a9190610e97565b60405180910390f35b34801561037f57600080fd5b50610388610818565b6040516103959190610e97565b60405180910390f35b6103a6610840565b005b60008082815481106103bd576103bc611369565b5b9060005260206000200160009054906101000a900473ffffffffffffffffffffffffffffffffffffffff169050919050565b60007f0000000000000000000000000000000000000000000000000000000000000000905090565b60008080549050905090565b600042905090565b7f000000000000000000000000000000000000000000000000000000000000000073ffffffffffffffffffffffffffffffffffffffff163373ffffffffffffffffffffffffffffffffffffffff16146104dd57337f00000000000000000000000000000000000000000000000000000000000000006040517f1cf993f40000000000000000000000000000000000000000000000000000000081526004016104d4929190611398565b60405180910390fd5b6104e782826109af565b5050565b6000600254905090565b600061050f6040518060200160405280600081525061072e565b50905060018060146101000a81548160ff021916908360018111156105375761053661110f565b5b0217905550806105965747600080549050600160149054906101000a900460ff166040517f8c4c25f100000000000000000000000000000000000000000000000000000000815260040161058d939291906113c1565b60405180910390fd5b60007f000000000000000000000000000000000000000000000000000000000000000073ffffffffffffffffffffffffffffffffffffffff16635d3b1d307f00000000000000000000000000000000000000000000000000000000000000007f000000000000000000000000000000000000000000000000000000000000000060037f000000000000000000000000000000000000000000000000000000000000000060016040518663ffffffff1660e01b815260040161065b9594939291906114ab565b6020604051808303816000875af115801561067a573d6000803e3d6000fd5b505050506040513d601f19601f8201168201806040525081019061069e9190611513565b9050807febf56642252004c18a776f30d528e7a0ce8c5db14b6596fb6550f630c8a24c6c60405160405180910390a250505050565b6000600160009054906101000a900473ffffffffffffffffffffffffffffffffffffffff16905090565b6000600161ffff16905090565b6000600361ffff16905090565b6000600160149054906101000a900460ff16905090565b600060606000600160149054906101000a900460ff1660018111156107565761075561110f565b5b6000600181111561076a5761076961110f565b5b1490506000610777610803565b905060007f000000000000000000000000000000000000000000000000000000000000000082119050600080600080549050119050600080471190508480156107bd5750825b80156107c65750815b80156107cf5750805b96505050505050915091565b60007f0000000000000000000000000000000000000000000000000000000000000000905090565b600060025442610813919061156f565b905090565b60007f0000000000000000000000000000000000000000000000000000000000000000905090565b7f000000000000000000000000000000000000000000000000000000000000000034101561089a576040517ff4220b0000000000000000000000000000000000000000000000000000000000815260040160405180910390fd5b600060018111156108ae576108ad61110f565b5b600160149054906101000a900460ff1660018111156108d0576108cf61110f565b5b14610907576040517fe76be6fc00000000000000000000000000000000000000000000000000000000815260040160405180910390fd5b6000339080600181540180825580915050600190039060005260206000200160009091909190916101000a81548173ffffffffffffffffffffffffffffffffffffffff021916908373ffffffffffffffffffffffffffffffffffffffff1602179055503373ffffffffffffffffffffffffffffffffffffffff167f1d64fb5ba9f2548c5b98468d58f25b87b9e866afee0122e92d9fe722bf85076c60405160405180910390a2565b60008080549050826000815181106109ca576109c9611369565b5b60200260200101516109dc91906115d2565b905060008082815481106109f3576109f2611369565b5b9060005260206000200160009054906101000a900473ffffffffffffffffffffffffffffffffffffffff16905080600160006101000a81548173ffffffffffffffffffffffffffffffffffffffff021916908373ffffffffffffffffffffffffffffffffffffffff160217905550610a69610423565b6002819055506000600160146101000a81548160ff02191690836001811115610a9557610a9461110f565b5b0217905550600067ffffffffffffffff811115610ab557610ab4610ec8565b5b604051908082528060200260200182016040528015610ae35781602001602082028036833780820191505090505b5060009080519060200190610af9929190610d04565b5060008173ffffffffffffffffffffffffffffffffffffffff1647604051610b2090611634565b60006040518083038185875af1925050503d8060008114610b5d576040519150601f19603f3d011682016040523d82523d6000602084013e610b62565b606091505b5050905080610bdb57610ba96040518060400160405280602081526020017f4c6f74746572792e736f6c202d2077696e6e65722e63616c6c206661696c6564815250610c25565b6040517f1c94012000000000000000000000000000000000000000000000000000000000815260040160405180910390fd5b8173ffffffffffffffffffffffffffffffffffffffff167f5b690ec4a06fe979403046eaeea5b3ce38524683c3001f662c8b5a829632f7df60405160405180910390a25050505050565b610cbb81604051602401610c39919061169e565b6040516020818303038152906040527f41304fac000000000000000000000000000000000000000000000000000000007bffffffffffffffffffffffffffffffffffffffffffffffffffffffff19166020820180517bffffffffffffffffffffffffffffffffffffffffffffffffffffffff8381831617835250505050610cbe565b50565b610cd581610ccd610cd8610cf9565b63ffffffff16565b50565b60006a636f6e736f6c652e6c6f679050600080835160208501845afa505050565b610d8e819050919050565b828054828255906000526020600020908101928215610d7d579160200282015b82811115610d7c5782518260006101000a81548173ffffffffffffffffffffffffffffffffffffffff021916908373ffffffffffffffffffffffffffffffffffffffff16021790555091602001919060010190610d24565b5b509050610d8a9190610d98565b5090565b610d966116c0565b565b5b80821115610db1576000816000905550600101610d99565b5090565b6000604051905090565b600080fd5b600080fd5b6000819050919050565b610ddc81610dc9565b8114610de757600080fd5b50565b600081359050610df981610dd3565b92915050565b600060208284031215610e1557610e14610dbf565b5b6000610e2384828501610dea565b91505092915050565b600073ffffffffffffffffffffffffffffffffffffffff82169050919050565b6000610e5782610e2c565b9050919050565b610e6781610e4c565b82525050565b6000602082019050610e826000830184610e5e565b92915050565b610e9181610dc9565b82525050565b6000602082019050610eac6000830184610e88565b92915050565b600080fd5b6000601f19601f8301169050919050565b7f4e487b7100000000000000000000000000000000000000000000000000000000600052604160045260246000fd5b610f0082610eb7565b810181811067ffffffffffffffff82111715610f1f57610f1e610ec8565b5b80604052505050565b6000610f32610db5565b9050610f3e8282610ef7565b919050565b600067ffffffffffffffff821115610f5e57610f5d610ec8565b5b602082029050602081019050919050565b600080fd5b6000610f87610f8284610f43565b610f28565b90508083825260208201905060208402830185811115610faa57610fa9610f6f565b5b835b81811015610fd35780610fbf8882610dea565b845260208401935050602081019050610fac565b5050509392505050565b600082601f830112610ff257610ff1610eb2565b5b8135611002848260208601610f74565b91505092915050565b6000806040838503121561102257611021610dbf565b5b600061103085828601610dea565b925050602083013567ffffffffffffffff81111561105157611050610dc4565b5b61105d85828601610fdd565b9150509250929050565b600080fd5b60008083601f84011261108257611081610eb2565b5b8235905067ffffffffffffffff81111561109f5761109e611067565b5b6020830191508360018202830111156110bb576110ba610f6f565b5b9250929050565b600080602083850312156110d9576110d8610dbf565b5b600083013567ffffffffffffffff8111156110f7576110f6610dc4565b5b6111038582860161106c565b92509250509250929050565b7f4e487b7100000000000000000000000000000000000000000000000000000000600052602160045260246000fd5b6002811061114f5761114e61110f565b5b50565b60008190506111608261113e565b919050565b600061117082611152565b9050919050565b61118081611165565b82525050565b600060208201905061119b6000830184611177565b92915050565b600080fd5b600067ffffffffffffffff8211156111c1576111c0610ec8565b5b6111ca82610eb7565b9050602081019050919050565b82818337600083830152505050565b60006111f96111f4846111a6565b610f28565b905082815260208101848484011115611215576112146111a1565b5b6112208482856111d7565b509392505050565b600082601f83011261123d5761123c610eb2565b5b813561124d8482602086016111e6565b91505092915050565b60006020828403121561126c5761126b610dbf565b5b600082013567ffffffffffffffff81111561128a57611289610dc4565b5b61129684828501611228565b91505092915050565b60008115159050919050565b6112b48161129f565b82525050565b600081519050919050565b600082825260208201905092915050565b60005b838110156112f45780820151818401526020810190506112d9565b60008484015250505050565b600061130b826112ba565b61131581856112c5565b93506113258185602086016112d6565b61132e81610eb7565b840191505092915050565b600060408201905061134e60008301856112ab565b81810360208301526113608184611300565b90509392505050565b7f4e487b7100000000000000000000000000000000000000000000000000000000600052603260045260246000fd5b60006040820190506113ad6000830185610e5e565b6113ba6020830184610e5e565b9392505050565b60006060820190506113d66000830186610e88565b6113e36020830185610e88565b6113f06040830184611177565b949350505050565b6000819050919050565b61140b816113f8565b82525050565b600067ffffffffffffffff82169050919050565b61142e81611411565b82525050565b600061ffff82169050919050565b61144b81611434565b82525050565b600063ffffffff82169050919050565b61146a81611451565b82525050565b6000819050919050565b600061149561149061148b84611434565b611470565b611451565b9050919050565b6114a58161147a565b82525050565b600060a0820190506114c06000830188611402565b6114cd6020830187611425565b6114da6040830186611442565b6114e76060830185611461565b6114f4608083018461149c565b9695505050505050565b60008151905061150d81610dd3565b92915050565b60006020828403121561152957611528610dbf565b5b6000611537848285016114fe565b91505092915050565b7f4e487b7100000000000000000000000000000000000000000000000000000000600052601160045260246000fd5b600061157a82610dc9565b915061158583610dc9565b925082820390508181111561159d5761159c611540565b5b92915050565b7f4e487b7100000000000000000000000000000000000000000000000000000000600052601260045260246000fd5b60006115dd82610dc9565b91506115e883610dc9565b9250826115f8576115f76115a3565b5b828206905092915050565b600081905092915050565b50565b600061161e600083611603565b91506116298261160e565b600082019050919050565b600061163f82611611565b9150819050919050565b600081519050919050565b600082825260208201905092915050565b600061167082611649565b61167a8185611654565b935061168a8185602086016112d6565b61169381610eb7565b840191505092915050565b600060208201905081810360008301526116b88184611665565b905092915050565b7f4e487b7100000000000000000000000000000000000000000000000000000000600052605160045260246000fdfea2646970667358221220c9aacc6a66320a6542b4f025baff10aae87fed37bd6ca2a1b1e6d9165842b0d864736f6c63430008180033",
  "linkReferences": {},
  "deployedLinkReferences": {}
}