{
  "_format": "hh-sol-artifact-1",
  "contractName": "Lottery",
  "sourceName": "contracts/Lottery.sol",
  "abi": [
    {
      "inputs": [
        {
          "internalType": "address",
          "name": "vrfCoordinatorV2",
          "type": "address"
        },
        {
          "internalType": "uint256",
          "name": "entranceFee",
          "type": "uint256"
        },
        {
          "internalType": "bytes32",
          "name": "gasLane",
          "type": "bytes32"
        },
        {
          "internalType": "uint64",
          "name": "subscriptionId",
          "type": "uint64"
        },
        {
          "internalType": "uint32",
          "name": "callbackGasLimit",
          "type": "uint32"
        }
      ],
      "stateMutability": "nonpayable",
      "type": "constructor"
    },
    {
      "inputs": [],
      "name": "Lottery__InsufficientEntryETH",
      "type": "error"
    },
    {
      "inputs": [
        {
          "internalType": "address",
          "name": "have",
          "type": "address"
        },
        {
          "internalType": "address",
          "name": "want",
          "type": "address"
        }
      ],
      "name": "OnlyCoordinatorCanFulfill",
      "type": "error"
    },
    {
      "anonymous": false,
      "inputs": [
        {
          "indexed": true,
          "internalType": "address",
          "name": "player",
          "type": "address"
        }
      ],
      "name": "LotteryEnter",
      "type": "event"
    },
    {
      "anonymous": false,
      "inputs": [
        {
          "indexed": true,
          "internalType": "uint256",
          "name": "requestId",
          "type": "uint256"
        }
      ],
      "name": "RequestedLotteryWinner",
      "type": "event"
    },
    {
      "inputs": [],
      "name": "enterLottery",
      "outputs": [],
      "stateMutability": "payable",
      "type": "function"
    },
    {
      "inputs": [],
      "name": "getEntranceFee",
      "outputs": [
        {
          "internalType": "uint256",
          "name": "",
          "type": "uint256"
        }
      ],
      "stateMutability": "view",
      "type": "function"
    },
    {
      "inputs": [
        {
          "internalType": "uint256",
          "name": "index",
          "type": "uint256"
        }
      ],
      "name": "getEntrant",
      "outputs": [
        {
          "internalType": "address",
          "name": "",
          "type": "address"
        }
      ],
      "stateMutability": "view",
      "type": "function"
    },
    {
      "inputs": [
        {
          "internalType": "uint256",
          "name": "requestId",
          "type": "uint256"
        },
        {
          "internalType": "uint256[]",
          "name": "randomWords",
          "type": "uint256[]"
        }
      ],
      "name": "rawFulfillRandomWords",
      "outputs": [],
      "stateMutability": "nonpayable",
      "type": "function"
    },
    {
      "inputs": [],
      "name": "requestRandomWinner",
      "outputs": [],
      "stateMutability": "nonpayable",
      "type": "function"
    }
  ],
  "bytecode": "0x6101406040523480156200001257600080fd5b5060405162000c3338038062000c33833981810160405281019062000038919062000255565b848073ffffffffffffffffffffffffffffffffffffffff1660808173ffffffffffffffffffffffffffffffffffffffff1681525050508360a081815250508473ffffffffffffffffffffffffffffffffffffffff1660c08173ffffffffffffffffffffffffffffffffffffffff16815250508260e081815250508167ffffffffffffffff166101008167ffffffffffffffff16815250508063ffffffff166101208163ffffffff16815250505050505050620002dd565b600080fd5b600073ffffffffffffffffffffffffffffffffffffffff82169050919050565b60006200012182620000f4565b9050919050565b620001338162000114565b81146200013f57600080fd5b50565b600081519050620001538162000128565b92915050565b6000819050919050565b6200016e8162000159565b81146200017a57600080fd5b50565b6000815190506200018e8162000163565b92915050565b6000819050919050565b620001a98162000194565b8114620001b557600080fd5b50565b600081519050620001c9816200019e565b92915050565b600067ffffffffffffffff82169050919050565b620001ee81620001cf565b8114620001fa57600080fd5b50565b6000815190506200020e81620001e3565b92915050565b600063ffffffff82169050919050565b6200022f8162000214565b81146200023b57600080fd5b50565b6000815190506200024f8162000224565b92915050565b600080600080600060a08688031215620002745762000273620000ef565b5b6000620002848882890162000142565b955050602062000297888289016200017d565b9450506040620002aa88828901620001b8565b9350506060620002bd88828901620001fd565b9250506080620002d0888289016200023e565b9150509295509295909350565b60805160a05160c05160e05161010051610120516108f86200033b60003960006102b401526000610291015260006102700152600061023401526000818161014c015261036c01526000818161017201526101c601526108f86000f3fe60806040526004361061004a5760003560e01c806304763ce01461004f57806309bc33a71461008c5780631fe543e3146100b7578063522a1f0b146100e0578063c1af5785146100f7575b600080fd5b34801561005b57600080fd5b50610076600480360381019061007191906104ba565b610101565b6040516100839190610528565b60405180910390f35b34801561009857600080fd5b506100a1610148565b6040516100ae9190610552565b60405180910390f35b3480156100c357600080fd5b506100de60048036038101906100d991906106c6565b610170565b005b3480156100ec57600080fd5b506100f5610230565b005b6100ff61036a565b005b600080828154811061011657610115610722565b5b9060005260206000200160009054906101000a900473ffffffffffffffffffffffffffffffffffffffff169050919050565b60007f0000000000000000000000000000000000000000000000000000000000000000905090565b7f000000000000000000000000000000000000000000000000000000000000000073ffffffffffffffffffffffffffffffffffffffff163373ffffffffffffffffffffffffffffffffffffffff161461022257337f00000000000000000000000000000000000000000000000000000000000000006040517f1cf993f4000000000000000000000000000000000000000000000000000000008152600401610219929190610751565b60405180910390fd5b61022c828261046c565b5050565b60007f000000000000000000000000000000000000000000000000000000000000000073ffffffffffffffffffffffffffffffffffffffff16635d3b1d307f00000000000000000000000000000000000000000000000000000000000000007f000000000000000000000000000000000000000000000000000000000000000060037f000000000000000000000000000000000000000000000000000000000000000060016040518663ffffffff1660e01b81526004016102f595949392919061082d565b6020604051808303816000875af1158015610314573d6000803e3d6000fd5b505050506040513d601f19601f820116820180604052508101906103389190610895565b9050807febf56642252004c18a776f30d528e7a0ce8c5db14b6596fb6550f630c8a24c6c60405160405180910390a250565b7f00000000000000000000000000000000000000000000000000000000000000003410156103c4576040517ff4220b0000000000000000000000000000000000000000000000000000000000815260040160405180910390fd5b6000339080600181540180825580915050600190039060005260206000200160009091909190916101000a81548173ffffffffffffffffffffffffffffffffffffffff021916908373ffffffffffffffffffffffffffffffffffffffff1602179055503373ffffffffffffffffffffffffffffffffffffffff167f1d64fb5ba9f2548c5b98468d58f25b87b9e866afee0122e92d9fe722bf85076c60405160405180910390a2565b5050565b6000604051905090565b600080fd5b600080fd5b6000819050919050565b61049781610484565b81146104a257600080fd5b50565b6000813590506104b48161048e565b92915050565b6000602082840312156104d0576104cf61047a565b5b60006104de848285016104a5565b91505092915050565b600073ffffffffffffffffffffffffffffffffffffffff82169050919050565b6000610512826104e7565b9050919050565b61052281610507565b82525050565b600060208201905061053d6000830184610519565b92915050565b61054c81610484565b82525050565b60006020820190506105676000830184610543565b92915050565b600080fd5b6000601f19601f8301169050919050565b7f4e487b7100000000000000000000000000000000000000000000000000000000600052604160045260246000fd5b6105bb82610572565b810181811067ffffffffffffffff821117156105da576105d9610583565b5b80604052505050565b60006105ed610470565b90506105f982826105b2565b919050565b600067ffffffffffffffff82111561061957610618610583565b5b602082029050602081019050919050565b600080fd5b600061064261063d846105fe565b6105e3565b905080838252602082019050602084028301858111156106655761066461062a565b5b835b8181101561068e578061067a88826104a5565b845260208401935050602081019050610667565b5050509392505050565b600082601f8301126106ad576106ac61056d565b5b81356106bd84826020860161062f565b91505092915050565b600080604083850312156106dd576106dc61047a565b5b60006106eb858286016104a5565b925050602083013567ffffffffffffffff81111561070c5761070b61047f565b5b61071885828601610698565b9150509250929050565b7f4e487b7100000000000000000000000000000000000000000000000000000000600052603260045260246000fd5b60006040820190506107666000830185610519565b6107736020830184610519565b9392505050565b6000819050919050565b61078d8161077a565b82525050565b600067ffffffffffffffff82169050919050565b6107b081610793565b82525050565b600061ffff82169050919050565b6107cd816107b6565b82525050565b600063ffffffff82169050919050565b6107ec816107d3565b82525050565b6000819050919050565b600061081761081261080d846107b6565b6107f2565b6107d3565b9050919050565b610827816107fc565b82525050565b600060a0820190506108426000830188610784565b61084f60208301876107a7565b61085c60408301866107c4565b61086960608301856107e3565b610876608083018461081e565b9695505050505050565b60008151905061088f8161048e565b92915050565b6000602082840312156108ab576108aa61047a565b5b60006108b984828501610880565b9150509291505056fea264697066735822122011e409b7d0f3031a9b6c25d33e011389a996b8c929b56037905d555bde42ff5a64736f6c63430008180033",
  "linkReferences": {},
  "deployedLinkReferences": {}
}