{
  "_format": "hh-sol-artifact-1",
  "contractName": "Lottery",
  "sourceName": "contracts/Lottery.sol",
  "abi": [
    {
      "inputs": [
        {
          "internalType": "address",
          "name": "vrfCoordinatorV2",
          "type": "address"
        },
        {
          "internalType": "uint256",
          "name": "entranceFee",
          "type": "uint256"
        },
        {
          "internalType": "bytes32",
          "name": "gasLane",
          "type": "bytes32"
        },
        {
          "internalType": "uint64",
          "name": "subscriptionId",
          "type": "uint64"
        },
        {
          "internalType": "uint32",
          "name": "callbackGasLimit",
          "type": "uint32"
        },
        {
          "internalType": "uint256",
          "name": "duration",
          "type": "uint256"
        }
      ],
      "stateMutability": "nonpayable",
      "type": "constructor"
    },
    {
      "inputs": [],
      "name": "Lottery__InsufficientEntryETH",
      "type": "error"
    },
    {
      "inputs": [
        {
          "internalType": "uint256",
          "name": "ethBalance",
          "type": "uint256"
        },
        {
          "internalType": "uint256",
          "name": "numEntrants",
          "type": "uint256"
        },
        {
          "internalType": "enum LotteryState",
          "name": "lotteryState",
          "type": "uint8"
        }
      ],
      "name": "Lottery__InvalidCallToPerformUpkeep",
      "type": "error"
    },
    {
      "inputs": [],
      "name": "Lottery__NotOpen",
      "type": "error"
    },
    {
      "inputs": [],
      "name": "Lottery__TransferFailed",
      "type": "error"
    },
    {
      "inputs": [
        {
          "internalType": "address",
          "name": "have",
          "type": "address"
        },
        {
          "internalType": "address",
          "name": "want",
          "type": "address"
        }
      ],
      "name": "OnlyCoordinatorCanFulfill",
      "type": "error"
    },
    {
      "anonymous": false,
      "inputs": [
        {
          "indexed": true,
          "internalType": "address",
          "name": "player",
          "type": "address"
        }
      ],
      "name": "LotteryEnter",
      "type": "event"
    },
    {
      "anonymous": false,
      "inputs": [
        {
          "indexed": true,
          "internalType": "uint256",
          "name": "requestId",
          "type": "uint256"
        }
      ],
      "name": "RequestedLotteryWinner",
      "type": "event"
    },
    {
      "anonymous": false,
      "inputs": [
        {
          "indexed": true,
          "internalType": "address",
          "name": "winner",
          "type": "address"
        }
      ],
      "name": "WinnerPicked",
      "type": "event"
    },
    {
      "inputs": [
        {
          "internalType": "bytes",
          "name": "",
          "type": "bytes"
        }
      ],
      "name": "checkUpkeep",
      "outputs": [
        {
          "internalType": "bool",
          "name": "upkeepNeeded",
          "type": "bool"
        },
        {
          "internalType": "bytes",
          "name": "performData",
          "type": "bytes"
        }
      ],
      "stateMutability": "view",
      "type": "function"
    },
    {
      "inputs": [],
      "name": "enterLottery",
      "outputs": [],
      "stateMutability": "payable",
      "type": "function"
    },
    {
      "inputs": [],
      "name": "getEntranceFee",
      "outputs": [
        {
          "internalType": "uint256",
          "name": "",
          "type": "uint256"
        }
      ],
      "stateMutability": "view",
      "type": "function"
    },
    {
      "inputs": [
        {
          "internalType": "uint256",
          "name": "index",
          "type": "uint256"
        }
      ],
      "name": "getEntrant",
      "outputs": [
        {
          "internalType": "address",
          "name": "",
          "type": "address"
        }
      ],
      "stateMutability": "view",
      "type": "function"
    },
    {
      "inputs": [],
      "name": "getLotteryDuration",
      "outputs": [
        {
          "internalType": "uint256",
          "name": "",
          "type": "uint256"
        }
      ],
      "stateMutability": "view",
      "type": "function"
    },
    {
      "inputs": [],
      "name": "getLotteryStartTimestamp",
      "outputs": [
        {
          "internalType": "uint256",
          "name": "",
          "type": "uint256"
        }
      ],
      "stateMutability": "view",
      "type": "function"
    },
    {
      "inputs": [],
      "name": "getLotteryState",
      "outputs": [
        {
          "internalType": "enum LotteryState",
          "name": "",
          "type": "uint8"
        }
      ],
      "stateMutability": "view",
      "type": "function"
    },
    {
      "inputs": [],
      "name": "getNumWords",
      "outputs": [
        {
          "internalType": "uint256",
          "name": "",
          "type": "uint256"
        }
      ],
      "stateMutability": "pure",
      "type": "function"
    },
    {
      "inputs": [],
      "name": "getNumberOfEntrants",
      "outputs": [
        {
          "internalType": "uint256",
          "name": "",
          "type": "uint256"
        }
      ],
      "stateMutability": "view",
      "type": "function"
    },
    {
      "inputs": [],
      "name": "getRecentWinner",
      "outputs": [
        {
          "internalType": "address",
          "name": "",
          "type": "address"
        }
      ],
      "stateMutability": "view",
      "type": "function"
    },
    {
      "inputs": [],
      "name": "getRequestConfirmations",
      "outputs": [
        {
          "internalType": "uint256",
          "name": "",
          "type": "uint256"
        }
      ],
      "stateMutability": "pure",
      "type": "function"
    },
    {
      "inputs": [
        {
          "internalType": "bytes",
          "name": "",
          "type": "bytes"
        }
      ],
      "name": "performUpkeep",
      "outputs": [],
      "stateMutability": "nonpayable",
      "type": "function"
    },
    {
      "inputs": [
        {
          "internalType": "uint256",
          "name": "requestId",
          "type": "uint256"
        },
        {
          "internalType": "uint256[]",
          "name": "randomWords",
          "type": "uint256[]"
        }
      ],
      "name": "rawFulfillRandomWords",
      "outputs": [],
      "stateMutability": "nonpayable",
      "type": "function"
    }
  ],
  "bytecode": "0x6101606040523480156200001257600080fd5b506040516200182f3803806200182f833981810160405281019062000038919062000294565b858073ffffffffffffffffffffffffffffffffffffffff1660808173ffffffffffffffffffffffffffffffffffffffff1681525050508460a081815250508573ffffffffffffffffffffffffffffffffffffffff1660c08173ffffffffffffffffffffffffffffffffffffffff16815250508360e081815250508267ffffffffffffffff166101008167ffffffffffffffff16815250508163ffffffff166101208163ffffffff16815250506000600160146101000a81548160ff021916908360018111156200010d576200010c62000330565b5b0217905550426002819055508061014081815250505050505050506200035f565b600080fd5b600073ffffffffffffffffffffffffffffffffffffffff82169050919050565b6000620001608262000133565b9050919050565b620001728162000153565b81146200017e57600080fd5b50565b600081519050620001928162000167565b92915050565b6000819050919050565b620001ad8162000198565b8114620001b957600080fd5b50565b600081519050620001cd81620001a2565b92915050565b6000819050919050565b620001e881620001d3565b8114620001f457600080fd5b50565b6000815190506200020881620001dd565b92915050565b600067ffffffffffffffff82169050919050565b6200022d816200020e565b81146200023957600080fd5b50565b6000815190506200024d8162000222565b92915050565b600063ffffffff82169050919050565b6200026e8162000253565b81146200027a57600080fd5b50565b6000815190506200028e8162000263565b92915050565b60008060008060008060c08789031215620002b457620002b36200012e565b5b6000620002c489828a0162000181565b9650506020620002d789828a01620001bc565b9550506040620002ea89828a01620001f7565b9450506060620002fd89828a016200023c565b93505060806200031089828a016200027d565b92505060a06200032389828a01620001bc565b9150509295509295509295565b7f4e487b7100000000000000000000000000000000000000000000000000000000600052602160045260246000fd5b60805160a05160c05160e051610100516101205161014051611460620003cf600039600081816106c9015261072b015260006105600152600061053d0152600061051c015260006104e0015260008181610341015261075101526000818161037301526103c701526114606000f3fe6080604052600436106100c25760003560e01c8063473f1ddc1161007f5780636b68c03c116100595780636b68c03c146102585780636e04ff0d146102835780636f3343b9146102c1578063c1af5785146102ec576100c2565b8063473f1ddc146101d757806353a2c19a146102025780635f1b0fd81461022d576100c2565b806304763ce0146100c757806309bc33a7146101045780630dae95741461012f5780631fe543e31461015a57806336cfeadf146101835780634585e33b146101ae575b600080fd5b3480156100d357600080fd5b506100ee60048036038101906100e99190610be0565b6102f6565b6040516100fb9190610c4e565b60405180910390f35b34801561011057600080fd5b5061011961033d565b6040516101269190610c78565b60405180910390f35b34801561013b57600080fd5b50610144610365565b6040516101519190610c78565b60405180910390f35b34801561016657600080fd5b50610181600480360381019061017c9190610dec565b610371565b005b34801561018f57600080fd5b50610198610431565b6040516101a59190610c78565b60405180910390f35b3480156101ba57600080fd5b506101d560048036038101906101d09190610ea3565b61043b565b005b3480156101e357600080fd5b506101ec610619565b6040516101f99190610c4e565b60405180910390f35b34801561020e57600080fd5b50610217610643565b6040516102249190610c78565b60405180910390f35b34801561023957600080fd5b50610242610650565b60405161024f9190610c78565b60405180910390f35b34801561026457600080fd5b5061026d61065d565b60405161027a9190610f67565b60405180910390f35b34801561028f57600080fd5b506102aa60048036038101906102a59190611037565b610674565b6040516102b892919061111a565b60405180910390f35b3480156102cd57600080fd5b506102d6610727565b6040516102e39190610c78565b60405180910390f35b6102f461074f565b005b600080828154811061030b5761030a61114a565b5b9060005260206000200160009054906101000a900473ffffffffffffffffffffffffffffffffffffffff169050919050565b60007f0000000000000000000000000000000000000000000000000000000000000000905090565b60008080549050905090565b7f000000000000000000000000000000000000000000000000000000000000000073ffffffffffffffffffffffffffffffffffffffff163373ffffffffffffffffffffffffffffffffffffffff161461042357337f00000000000000000000000000000000000000000000000000000000000000006040517f1cf993f400000000000000000000000000000000000000000000000000000000815260040161041a929190611179565b60405180910390fd5b61042d82826108be565b5050565b6000600254905090565b600061045560405180602001604052806000815250610674565b50905060018060146101000a81548160ff0219169083600181111561047d5761047c610ef0565b5b0217905550806104dc5747600080549050600160149054906101000a900460ff166040517ff80658500000000000000000000000000000000000000000000000000000000081526004016104d3939291906111a2565b60405180910390fd5b60007f000000000000000000000000000000000000000000000000000000000000000073ffffffffffffffffffffffffffffffffffffffff16635d3b1d307f00000000000000000000000000000000000000000000000000000000000000007f000000000000000000000000000000000000000000000000000000000000000060037f000000000000000000000000000000000000000000000000000000000000000060016040518663ffffffff1660e01b81526004016105a195949392919061128c565b6020604051808303816000875af11580156105c0573d6000803e3d6000fd5b505050506040513d601f19601f820116820180604052508101906105e491906112f4565b9050807febf56642252004c18a776f30d528e7a0ce8c5db14b6596fb6550f630c8a24c6c60405160405180910390a250505050565b6000600160009054906101000a900473ffffffffffffffffffffffffffffffffffffffff16905090565b6000600161ffff16905090565b6000600361ffff16905090565b6000600160149054906101000a900460ff16905090565b600060606000600160149054906101000a900460ff16600181111561069c5761069b610ef0565b5b600060018111156106b0576106af610ef0565b5b1490506000600254426106c39190611350565b905060007f000000000000000000000000000000000000000000000000000000000000000082119050600080600080549050119050600080471190508480156107095750825b80156107125750815b801561071b5750805b96505050505050915091565b60007f0000000000000000000000000000000000000000000000000000000000000000905090565b7f00000000000000000000000000000000000000000000000000000000000000003410156107a9576040517ff4220b0000000000000000000000000000000000000000000000000000000000815260040160405180910390fd5b600060018111156107bd576107bc610ef0565b5b600160149054906101000a900460ff1660018111156107df576107de610ef0565b5b14610816576040517fe76be6fc00000000000000000000000000000000000000000000000000000000815260040160405180910390fd5b6000339080600181540180825580915050600190039060005260206000200160009091909190916101000a81548173ffffffffffffffffffffffffffffffffffffffff021916908373ffffffffffffffffffffffffffffffffffffffff1602179055503373ffffffffffffffffffffffffffffffffffffffff167f1d64fb5ba9f2548c5b98468d58f25b87b9e866afee0122e92d9fe722bf85076c60405160405180910390a2565b60008080549050826000815181106108d9576108d861114a565b5b60200260200101516108eb91906113b3565b905060008082815481106109025761090161114a565b5b9060005260206000200160009054906101000a900473ffffffffffffffffffffffffffffffffffffffff16905080600160006101000a81548173ffffffffffffffffffffffffffffffffffffffff021916908373ffffffffffffffffffffffffffffffffffffffff160217905550426002819055506000600160146101000a81548160ff0219169083600181111561099d5761099c610ef0565b5b0217905550600067ffffffffffffffff8111156109bd576109bc610ca9565b5b6040519080825280602002602001820160405280156109eb5781602001602082028036833780820191505090505b5060009080519060200190610a01929190610aef565b5060008173ffffffffffffffffffffffffffffffffffffffff1647604051610a2890611415565b60006040518083038185875af1925050503d8060008114610a65576040519150601f19603f3d011682016040523d82523d6000602084013e610a6a565b606091505b5050905080610aa5576040517f1c94012000000000000000000000000000000000000000000000000000000000815260040160405180910390fd5b8173ffffffffffffffffffffffffffffffffffffffff167f5b690ec4a06fe979403046eaeea5b3ce38524683c3001f662c8b5a829632f7df60405160405180910390a25050505050565b828054828255906000526020600020908101928215610b68579160200282015b82811115610b675782518260006101000a81548173ffffffffffffffffffffffffffffffffffffffff021916908373ffffffffffffffffffffffffffffffffffffffff16021790555091602001919060010190610b0f565b5b509050610b759190610b79565b5090565b5b80821115610b92576000816000905550600101610b7a565b5090565b6000604051905090565b600080fd5b600080fd5b6000819050919050565b610bbd81610baa565b8114610bc857600080fd5b50565b600081359050610bda81610bb4565b92915050565b600060208284031215610bf657610bf5610ba0565b5b6000610c0484828501610bcb565b91505092915050565b600073ffffffffffffffffffffffffffffffffffffffff82169050919050565b6000610c3882610c0d565b9050919050565b610c4881610c2d565b82525050565b6000602082019050610c636000830184610c3f565b92915050565b610c7281610baa565b82525050565b6000602082019050610c8d6000830184610c69565b92915050565b600080fd5b6000601f19601f8301169050919050565b7f4e487b7100000000000000000000000000000000000000000000000000000000600052604160045260246000fd5b610ce182610c98565b810181811067ffffffffffffffff82111715610d0057610cff610ca9565b5b80604052505050565b6000610d13610b96565b9050610d1f8282610cd8565b919050565b600067ffffffffffffffff821115610d3f57610d3e610ca9565b5b602082029050602081019050919050565b600080fd5b6000610d68610d6384610d24565b610d09565b90508083825260208201905060208402830185811115610d8b57610d8a610d50565b5b835b81811015610db45780610da08882610bcb565b845260208401935050602081019050610d8d565b5050509392505050565b600082601f830112610dd357610dd2610c93565b5b8135610de3848260208601610d55565b91505092915050565b60008060408385031215610e0357610e02610ba0565b5b6000610e1185828601610bcb565b925050602083013567ffffffffffffffff811115610e3257610e31610ba5565b5b610e3e85828601610dbe565b9150509250929050565b600080fd5b60008083601f840112610e6357610e62610c93565b5b8235905067ffffffffffffffff811115610e8057610e7f610e48565b5b602083019150836001820283011115610e9c57610e9b610d50565b5b9250929050565b60008060208385031215610eba57610eb9610ba0565b5b600083013567ffffffffffffffff811115610ed857610ed7610ba5565b5b610ee485828601610e4d565b92509250509250929050565b7f4e487b7100000000000000000000000000000000000000000000000000000000600052602160045260246000fd5b60028110610f3057610f2f610ef0565b5b50565b6000819050610f4182610f1f565b919050565b6000610f5182610f33565b9050919050565b610f6181610f46565b82525050565b6000602082019050610f7c6000830184610f58565b92915050565b600080fd5b600067ffffffffffffffff821115610fa257610fa1610ca9565b5b610fab82610c98565b9050602081019050919050565b82818337600083830152505050565b6000610fda610fd584610f87565b610d09565b905082815260208101848484011115610ff657610ff5610f82565b5b611001848285610fb8565b509392505050565b600082601f83011261101e5761101d610c93565b5b813561102e848260208601610fc7565b91505092915050565b60006020828403121561104d5761104c610ba0565b5b600082013567ffffffffffffffff81111561106b5761106a610ba5565b5b61107784828501611009565b91505092915050565b60008115159050919050565b61109581611080565b82525050565b600081519050919050565b600082825260208201905092915050565b60005b838110156110d55780820151818401526020810190506110ba565b60008484015250505050565b60006110ec8261109b565b6110f681856110a6565b93506111068185602086016110b7565b61110f81610c98565b840191505092915050565b600060408201905061112f600083018561108c565b818103602083015261114181846110e1565b90509392505050565b7f4e487b7100000000000000000000000000000000000000000000000000000000600052603260045260246000fd5b600060408201905061118e6000830185610c3f565b61119b6020830184610c3f565b9392505050565b60006060820190506111b76000830186610c69565b6111c46020830185610c69565b6111d16040830184610f58565b949350505050565b6000819050919050565b6111ec816111d9565b82525050565b600067ffffffffffffffff82169050919050565b61120f816111f2565b82525050565b600061ffff82169050919050565b61122c81611215565b82525050565b600063ffffffff82169050919050565b61124b81611232565b82525050565b6000819050919050565b600061127661127161126c84611215565b611251565b611232565b9050919050565b6112868161125b565b82525050565b600060a0820190506112a160008301886111e3565b6112ae6020830187611206565b6112bb6040830186611223565b6112c86060830185611242565b6112d5608083018461127d565b9695505050505050565b6000815190506112ee81610bb4565b92915050565b60006020828403121561130a57611309610ba0565b5b6000611318848285016112df565b91505092915050565b7f4e487b7100000000000000000000000000000000000000000000000000000000600052601160045260246000fd5b600061135b82610baa565b915061136683610baa565b925082820390508181111561137e5761137d611321565b5b92915050565b7f4e487b7100000000000000000000000000000000000000000000000000000000600052601260045260246000fd5b60006113be82610baa565b91506113c983610baa565b9250826113d9576113d8611384565b5b828206905092915050565b600081905092915050565b50565b60006113ff6000836113e4565b915061140a826113ef565b600082019050919050565b6000611420826113f2565b915081905091905056fea26469706673582212202d56d661c27a6d21c3ea460a50a29f5d82a2fb81b6832c276701deac23d7525d64736f6c63430008180033",
  "linkReferences": {},
  "deployedLinkReferences": {}
}