{
  "_format": "hh-sol-artifact-1",
  "contractName": "Lottery",
  "sourceName": "contracts/Lottery.sol",
  "abi": [
    {
      "inputs": [
        {
          "internalType": "address",
          "name": "vrfCoordinatorV2",
          "type": "address"
        },
        {
          "internalType": "uint256",
          "name": "entranceFee",
          "type": "uint256"
        },
        {
          "internalType": "bytes32",
          "name": "gasLane",
          "type": "bytes32"
        },
        {
          "internalType": "uint64",
          "name": "subscriptionId",
          "type": "uint64"
        },
        {
          "internalType": "uint32",
          "name": "callbackGasLimit",
          "type": "uint32"
        },
        {
          "internalType": "uint256",
          "name": "duration",
          "type": "uint256"
        }
      ],
      "stateMutability": "nonpayable",
      "type": "constructor"
    },
    {
      "inputs": [],
      "name": "Lottery__InsufficientEntryETH",
      "type": "error"
    },
    {
      "inputs": [
        {
          "internalType": "uint256",
          "name": "ethBalance",
          "type": "uint256"
        },
        {
          "internalType": "uint256",
          "name": "numEntrants",
          "type": "uint256"
        },
        {
          "internalType": "enum LotteryState",
          "name": "lotteryState",
          "type": "uint8"
        }
      ],
      "name": "Lottery__InvalidCallToPerformUpkeep",
      "type": "error"
    },
    {
      "inputs": [],
      "name": "Lottery__NotOpen",
      "type": "error"
    },
    {
      "inputs": [],
      "name": "Lottery__TransferFailed",
      "type": "error"
    },
    {
      "inputs": [
        {
          "internalType": "address",
          "name": "have",
          "type": "address"
        },
        {
          "internalType": "address",
          "name": "want",
          "type": "address"
        }
      ],
      "name": "OnlyCoordinatorCanFulfill",
      "type": "error"
    },
    {
      "anonymous": false,
      "inputs": [
        {
          "indexed": true,
          "internalType": "address",
          "name": "player",
          "type": "address"
        }
      ],
      "name": "LotteryEnter",
      "type": "event"
    },
    {
      "anonymous": false,
      "inputs": [
        {
          "indexed": true,
          "internalType": "uint256",
          "name": "requestId",
          "type": "uint256"
        }
      ],
      "name": "RequestedLotteryWinner",
      "type": "event"
    },
    {
      "anonymous": false,
      "inputs": [
        {
          "indexed": true,
          "internalType": "address",
          "name": "winner",
          "type": "address"
        }
      ],
      "name": "WinnerPicked",
      "type": "event"
    },
    {
      "inputs": [
        {
          "internalType": "bytes",
          "name": "",
          "type": "bytes"
        }
      ],
      "name": "checkUpkeep",
      "outputs": [
        {
          "internalType": "bool",
          "name": "upkeepNeeded",
          "type": "bool"
        },
        {
          "internalType": "bytes",
          "name": "performData",
          "type": "bytes"
        }
      ],
      "stateMutability": "view",
      "type": "function"
    },
    {
      "inputs": [],
      "name": "enterLottery",
      "outputs": [],
      "stateMutability": "payable",
      "type": "function"
    },
    {
      "inputs": [],
      "name": "getEntranceFee",
      "outputs": [
        {
          "internalType": "uint256",
          "name": "",
          "type": "uint256"
        }
      ],
      "stateMutability": "view",
      "type": "function"
    },
    {
      "inputs": [
        {
          "internalType": "uint256",
          "name": "index",
          "type": "uint256"
        }
      ],
      "name": "getEntrant",
      "outputs": [
        {
          "internalType": "address",
          "name": "",
          "type": "address"
        }
      ],
      "stateMutability": "view",
      "type": "function"
    },
    {
      "inputs": [],
      "name": "getLotteryDuration",
      "outputs": [
        {
          "internalType": "uint256",
          "name": "",
          "type": "uint256"
        }
      ],
      "stateMutability": "view",
      "type": "function"
    },
    {
      "inputs": [],
      "name": "getLotteryStartTimestamp",
      "outputs": [
        {
          "internalType": "uint256",
          "name": "",
          "type": "uint256"
        }
      ],
      "stateMutability": "view",
      "type": "function"
    },
    {
      "inputs": [],
      "name": "getLotteryState",
      "outputs": [
        {
          "internalType": "enum LotteryState",
          "name": "",
          "type": "uint8"
        }
      ],
      "stateMutability": "view",
      "type": "function"
    },
    {
      "inputs": [],
      "name": "getNumWords",
      "outputs": [
        {
          "internalType": "uint256",
          "name": "",
          "type": "uint256"
        }
      ],
      "stateMutability": "pure",
      "type": "function"
    },
    {
      "inputs": [],
      "name": "getNumberOfEntrants",
      "outputs": [
        {
          "internalType": "uint256",
          "name": "",
          "type": "uint256"
        }
      ],
      "stateMutability": "view",
      "type": "function"
    },
    {
      "inputs": [],
      "name": "getRecentWinner",
      "outputs": [
        {
          "internalType": "address",
          "name": "",
          "type": "address"
        }
      ],
      "stateMutability": "view",
      "type": "function"
    },
    {
      "inputs": [],
      "name": "getRequestConfirmations",
      "outputs": [
        {
          "internalType": "uint256",
          "name": "",
          "type": "uint256"
        }
      ],
      "stateMutability": "pure",
      "type": "function"
    },
    {
      "inputs": [
        {
          "internalType": "bytes",
          "name": "",
          "type": "bytes"
        }
      ],
      "name": "performUpkeep",
      "outputs": [],
      "stateMutability": "nonpayable",
      "type": "function"
    },
    {
      "inputs": [
        {
          "internalType": "uint256",
          "name": "requestId",
          "type": "uint256"
        },
        {
          "internalType": "uint256[]",
          "name": "randomWords",
          "type": "uint256[]"
        }
      ],
      "name": "rawFulfillRandomWords",
      "outputs": [],
      "stateMutability": "nonpayable",
      "type": "function"
    }
  ],
  "bytecode": "0x6101606040523480156200001257600080fd5b506040516200183038038062001830833981810160405281019062000038919062000294565b858073ffffffffffffffffffffffffffffffffffffffff1660808173ffffffffffffffffffffffffffffffffffffffff1681525050508460a081815250508573ffffffffffffffffffffffffffffffffffffffff1660c08173ffffffffffffffffffffffffffffffffffffffff16815250508360e081815250508267ffffffffffffffff166101008167ffffffffffffffff16815250508163ffffffff166101208163ffffffff16815250506000600160146101000a81548160ff021916908360018111156200010d576200010c62000330565b5b0217905550426002819055508061014081815250505050505050506200035f565b600080fd5b600073ffffffffffffffffffffffffffffffffffffffff82169050919050565b6000620001608262000133565b9050919050565b620001728162000153565b81146200017e57600080fd5b50565b600081519050620001928162000167565b92915050565b6000819050919050565b620001ad8162000198565b8114620001b957600080fd5b50565b600081519050620001cd81620001a2565b92915050565b6000819050919050565b620001e881620001d3565b8114620001f457600080fd5b50565b6000815190506200020881620001dd565b92915050565b600067ffffffffffffffff82169050919050565b6200022d816200020e565b81146200023957600080fd5b50565b6000815190506200024d8162000222565b92915050565b600063ffffffff82169050919050565b6200026e8162000253565b81146200027a57600080fd5b50565b6000815190506200028e8162000263565b92915050565b60008060008060008060c08789031215620002b457620002b36200012e565b5b6000620002c489828a0162000181565b9650506020620002d789828a01620001bc565b9550506040620002ea89828a01620001f7565b9450506060620002fd89828a016200023c565b93505060806200031089828a016200027d565b92505060a06200032389828a01620001bc565b9150509295509295509295565b7f4e487b7100000000000000000000000000000000000000000000000000000000600052602160045260246000fd5b60805160a05160c05160e051610100516101205161014051611461620003cf600039600081816106c9015261072b015260006105600152600061053d0152600061051c015260006104e0015260008181610341015261075301526000818161037301526103c701526114616000f3fe6080604052600436106100c25760003560e01c8063473f1ddc1161007f5780636b68c03c116100595780636b68c03c146102585780636e04ff0d146102835780636f3343b9146102c1578063c1af5785146102ec576100c2565b8063473f1ddc146101d757806353a2c19a146102025780635f1b0fd81461022d576100c2565b806304763ce0146100c757806309bc33a7146101045780630dae95741461012f5780631fe543e31461015a57806336cfeadf146101835780634585e33b146101ae575b600080fd5b3480156100d357600080fd5b506100ee60048036038101906100e99190610be1565b6102f6565b6040516100fb9190610c4f565b60405180910390f35b34801561011057600080fd5b5061011961033d565b6040516101269190610c79565b60405180910390f35b34801561013b57600080fd5b50610144610365565b6040516101519190610c79565b60405180910390f35b34801561016657600080fd5b50610181600480360381019061017c9190610ded565b610371565b005b34801561018f57600080fd5b50610198610431565b6040516101a59190610c79565b60405180910390f35b3480156101ba57600080fd5b506101d560048036038101906101d09190610ea4565b61043b565b005b3480156101e357600080fd5b506101ec610619565b6040516101f99190610c4f565b60405180910390f35b34801561020e57600080fd5b50610217610643565b6040516102249190610c79565b60405180910390f35b34801561023957600080fd5b50610242610650565b60405161024f9190610c79565b60405180910390f35b34801561026457600080fd5b5061026d61065d565b60405161027a9190610f68565b60405180910390f35b34801561028f57600080fd5b506102aa60048036038101906102a59190611038565b610674565b6040516102b892919061111b565b60405180910390f35b3480156102cd57600080fd5b506102d6610727565b6040516102e39190610c79565b60405180910390f35b6102f461074f565b005b600080828154811061030b5761030a61114b565b5b9060005260206000200160009054906101000a900473ffffffffffffffffffffffffffffffffffffffff169050919050565b60007f0000000000000000000000000000000000000000000000000000000000000000905090565b60008080549050905090565b7f000000000000000000000000000000000000000000000000000000000000000073ffffffffffffffffffffffffffffffffffffffff163373ffffffffffffffffffffffffffffffffffffffff161461042357337f00000000000000000000000000000000000000000000000000000000000000006040517f1cf993f400000000000000000000000000000000000000000000000000000000815260040161041a92919061117a565b60405180910390fd5b61042d82826108bf565b5050565b6000600254905090565b600061045560405180602001604052806000815250610674565b50905060018060146101000a81548160ff0219169083600181111561047d5761047c610ef1565b5b0217905550806104dc5747600080549050600160149054906101000a900460ff166040517ff80658500000000000000000000000000000000000000000000000000000000081526004016104d3939291906111a3565b60405180910390fd5b60007f000000000000000000000000000000000000000000000000000000000000000073ffffffffffffffffffffffffffffffffffffffff16635d3b1d307f00000000000000000000000000000000000000000000000000000000000000007f000000000000000000000000000000000000000000000000000000000000000060037f000000000000000000000000000000000000000000000000000000000000000060016040518663ffffffff1660e01b81526004016105a195949392919061128d565b6020604051808303816000875af11580156105c0573d6000803e3d6000fd5b505050506040513d601f19601f820116820180604052508101906105e491906112f5565b9050807febf56642252004c18a776f30d528e7a0ce8c5db14b6596fb6550f630c8a24c6c60405160405180910390a250505050565b6000600160009054906101000a900473ffffffffffffffffffffffffffffffffffffffff16905090565b6000600161ffff16905090565b6000600361ffff16905090565b6000600160149054906101000a900460ff16905090565b600060606000600160149054906101000a900460ff16600181111561069c5761069b610ef1565b5b600060018111156106b0576106af610ef1565b5b1490506000600254426106c39190611351565b905060007f000000000000000000000000000000000000000000000000000000000000000082119050600080600080549050119050600080471190508480156107095750825b80156107125750815b801561071b5750805b96505050505050915091565b60007f0000000000000000000000000000000000000000000000000000000000000000905090565b60007f000000000000000000000000000000000000000000000000000000000000000011156107aa576040517ff4220b0000000000000000000000000000000000000000000000000000000000815260040160405180910390fd5b600060018111156107be576107bd610ef1565b5b600160149054906101000a900460ff1660018111156107e0576107df610ef1565b5b14610817576040517fe76be6fc00000000000000000000000000000000000000000000000000000000815260040160405180910390fd5b6000339080600181540180825580915050600190039060005260206000200160009091909190916101000a81548173ffffffffffffffffffffffffffffffffffffffff021916908373ffffffffffffffffffffffffffffffffffffffff1602179055503373ffffffffffffffffffffffffffffffffffffffff167f1d64fb5ba9f2548c5b98468d58f25b87b9e866afee0122e92d9fe722bf85076c60405160405180910390a2565b60008080549050826000815181106108da576108d961114b565b5b60200260200101516108ec91906113b4565b905060008082815481106109035761090261114b565b5b9060005260206000200160009054906101000a900473ffffffffffffffffffffffffffffffffffffffff16905080600160006101000a81548173ffffffffffffffffffffffffffffffffffffffff021916908373ffffffffffffffffffffffffffffffffffffffff160217905550426002819055506000600160146101000a81548160ff0219169083600181111561099e5761099d610ef1565b5b0217905550600067ffffffffffffffff8111156109be576109bd610caa565b5b6040519080825280602002602001820160405280156109ec5781602001602082028036833780820191505090505b5060009080519060200190610a02929190610af0565b5060008173ffffffffffffffffffffffffffffffffffffffff1647604051610a2990611416565b60006040518083038185875af1925050503d8060008114610a66576040519150601f19603f3d011682016040523d82523d6000602084013e610a6b565b606091505b5050905080610aa6576040517f1c94012000000000000000000000000000000000000000000000000000000000815260040160405180910390fd5b8173ffffffffffffffffffffffffffffffffffffffff167f5b690ec4a06fe979403046eaeea5b3ce38524683c3001f662c8b5a829632f7df60405160405180910390a25050505050565b828054828255906000526020600020908101928215610b69579160200282015b82811115610b685782518260006101000a81548173ffffffffffffffffffffffffffffffffffffffff021916908373ffffffffffffffffffffffffffffffffffffffff16021790555091602001919060010190610b10565b5b509050610b769190610b7a565b5090565b5b80821115610b93576000816000905550600101610b7b565b5090565b6000604051905090565b600080fd5b600080fd5b6000819050919050565b610bbe81610bab565b8114610bc957600080fd5b50565b600081359050610bdb81610bb5565b92915050565b600060208284031215610bf757610bf6610ba1565b5b6000610c0584828501610bcc565b91505092915050565b600073ffffffffffffffffffffffffffffffffffffffff82169050919050565b6000610c3982610c0e565b9050919050565b610c4981610c2e565b82525050565b6000602082019050610c646000830184610c40565b92915050565b610c7381610bab565b82525050565b6000602082019050610c8e6000830184610c6a565b92915050565b600080fd5b6000601f19601f8301169050919050565b7f4e487b7100000000000000000000000000000000000000000000000000000000600052604160045260246000fd5b610ce282610c99565b810181811067ffffffffffffffff82111715610d0157610d00610caa565b5b80604052505050565b6000610d14610b97565b9050610d208282610cd9565b919050565b600067ffffffffffffffff821115610d4057610d3f610caa565b5b602082029050602081019050919050565b600080fd5b6000610d69610d6484610d25565b610d0a565b90508083825260208201905060208402830185811115610d8c57610d8b610d51565b5b835b81811015610db55780610da18882610bcc565b845260208401935050602081019050610d8e565b5050509392505050565b600082601f830112610dd457610dd3610c94565b5b8135610de4848260208601610d56565b91505092915050565b60008060408385031215610e0457610e03610ba1565b5b6000610e1285828601610bcc565b925050602083013567ffffffffffffffff811115610e3357610e32610ba6565b5b610e3f85828601610dbf565b9150509250929050565b600080fd5b60008083601f840112610e6457610e63610c94565b5b8235905067ffffffffffffffff811115610e8157610e80610e49565b5b602083019150836001820283011115610e9d57610e9c610d51565b5b9250929050565b60008060208385031215610ebb57610eba610ba1565b5b600083013567ffffffffffffffff811115610ed957610ed8610ba6565b5b610ee585828601610e4e565b92509250509250929050565b7f4e487b7100000000000000000000000000000000000000000000000000000000600052602160045260246000fd5b60028110610f3157610f30610ef1565b5b50565b6000819050610f4282610f20565b919050565b6000610f5282610f34565b9050919050565b610f6281610f47565b82525050565b6000602082019050610f7d6000830184610f59565b92915050565b600080fd5b600067ffffffffffffffff821115610fa357610fa2610caa565b5b610fac82610c99565b9050602081019050919050565b82818337600083830152505050565b6000610fdb610fd684610f88565b610d0a565b905082815260208101848484011115610ff757610ff6610f83565b5b611002848285610fb9565b509392505050565b600082601f83011261101f5761101e610c94565b5b813561102f848260208601610fc8565b91505092915050565b60006020828403121561104e5761104d610ba1565b5b600082013567ffffffffffffffff81111561106c5761106b610ba6565b5b6110788482850161100a565b91505092915050565b60008115159050919050565b61109681611081565b82525050565b600081519050919050565b600082825260208201905092915050565b60005b838110156110d65780820151818401526020810190506110bb565b60008484015250505050565b60006110ed8261109c565b6110f781856110a7565b93506111078185602086016110b8565b61111081610c99565b840191505092915050565b6000604082019050611130600083018561108d565b818103602083015261114281846110e2565b90509392505050565b7f4e487b7100000000000000000000000000000000000000000000000000000000600052603260045260246000fd5b600060408201905061118f6000830185610c40565b61119c6020830184610c40565b9392505050565b60006060820190506111b86000830186610c6a565b6111c56020830185610c6a565b6111d26040830184610f59565b949350505050565b6000819050919050565b6111ed816111da565b82525050565b600067ffffffffffffffff82169050919050565b611210816111f3565b82525050565b600061ffff82169050919050565b61122d81611216565b82525050565b600063ffffffff82169050919050565b61124c81611233565b82525050565b6000819050919050565b600061127761127261126d84611216565b611252565b611233565b9050919050565b6112878161125c565b82525050565b600060a0820190506112a260008301886111e4565b6112af6020830187611207565b6112bc6040830186611224565b6112c96060830185611243565b6112d6608083018461127e565b9695505050505050565b6000815190506112ef81610bb5565b92915050565b60006020828403121561130b5761130a610ba1565b5b6000611319848285016112e0565b91505092915050565b7f4e487b7100000000000000000000000000000000000000000000000000000000600052601160045260246000fd5b600061135c82610bab565b915061136783610bab565b925082820390508181111561137f5761137e611322565b5b92915050565b7f4e487b7100000000000000000000000000000000000000000000000000000000600052601260045260246000fd5b60006113bf82610bab565b91506113ca83610bab565b9250826113da576113d9611385565b5b828206905092915050565b600081905092915050565b50565b60006114006000836113e5565b915061140b826113f0565b600082019050919050565b6000611421826113f3565b915081905091905056fea26469706673582212202a7e731488a84d962e521fda48d855a82cdb1a170b5598f43ac1b53870d8602f64736f6c63430008180033",
  "linkReferences": {},
  "deployedLinkReferences": {}
}