{
  "_format": "hh-sol-artifact-1",
  "contractName": "VRFCoordinatorV2",
  "sourceName": "@chainlink/contracts/src/v0.8/vrf/VRFCoordinatorV2.sol",
  "abi": [
    {
      "inputs": [
        {
          "internalType": "address",
          "name": "link",
          "type": "address"
        },
        {
          "internalType": "address",
          "name": "blockhashStore",
          "type": "address"
        },
        {
          "internalType": "address",
          "name": "linkEthFeed",
          "type": "address"
        }
      ],
      "stateMutability": "nonpayable",
      "type": "constructor"
    },
    {
      "inputs": [
        {
          "internalType": "uint256",
          "name": "internalBalance",
          "type": "uint256"
        },
        {
          "internalType": "uint256",
          "name": "externalBalance",
          "type": "uint256"
        }
      ],
      "name": "BalanceInvariantViolated",
      "type": "error"
    },
    {
      "inputs": [
        {
          "internalType": "uint256",
          "name": "blockNum",
          "type": "uint256"
        }
      ],
      "name": "BlockhashNotInStore",
      "type": "error"
    },
    {
      "inputs": [
        {
          "internalType": "uint32",
          "name": "have",
          "type": "uint32"
        },
        {
          "internalType": "uint32",
          "name": "want",
          "type": "uint32"
        }
      ],
      "name": "GasLimitTooBig",
      "type": "error"
    },
    {
      "inputs": [],
      "name": "IncorrectCommitment",
      "type": "error"
    },
    {
      "inputs": [],
      "name": "InsufficientBalance",
      "type": "error"
    },
    {
      "inputs": [
        {
          "internalType": "uint256",
          "name": "have",
          "type": "uint256"
        },
        {
          "internalType": "uint256",
          "name": "want",
          "type": "uint256"
        }
      ],
      "name": "InsufficientGasForConsumer",
      "type": "error"
    },
    {
      "inputs": [],
      "name": "InvalidCalldata",
      "type": "error"
    },
    {
      "inputs": [
        {
          "internalType": "uint64",
          "name": "subId",
          "type": "uint64"
        },
        {
          "internalType": "address",
          "name": "consumer",
          "type": "address"
        }
      ],
      "name": "InvalidConsumer",
      "type": "error"
    },
    {
      "inputs": [
        {
          "internalType": "int256",
          "name": "linkWei",
          "type": "int256"
        }
      ],
      "name": "InvalidLinkWeiPrice",
      "type": "error"
    },
    {
      "inputs": [
        {
          "internalType": "uint16",
          "name": "have",
          "type": "uint16"
        },
        {
          "internalType": "uint16",
          "name": "min",
          "type": "uint16"
        },
        {
          "internalType": "uint16",
          "name": "max",
          "type": "uint16"
        }
      ],
      "name": "InvalidRequestConfirmations",
      "type": "error"
    },
    {
      "inputs": [],
      "name": "InvalidSubscription",
      "type": "error"
    },
    {
      "inputs": [
        {
          "internalType": "address",
          "name": "proposedOwner",
          "type": "address"
        }
      ],
      "name": "MustBeRequestedOwner",
      "type": "error"
    },
    {
      "inputs": [
        {
          "internalType": "address",
          "name": "owner",
          "type": "address"
        }
      ],
      "name": "MustBeSubOwner",
      "type": "error"
    },
    {
      "inputs": [],
      "name": "NoCorrespondingRequest",
      "type": "error"
    },
    {
      "inputs": [
        {
          "internalType": "bytes32",
          "name": "keyHash",
          "type": "bytes32"
        }
      ],
      "name": "NoSuchProvingKey",
      "type": "error"
    },
    {
      "inputs": [
        {
          "internalType": "uint32",
          "name": "have",
          "type": "uint32"
        },
        {
          "internalType": "uint32",
          "name": "want",
          "type": "uint32"
        }
      ],
      "name": "NumWordsTooBig",
      "type": "error"
    },
    {
      "inputs": [],
      "name": "OnlyCallableFromLink",
      "type": "error"
    },
    {
      "inputs": [],
      "name": "PaymentTooLarge",
      "type": "error"
    },
    {
      "inputs": [],
      "name": "PendingRequestExists",
      "type": "error"
    },
    {
      "inputs": [
        {
          "internalType": "bytes32",
          "name": "keyHash",
          "type": "bytes32"
        }
      ],
      "name": "ProvingKeyAlreadyRegistered",
      "type": "error"
    },
    {
      "inputs": [],
      "name": "Reentrant",
      "type": "error"
    },
    {
      "inputs": [],
      "name": "TooManyConsumers",
      "type": "error"
    },
    {
      "anonymous": false,
      "inputs": [
        {
          "indexed": false,
          "internalType": "uint16",
          "name": "minimumRequestConfirmations",
          "type": "uint16"
        },
        {
          "indexed": false,
          "internalType": "uint32",
          "name": "maxGasLimit",
          "type": "uint32"
        },
        {
          "indexed": false,
          "internalType": "uint32",
          "name": "stalenessSeconds",
          "type": "uint32"
        },
        {
          "indexed": false,
          "internalType": "uint32",
          "name": "gasAfterPaymentCalculation",
          "type": "uint32"
        },
        {
          "indexed": false,
          "internalType": "int256",
          "name": "fallbackWeiPerUnitLink",
          "type": "int256"
        },
        {
          "components": [
            {
              "internalType": "uint32",
              "name": "fulfillmentFlatFeeLinkPPMTier1",
              "type": "uint32"
            },
            {
              "internalType": "uint32",
              "name": "fulfillmentFlatFeeLinkPPMTier2",
              "type": "uint32"
            },
            {
              "internalType": "uint32",
              "name": "fulfillmentFlatFeeLinkPPMTier3",
              "type": "uint32"
            },
            {
              "internalType": "uint32",
              "name": "fulfillmentFlatFeeLinkPPMTier4",
              "type": "uint32"
            },
            {
              "internalType": "uint32",
              "name": "fulfillmentFlatFeeLinkPPMTier5",
              "type": "uint32"
            },
            {
              "internalType": "uint24",
              "name": "reqsForTier2",
              "type": "uint24"
            },
            {
              "internalType": "uint24",
              "name": "reqsForTier3",
              "type": "uint24"
            },
            {
              "internalType": "uint24",
              "name": "reqsForTier4",
              "type": "uint24"
            },
            {
              "internalType": "uint24",
              "name": "reqsForTier5",
              "type": "uint24"
            }
          ],
          "indexed": false,
          "internalType": "struct VRFCoordinatorV2.FeeConfig",
          "name": "feeConfig",
          "type": "tuple"
        }
      ],
      "name": "ConfigSet",
      "type": "event"
    },
    {
      "anonymous": false,
      "inputs": [
        {
          "indexed": false,
          "internalType": "address",
          "name": "to",
          "type": "address"
        },
        {
          "indexed": false,
          "internalType": "uint256",
          "name": "amount",
          "type": "uint256"
        }
      ],
      "name": "FundsRecovered",
      "type": "event"
    },
    {
      "anonymous": false,
      "inputs": [
        {
          "indexed": true,
          "internalType": "address",
          "name": "from",
          "type": "address"
        },
        {
          "indexed": true,
          "internalType": "address",
          "name": "to",
          "type": "address"
        }
      ],
      "name": "OwnershipTransferRequested",
      "type": "event"
    },
    {
      "anonymous": false,
      "inputs": [
        {
          "indexed": true,
          "internalType": "address",
          "name": "from",
          "type": "address"
        },
        {
          "indexed": true,
          "internalType": "address",
          "name": "to",
          "type": "address"
        }
      ],
      "name": "OwnershipTransferred",
      "type": "event"
    },
    {
      "anonymous": false,
      "inputs": [
        {
          "indexed": false,
          "internalType": "bytes32",
          "name": "keyHash",
          "type": "bytes32"
        },
        {
          "indexed": true,
          "internalType": "address",
          "name": "oracle",
          "type": "address"
        }
      ],
      "name": "ProvingKeyDeregistered",
      "type": "event"
    },
    {
      "anonymous": false,
      "inputs": [
        {
          "indexed": false,
          "internalType": "bytes32",
          "name": "keyHash",
          "type": "bytes32"
        },
        {
          "indexed": true,
          "internalType": "address",
          "name": "oracle",
          "type": "address"
        }
      ],
      "name": "ProvingKeyRegistered",
      "type": "event"
    },
    {
      "anonymous": false,
      "inputs": [
        {
          "indexed": true,
          "internalType": "uint256",
          "name": "requestId",
          "type": "uint256"
        },
        {
          "indexed": false,
          "internalType": "uint256",
          "name": "outputSeed",
          "type": "uint256"
        },
        {
          "indexed": false,
          "internalType": "uint96",
          "name": "payment",
          "type": "uint96"
        },
        {
          "indexed": false,
          "internalType": "bool",
          "name": "success",
          "type": "bool"
        }
      ],
      "name": "RandomWordsFulfilled",
      "type": "event"
    },
    {
      "anonymous": false,
      "inputs": [
        {
          "indexed": true,
          "internalType": "bytes32",
          "name": "keyHash",
          "type": "bytes32"
        },
        {
          "indexed": false,
          "internalType": "uint256",
          "name": "requestId",
          "type": "uint256"
        },
        {
          "indexed": false,
          "internalType": "uint256",
          "name": "preSeed",
          "type": "uint256"
        },
        {
          "indexed": true,
          "internalType": "uint64",
          "name": "subId",
          "type": "uint64"
        },
        {
          "indexed": false,
          "internalType": "uint16",
          "name": "minimumRequestConfirmations",
          "type": "uint16"
        },
        {
          "indexed": false,
          "internalType": "uint32",
          "name": "callbackGasLimit",
          "type": "uint32"
        },
        {
          "indexed": false,
          "internalType": "uint32",
          "name": "numWords",
          "type": "uint32"
        },
        {
          "indexed": true,
          "internalType": "address",
          "name": "sender",
          "type": "address"
        }
      ],
      "name": "RandomWordsRequested",
      "type": "event"
    },
    {
      "anonymous": false,
      "inputs": [
        {
          "indexed": true,
          "internalType": "uint64",
          "name": "subId",
          "type": "uint64"
        },
        {
          "indexed": false,
          "internalType": "address",
          "name": "to",
          "type": "address"
        },
        {
          "indexed": false,
          "internalType": "uint256",
          "name": "amount",
          "type": "uint256"
        }
      ],
      "name": "SubscriptionCanceled",
      "type": "event"
    },
    {
      "anonymous": false,
      "inputs": [
        {
          "indexed": true,
          "internalType": "uint64",
          "name": "subId",
          "type": "uint64"
        },
        {
          "indexed": false,
          "internalType": "address",
          "name": "consumer",
          "type": "address"
        }
      ],
      "name": "SubscriptionConsumerAdded",
      "type": "event"
    },
    {
      "anonymous": false,
      "inputs": [
        {
          "indexed": true,
          "internalType": "uint64",
          "name": "subId",
          "type": "uint64"
        },
        {
          "indexed": false,
          "internalType": "address",
          "name": "consumer",
          "type": "address"
        }
      ],
      "name": "SubscriptionConsumerRemoved",
      "type": "event"
    },
    {
      "anonymous": false,
      "inputs": [
        {
          "indexed": true,
          "internalType": "uint64",
          "name": "subId",
          "type": "uint64"
        },
        {
          "indexed": false,
          "internalType": "address",
          "name": "owner",
          "type": "address"
        }
      ],
      "name": "SubscriptionCreated",
      "type": "event"
    },
    {
      "anonymous": false,
      "inputs": [
        {
          "indexed": true,
          "internalType": "uint64",
          "name": "subId",
          "type": "uint64"
        },
        {
          "indexed": false,
          "internalType": "uint256",
          "name": "oldBalance",
          "type": "uint256"
        },
        {
          "indexed": false,
          "internalType": "uint256",
          "name": "newBalance",
          "type": "uint256"
        }
      ],
      "name": "SubscriptionFunded",
      "type": "event"
    },
    {
      "anonymous": false,
      "inputs": [
        {
          "indexed": true,
          "internalType": "uint64",
          "name": "subId",
          "type": "uint64"
        },
        {
          "indexed": false,
          "internalType": "address",
          "name": "from",
          "type": "address"
        },
        {
          "indexed": false,
          "internalType": "address",
          "name": "to",
          "type": "address"
        }
      ],
      "name": "SubscriptionOwnerTransferRequested",
      "type": "event"
    },
    {
      "anonymous": false,
      "inputs": [
        {
          "indexed": true,
          "internalType": "uint64",
          "name": "subId",
          "type": "uint64"
        },
        {
          "indexed": false,
          "internalType": "address",
          "name": "from",
          "type": "address"
        },
        {
          "indexed": false,
          "internalType": "address",
          "name": "to",
          "type": "address"
        }
      ],
      "name": "SubscriptionOwnerTransferred",
      "type": "event"
    },
    {
      "inputs": [],
      "name": "BLOCKHASH_STORE",
      "outputs": [
        {
          "internalType": "contract BlockhashStoreInterface",
          "name": "",
          "type": "address"
        }
      ],
      "stateMutability": "view",
      "type": "function"
    },
    {
      "inputs": [],
      "name": "LINK",
      "outputs": [
        {
          "internalType": "contract LinkTokenInterface",
          "name": "",
          "type": "address"
        }
      ],
      "stateMutability": "view",
      "type": "function"
    },
    {
      "inputs": [],
      "name": "LINK_ETH_FEED",
      "outputs": [
        {
          "internalType": "contract AggregatorV3Interface",
          "name": "",
          "type": "address"
        }
      ],
      "stateMutability": "view",
      "type": "function"
    },
    {
      "inputs": [],
      "name": "MAX_CONSUMERS",
      "outputs": [
        {
          "internalType": "uint16",
          "name": "",
          "type": "uint16"
        }
      ],
      "stateMutability": "view",
      "type": "function"
    },
    {
      "inputs": [],
      "name": "MAX_NUM_WORDS",
      "outputs": [
        {
          "internalType": "uint32",
          "name": "",
          "type": "uint32"
        }
      ],
      "stateMutability": "view",
      "type": "function"
    },
    {
      "inputs": [],
      "name": "MAX_REQUEST_CONFIRMATIONS",
      "outputs": [
        {
          "internalType": "uint16",
          "name": "",
          "type": "uint16"
        }
      ],
      "stateMutability": "view",
      "type": "function"
    },
    {
      "inputs": [],
      "name": "acceptOwnership",
      "outputs": [],
      "stateMutability": "nonpayable",
      "type": "function"
    },
    {
      "inputs": [
        {
          "internalType": "uint64",
          "name": "subId",
          "type": "uint64"
        }
      ],
      "name": "acceptSubscriptionOwnerTransfer",
      "outputs": [],
      "stateMutability": "nonpayable",
      "type": "function"
    },
    {
      "inputs": [
        {
          "internalType": "uint64",
          "name": "subId",
          "type": "uint64"
        },
        {
          "internalType": "address",
          "name": "consumer",
          "type": "address"
        }
      ],
      "name": "addConsumer",
      "outputs": [],
      "stateMutability": "nonpayable",
      "type": "function"
    },
    {
      "inputs": [
        {
          "internalType": "uint64",
          "name": "subId",
          "type": "uint64"
        },
        {
          "internalType": "address",
          "name": "to",
          "type": "address"
        }
      ],
      "name": "cancelSubscription",
      "outputs": [],
      "stateMutability": "nonpayable",
      "type": "function"
    },
    {
      "inputs": [],
      "name": "createSubscription",
      "outputs": [
        {
          "internalType": "uint64",
          "name": "",
          "type": "uint64"
        }
      ],
      "stateMutability": "nonpayable",
      "type": "function"
    },
    {
      "inputs": [
        {
          "internalType": "uint256[2]",
          "name": "publicProvingKey",
          "type": "uint256[2]"
        }
      ],
      "name": "deregisterProvingKey",
      "outputs": [],
      "stateMutability": "nonpayable",
      "type": "function"
    },
    {
      "inputs": [
        {
          "components": [
            {
              "internalType": "uint256[2]",
              "name": "pk",
              "type": "uint256[2]"
            },
            {
              "internalType": "uint256[2]",
              "name": "gamma",
              "type": "uint256[2]"
            },
            {
              "internalType": "uint256",
              "name": "c",
              "type": "uint256"
            },
            {
              "internalType": "uint256",
              "name": "s",
              "type": "uint256"
            },
            {
              "internalType": "uint256",
              "name": "seed",
              "type": "uint256"
            },
            {
              "internalType": "address",
              "name": "uWitness",
              "type": "address"
            },
            {
              "internalType": "uint256[2]",
              "name": "cGammaWitness",
              "type": "uint256[2]"
            },
            {
              "internalType": "uint256[2]",
              "name": "sHashWitness",
              "type": "uint256[2]"
            },
            {
              "internalType": "uint256",
              "name": "zInv",
              "type": "uint256"
            }
          ],
          "internalType": "struct VRF.Proof",
          "name": "proof",
          "type": "tuple"
        },
        {
          "components": [
            {
              "internalType": "uint64",
              "name": "blockNum",
              "type": "uint64"
            },
            {
              "internalType": "uint64",
              "name": "subId",
              "type": "uint64"
            },
            {
              "internalType": "uint32",
              "name": "callbackGasLimit",
              "type": "uint32"
            },
            {
              "internalType": "uint32",
              "name": "numWords",
              "type": "uint32"
            },
            {
              "internalType": "address",
              "name": "sender",
              "type": "address"
            }
          ],
          "internalType": "struct VRFCoordinatorV2.RequestCommitment",
          "name": "rc",
          "type": "tuple"
        }
      ],
      "name": "fulfillRandomWords",
      "outputs": [
        {
          "internalType": "uint96",
          "name": "",
          "type": "uint96"
        }
      ],
      "stateMutability": "nonpayable",
      "type": "function"
    },
    {
      "inputs": [
        {
          "internalType": "uint256",
          "name": "requestId",
          "type": "uint256"
        }
      ],
      "name": "getCommitment",
      "outputs": [
        {
          "internalType": "bytes32",
          "name": "",
          "type": "bytes32"
        }
      ],
      "stateMutability": "view",
      "type": "function"
    },
    {
      "inputs": [],
      "name": "getConfig",
      "outputs": [
        {
          "internalType": "uint16",
          "name": "minimumRequestConfirmations",
          "type": "uint16"
        },
        {
          "internalType": "uint32",
          "name": "maxGasLimit",
          "type": "uint32"
        },
        {
          "internalType": "uint32",
          "name": "stalenessSeconds",
          "type": "uint32"
        },
        {
          "internalType": "uint32",
          "name": "gasAfterPaymentCalculation",
          "type": "uint32"
        }
      ],
      "stateMutability": "view",
      "type": "function"
    },
    {
      "inputs": [],
      "name": "getCurrentSubId",
      "outputs": [
        {
          "internalType": "uint64",
          "name": "",
          "type": "uint64"
        }
      ],
      "stateMutability": "view",
      "type": "function"
    },
    {
      "inputs": [],
      "name": "getFallbackWeiPerUnitLink",
      "outputs": [
        {
          "internalType": "int256",
          "name": "",
          "type": "int256"
        }
      ],
      "stateMutability": "view",
      "type": "function"
    },
    {
      "inputs": [],
      "name": "getFeeConfig",
      "outputs": [
        {
          "internalType": "uint32",
          "name": "fulfillmentFlatFeeLinkPPMTier1",
          "type": "uint32"
        },
        {
          "internalType": "uint32",
          "name": "fulfillmentFlatFeeLinkPPMTier2",
          "type": "uint32"
        },
        {
          "internalType": "uint32",
          "name": "fulfillmentFlatFeeLinkPPMTier3",
          "type": "uint32"
        },
        {
          "internalType": "uint32",
          "name": "fulfillmentFlatFeeLinkPPMTier4",
          "type": "uint32"
        },
        {
          "internalType": "uint32",
          "name": "fulfillmentFlatFeeLinkPPMTier5",
          "type": "uint32"
        },
        {
          "internalType": "uint24",
          "name": "reqsForTier2",
          "type": "uint24"
        },
        {
          "internalType": "uint24",
          "name": "reqsForTier3",
          "type": "uint24"
        },
        {
          "internalType": "uint24",
          "name": "reqsForTier4",
          "type": "uint24"
        },
        {
          "internalType": "uint24",
          "name": "reqsForTier5",
          "type": "uint24"
        }
      ],
      "stateMutability": "view",
      "type": "function"
    },
    {
      "inputs": [
        {
          "internalType": "uint64",
          "name": "reqCount",
          "type": "uint64"
        }
      ],
      "name": "getFeeTier",
      "outputs": [
        {
          "internalType": "uint32",
          "name": "",
          "type": "uint32"
        }
      ],
      "stateMutability": "view",
      "type": "function"
    },
    {
      "inputs": [],
      "name": "getRequestConfig",
      "outputs": [
        {
          "internalType": "uint16",
          "name": "",
          "type": "uint16"
        },
        {
          "internalType": "uint32",
          "name": "",
          "type": "uint32"
        },
        {
          "internalType": "bytes32[]",
          "name": "",
          "type": "bytes32[]"
        }
      ],
      "stateMutability": "view",
      "type": "function"
    },
    {
      "inputs": [
        {
          "internalType": "uint64",
          "name": "subId",
          "type": "uint64"
        }
      ],
      "name": "getSubscription",
      "outputs": [
        {
          "internalType": "uint96",
          "name": "balance",
          "type": "uint96"
        },
        {
          "internalType": "uint64",
          "name": "reqCount",
          "type": "uint64"
        },
        {
          "internalType": "address",
          "name": "owner",
          "type": "address"
        },
        {
          "internalType": "address[]",
          "name": "consumers",
          "type": "address[]"
        }
      ],
      "stateMutability": "view",
      "type": "function"
    },
    {
      "inputs": [],
      "name": "getTotalBalance",
      "outputs": [
        {
          "internalType": "uint256",
          "name": "",
          "type": "uint256"
        }
      ],
      "stateMutability": "view",
      "type": "function"
    },
    {
      "inputs": [
        {
          "internalType": "uint256[2]",
          "name": "publicKey",
          "type": "uint256[2]"
        }
      ],
      "name": "hashOfKey",
      "outputs": [
        {
          "internalType": "bytes32",
          "name": "",
          "type": "bytes32"
        }
      ],
      "stateMutability": "pure",
      "type": "function"
    },
    {
      "inputs": [
        {
          "internalType": "address",
          "name": "",
          "type": "address"
        },
        {
          "internalType": "uint256",
          "name": "amount",
          "type": "uint256"
        },
        {
          "internalType": "bytes",
          "name": "data",
          "type": "bytes"
        }
      ],
      "name": "onTokenTransfer",
      "outputs": [],
      "stateMutability": "nonpayable",
      "type": "function"
    },
    {
      "inputs": [
        {
          "internalType": "address",
          "name": "recipient",
          "type": "address"
        },
        {
          "internalType": "uint96",
          "name": "amount",
          "type": "uint96"
        }
      ],
      "name": "oracleWithdraw",
      "outputs": [],
      "stateMutability": "nonpayable",
      "type": "function"
    },
    {
      "inputs": [],
      "name": "owner",
      "outputs": [
        {
          "internalType": "address",
          "name": "",
          "type": "address"
        }
      ],
      "stateMutability": "view",
      "type": "function"
    },
    {
      "inputs": [
        {
          "internalType": "uint64",
          "name": "subId",
          "type": "uint64"
        }
      ],
      "name": "ownerCancelSubscription",
      "outputs": [],
      "stateMutability": "nonpayable",
      "type": "function"
    },
    {
      "inputs": [
        {
          "internalType": "uint64",
          "name": "subId",
          "type": "uint64"
        }
      ],
      "name": "pendingRequestExists",
      "outputs": [
        {
          "internalType": "bool",
          "name": "",
          "type": "bool"
        }
      ],
      "stateMutability": "view",
      "type": "function"
    },
    {
      "inputs": [
        {
          "internalType": "address",
          "name": "to",
          "type": "address"
        }
      ],
      "name": "recoverFunds",
      "outputs": [],
      "stateMutability": "nonpayable",
      "type": "function"
    },
    {
      "inputs": [
        {
          "internalType": "address",
          "name": "oracle",
          "type": "address"
        },
        {
          "internalType": "uint256[2]",
          "name": "publicProvingKey",
          "type": "uint256[2]"
        }
      ],
      "name": "registerProvingKey",
      "outputs": [],
      "stateMutability": "nonpayable",
      "type": "function"
    },
    {
      "inputs": [
        {
          "internalType": "uint64",
          "name": "subId",
          "type": "uint64"
        },
        {
          "internalType": "address",
          "name": "consumer",
          "type": "address"
        }
      ],
      "name": "removeConsumer",
      "outputs": [],
      "stateMutability": "nonpayable",
      "type": "function"
    },
    {
      "inputs": [
        {
          "internalType": "bytes32",
          "name": "keyHash",
          "type": "bytes32"
        },
        {
          "internalType": "uint64",
          "name": "subId",
          "type": "uint64"
        },
        {
          "internalType": "uint16",
          "name": "requestConfirmations",
          "type": "uint16"
        },
        {
          "internalType": "uint32",
          "name": "callbackGasLimit",
          "type": "uint32"
        },
        {
          "internalType": "uint32",
          "name": "numWords",
          "type": "uint32"
        }
      ],
      "name": "requestRandomWords",
      "outputs": [
        {
          "internalType": "uint256",
          "name": "",
          "type": "uint256"
        }
      ],
      "stateMutability": "nonpayable",
      "type": "function"
    },
    {
      "inputs": [
        {
          "internalType": "uint64",
          "name": "subId",
          "type": "uint64"
        },
        {
          "internalType": "address",
          "name": "newOwner",
          "type": "address"
        }
      ],
      "name": "requestSubscriptionOwnerTransfer",
      "outputs": [],
      "stateMutability": "nonpayable",
      "type": "function"
    },
    {
      "inputs": [
        {
          "internalType": "uint16",
          "name": "minimumRequestConfirmations",
          "type": "uint16"
        },
        {
          "internalType": "uint32",
          "name": "maxGasLimit",
          "type": "uint32"
        },
        {
          "internalType": "uint32",
          "name": "stalenessSeconds",
          "type": "uint32"
        },
        {
          "internalType": "uint32",
          "name": "gasAfterPaymentCalculation",
          "type": "uint32"
        },
        {
          "internalType": "int256",
          "name": "fallbackWeiPerUnitLink",
          "type": "int256"
        },
        {
          "components": [
            {
              "internalType": "uint32",
              "name": "fulfillmentFlatFeeLinkPPMTier1",
              "type": "uint32"
            },
            {
              "internalType": "uint32",
              "name": "fulfillmentFlatFeeLinkPPMTier2",
              "type": "uint32"
            },
            {
              "internalType": "uint32",
              "name": "fulfillmentFlatFeeLinkPPMTier3",
              "type": "uint32"
            },
            {
              "internalType": "uint32",
              "name": "fulfillmentFlatFeeLinkPPMTier4",
              "type": "uint32"
            },
            {
              "internalType": "uint32",
              "name": "fulfillmentFlatFeeLinkPPMTier5",
              "type": "uint32"
            },
            {
              "internalType": "uint24",
              "name": "reqsForTier2",
              "type": "uint24"
            },
            {
              "internalType": "uint24",
              "name": "reqsForTier3",
              "type": "uint24"
            },
            {
              "internalType": "uint24",
              "name": "reqsForTier4",
              "type": "uint24"
            },
            {
              "internalType": "uint24",
              "name": "reqsForTier5",
              "type": "uint24"
            }
          ],
          "internalType": "struct VRFCoordinatorV2.FeeConfig",
          "name": "feeConfig",
          "type": "tuple"
        }
      ],
      "name": "setConfig",
      "outputs": [],
      "stateMutability": "nonpayable",
      "type": "function"
    },
    {
      "inputs": [
        {
          "internalType": "address",
          "name": "to",
          "type": "address"
        }
      ],
      "name": "transferOwnership",
      "outputs": [],
      "stateMutability": "nonpayable",
      "type": "function"
    },
    {
      "inputs": [],
      "name": "typeAndVersion",
      "outputs": [
        {
          "internalType": "string",
          "name": "",
          "type": "string"
        }
      ],
      "stateMutability": "pure",
      "type": "function"
    }
  ],
  "bytecode": "0x60e06040523480156200001157600080fd5b50604051620090ca380380620090ca833981810160405281019062000037919062000374565b338060008073ffffffffffffffffffffffffffffffffffffffff168273ffffffffffffffffffffffffffffffffffffffff1603620000ac576040517f08c379a0000000000000000000000000000000000000000000000000000000008152600401620000a39062000431565b60405180910390fd5b816000806101000a81548173ffffffffffffffffffffffffffffffffffffffff021916908373ffffffffffffffffffffffffffffffffffffffff160217905550600073ffffffffffffffffffffffffffffffffffffffff168173ffffffffffffffffffffffffffffffffffffffff161462000133576200013281620001db60201b60201c565b5b5050508273ffffffffffffffffffffffffffffffffffffffff1660808173ffffffffffffffffffffffffffffffffffffffff16815250508073ffffffffffffffffffffffffffffffffffffffff1660a08173ffffffffffffffffffffffffffffffffffffffff16815250508173ffffffffffffffffffffffffffffffffffffffff1660c08173ffffffffffffffffffffffffffffffffffffffff1681525050505050620004c5565b3373ffffffffffffffffffffffffffffffffffffffff168173ffffffffffffffffffffffffffffffffffffffff16036200024c576040517f08c379a00000000000000000000000000000000000000000000000000000000081526004016200024390620004a3565b60405180910390fd5b80600160006101000a81548173ffffffffffffffffffffffffffffffffffffffff021916908373ffffffffffffffffffffffffffffffffffffffff1602179055508073ffffffffffffffffffffffffffffffffffffffff1660008054906101000a900473ffffffffffffffffffffffffffffffffffffffff1673ffffffffffffffffffffffffffffffffffffffff167fed8889f560326eb138920d842192f0eb3dd22b4f139c87a2c57538e05bae127860405160405180910390a350565b600080fd5b600073ffffffffffffffffffffffffffffffffffffffff82169050919050565b60006200033c826200030f565b9050919050565b6200034e816200032f565b81146200035a57600080fd5b50565b6000815190506200036e8162000343565b92915050565b60008060006060848603121562000390576200038f6200030a565b5b6000620003a0868287016200035d565b9350506020620003b3868287016200035d565b9250506040620003c6868287016200035d565b9150509250925092565b600082825260208201905092915050565b7f43616e6e6f7420736574206f776e657220746f207a65726f0000000000000000600082015250565b600062000419601883620003d0565b91506200042682620003e1565b602082019050919050565b600060208201905081810360008301526200044c816200040a565b9050919050565b7f43616e6e6f74207472616e7366657220746f2073656c66000000000000000000600082015250565b60006200048b601783620003d0565b9150620004988262000453565b602082019050919050565b60006020820190508181036000830152620004be816200047c565b9050919050565b60805160a05160c051618ba4620005266000396000818161198f0152614aec0152600081816132b90152615075015260008181610dca015281816118b701528181612fb201528181613d0101528181613e2901526146d50152618ba46000f3fe608060405234801561001057600080fd5b506004361061021b5760003560e01c80636f64f03f11610125578063ad178361116100ad578063d2f9f9a71161007c578063d2f9f9a714610604578063d7ae1d3014610634578063e72f6e3014610650578063e82ad7d41461066c578063f2fde38b1461069c5761021b565b8063ad17836114610565578063af198b9714610583578063c3f909d4146105b3578063caf70c4a146105d45761021b565b80638da5cb5b116100f45780638da5cb5b146104be5780639f87fad7146104dc578063a21a23e4146104f8578063a47c769614610516578063a4c0ed36146105495761021b565b80636f64f03f146104605780637341c10c1461047c57806379ba50971461049857806382359740146104a25761021b565b8063356dac71116101a85780635fbbc0d2116101775780635fbbc0d2146103b257806364d51a2a146103d857806366316d8d146103f6578063689c45171461041257806369bcdb7d146104305761021b565b8063356dac711461032a57806340d6bb82146103485780634cb48a54146103665780635d3b1d30146103825761021b565b806308821d58116101ef57806308821d581461029657806312b58349146102b257806315c48b84146102d0578063181f5a77146102ee5780631b6b6d231461030c5761021b565b80620122911461022057806302bcc5b61461024057806304c357cb1461025c57806306bfa63714610278575b600080fd5b6102286106b8565b60405161023793929190616639565b60405180910390f35b61025a600480360381019061025591906166cb565b610746565b005b61027660048036038101906102719190616756565b610855565b005b610280610af6565b60405161028d91906167a5565b60405180910390f35b6102b060048036038101906102ab91906167e7565b610b14565b005b6102ba610d56565b6040516102c7919061682d565b60405180910390f35b6102d8610d86565b6040516102e59190616848565b60405180910390f35b6102f6610d8b565b60405161030391906168f3565b60405180910390f35b610314610dc8565b6040516103219190616974565b60405180910390f35b610332610dec565b60405161033f91906169a8565b60405180910390f35b610350610df6565b60405161035d91906169c3565b60405180910390f35b610380600480360381019061037b9190616bfd565b610dfc565b005b61039c60048036038101906103979190616cb7565b611148565b6040516103a9919061682d565b60405180910390f35b6103ba6115e1565b6040516103cf99989796959493929190616d41565b60405180910390f35b6103e06116ce565b6040516103ed9190616848565b60405180910390f35b610410600480360381019061040b9190616e12565b6116d3565b005b61041a61198d565b6040516104279190616e73565b60405180910390f35b61044a60048036038101906104459190616eba565b6119b1565b6040516104579190616ef6565b60405180910390f35b61047a60048036038101906104759190616f11565b6119ce565b005b61049660048036038101906104919190616756565b611b8c565b005b6104a0611f51565b005b6104bc60048036038101906104b791906166cb565b6120e6565b005b6104c661244e565b6040516104d39190616f60565b60405180910390f35b6104f660048036038101906104f19190616756565b612477565b005b6105006129fa565b60405161050d91906167a5565b60405180910390f35b610530600480360381019061052b91906166cb565b612d21565b6040516105409493929190617048565b60405180910390f35b610563600480360381019061055e91906170f4565b612f66565b005b61056d6132b7565b60405161057a9190617189565b60405180910390f35b61059d600480360381019061059891906173c3565b6132db565b6040516105aa9190617405565b60405180910390f35b6105bb61381a565b6040516105cb9493929190617420565b60405180910390f35b6105ee60048036038101906105e99190617465565b613884565b6040516105fb9190616ef6565b60405180910390f35b61061e600480360381019061061991906166cb565b6138b4565b60405161062b91906169c3565b60405180910390f35b61064e60048036038101906106499190616756565b613b35565b005b61066a60048036038101906106659190617492565b613cf5565b005b610686600480360381019061068191906166cb565b613f06565b60405161069391906174da565b60405180910390f35b6106b660048036038101906106b19190617492565b6141cc565b005b6000806060600b60000160009054906101000a900461ffff16600b60000160029054906101000a900463ffffffff1660078080548060200260200160405190810160405280929190818152602001828054801561073457602002820191906000526020600020905b815481526020019060010190808311610720575b50505050509050925092509250909192565b61074e6141e0565b600073ffffffffffffffffffffffffffffffffffffffff16600360008367ffffffffffffffff1667ffffffffffffffff16815260200190815260200160002060000160009054906101000a900473ffffffffffffffffffffffffffffffffffffffff1673ffffffffffffffffffffffffffffffffffffffff16036107fe576040517f1f6a65b600000000000000000000000000000000000000000000000000000000815260040160405180910390fd5b61085281600360008467ffffffffffffffff1667ffffffffffffffff16815260200190815260200160002060000160009054906101000a900473ffffffffffffffffffffffffffffffffffffffff16614270565b50565b816000600360008367ffffffffffffffff1667ffffffffffffffff16815260200190815260200160002060000160009054906101000a900473ffffffffffffffffffffffffffffffffffffffff169050600073ffffffffffffffffffffffffffffffffffffffff168173ffffffffffffffffffffffffffffffffffffffff160361090b576040517f1f6a65b600000000000000000000000000000000000000000000000000000000815260040160405180910390fd5b8073ffffffffffffffffffffffffffffffffffffffff163373ffffffffffffffffffffffffffffffffffffffff161461097b57806040517fd8a3fb520000000000000000000000000000000000000000000000000000000081526004016109729190616f60565b60405180910390fd5b600b60000160069054906101000a900460ff16156109c5576040517fed3ba6a600000000000000000000000000000000000000000000000000000000815260040160405180910390fd5b8273ffffffffffffffffffffffffffffffffffffffff16600360008667ffffffffffffffff1667ffffffffffffffff16815260200190815260200160002060010160009054906101000a900473ffffffffffffffffffffffffffffffffffffffff1673ffffffffffffffffffffffffffffffffffffffff1614610af05782600360008667ffffffffffffffff1667ffffffffffffffff16815260200190815260200160002060010160006101000a81548173ffffffffffffffffffffffffffffffffffffffff021916908373ffffffffffffffffffffffffffffffffffffffff1602179055508367ffffffffffffffff167f69436ea6df009049404f564eff6622cd00522b0bd6a89efd9e52a355c4a879be3385604051610ae79291906174f5565b60405180910390a25b50505050565b6000600560009054906101000a900467ffffffffffffffff16905090565b610b1c6141e0565b6000610b5e826002806020026040519081016040528092919082600260200280828437600081840152601f19601f820116905080830192505050505050613884565b905060006006600083815260200190815260200160002060009054906101000a900473ffffffffffffffffffffffffffffffffffffffff169050600073ffffffffffffffffffffffffffffffffffffffff168173ffffffffffffffffffffffffffffffffffffffff1603610c0957816040517f77f5b84c000000000000000000000000000000000000000000000000000000008152600401610c009190616ef6565b60405180910390fd5b6006600083815260200190815260200160002060006101000a81549073ffffffffffffffffffffffffffffffffffffffff021916905560005b600780549050811015610d02578260078281548110610c6457610c6361751e565b5b906000526020600020015403610cf557600060076001600780549050610c8a919061757c565b81548110610c9b57610c9a61751e565b5b906000526020600020015490508060078381548110610cbd57610cbc61751e565b5b90600052602060002001819055506007805480610cdd57610cdc6175b0565b5b60019003818190600052602060002001600090559055505b8080600101915050610c42565b508073ffffffffffffffffffffffffffffffffffffffff167f72be339577868f868798bac2c93e52d6f034fef4689a9848996c14ebb7416c0d83604051610d499190616ef6565b60405180910390a2505050565b6000600560089054906101000a90046bffffffffffffffffffffffff166bffffffffffffffffffffffff16905090565b60c881565b60606040518060400160405280601681526020017f565246436f6f7264696e61746f72563220312e302e3000000000000000000000815250905090565b7f000000000000000000000000000000000000000000000000000000000000000081565b6000600a54905090565b6101f481565b610e046141e0565b60c861ffff168661ffff161115610e5757858660c86040517fa7386976000000000000000000000000000000000000000000000000000000008152600401610e4e939291906175df565b60405180910390fd5b60008213610e9c57816040517f43d4cf66000000000000000000000000000000000000000000000000000000008152600401610e9391906169a8565b60405180910390fd5b6040518060a001604052808761ffff1681526020018663ffffffff1681526020016000151581526020018563ffffffff1681526020018463ffffffff16815250600b60008201518160000160006101000a81548161ffff021916908361ffff16021790555060208201518160000160026101000a81548163ffffffff021916908363ffffffff16021790555060408201518160000160066101000a81548160ff02191690831515021790555060608201518160000160076101000a81548163ffffffff021916908363ffffffff160217905550608082015181600001600b6101000a81548163ffffffff021916908363ffffffff16021790555090505080600c60008201518160000160006101000a81548163ffffffff021916908363ffffffff16021790555060208201518160000160046101000a81548163ffffffff021916908363ffffffff16021790555060408201518160000160086101000a81548163ffffffff021916908363ffffffff160217905550606082015181600001600c6101000a81548163ffffffff021916908363ffffffff16021790555060808201518160000160106101000a81548163ffffffff021916908363ffffffff16021790555060a08201518160000160146101000a81548162ffffff021916908362ffffff16021790555060c08201518160000160176101000a81548162ffffff021916908362ffffff16021790555060e082015181600001601a6101000a81548162ffffff021916908362ffffff16021790555061010082015181600001601d6101000a81548162ffffff021916908362ffffff16021790555090505081600a819055507fc21e3bd2e0b339d2848f0dd956947a88966c242c0c0c582a33137a5c1ceb5cb28686868686600c60405161113896959493929190617895565b60405180910390a1505050505050565b6000600b60000160069054906101000a900460ff1615611194576040517fed3ba6a600000000000000000000000000000000000000000000000000000000815260040160405180910390fd5b600073ffffffffffffffffffffffffffffffffffffffff16600360008767ffffffffffffffff1667ffffffffffffffff16815260200190815260200160002060000160009054906101000a900473ffffffffffffffffffffffffffffffffffffffff1673ffffffffffffffffffffffffffffffffffffffff1603611244576040517f1f6a65b600000000000000000000000000000000000000000000000000000000815260040160405180910390fd5b6000600260003373ffffffffffffffffffffffffffffffffffffffff1673ffffffffffffffffffffffffffffffffffffffff16815260200190815260200160002060008767ffffffffffffffff1667ffffffffffffffff16815260200190815260200160002060009054906101000a900467ffffffffffffffff16905060008167ffffffffffffffff16036113125785336040517ff0019fe60000000000000000000000000000000000000000000000000000000081526004016113099291906178f7565b60405180910390fd5b600b60000160009054906101000a900461ffff1661ffff168561ffff161080611343575060c861ffff168561ffff16115b1561139d5784600b60000160009054906101000a900461ffff1660c86040517fa7386976000000000000000000000000000000000000000000000000000000008152600401611394939291906175df565b60405180910390fd5b600b60000160029054906101000a900463ffffffff1663ffffffff168463ffffffff16111561141a5783600b60000160029054906101000a900463ffffffff166040517ff5d7e01e000000000000000000000000000000000000000000000000000000008152600401611411929190617920565b60405180910390fd5b6101f463ffffffff168363ffffffff16111561147157826101f46040517f47386bec000000000000000000000000000000000000000000000000000000008152600401611468929190617920565b60405180910390fd5b60006001826114809190617949565b90506000806114918a338b86614800565b915091508161149e614872565b8a8989336040516020016114b796959493929190617985565b6040516020818303038152906040528051906020012060096000848152602001908152602001600020819055503373ffffffffffffffffffffffffffffffffffffffff168967ffffffffffffffff168b7f63373d1c4696214b898952999c9aaec57dac1ee2723cec59bea6888f489a977285858d8d8d60405161153e9594939291906179e6565b60405180910390a482600260003373ffffffffffffffffffffffffffffffffffffffff1673ffffffffffffffffffffffffffffffffffffffff16815260200190815260200160002060008b67ffffffffffffffff1667ffffffffffffffff16815260200190815260200160002060006101000a81548167ffffffffffffffff021916908367ffffffffffffffff1602179055508194505050505095945050505050565b6000806000806000806000806000600c60000160009054906101000a900463ffffffff16600c60000160049054906101000a900463ffffffff16600c60000160089054906101000a900463ffffffff16600c600001600c9054906101000a900463ffffffff16600c60000160109054906101000a900463ffffffff16600c60000160149054906101000a900462ffffff16600c60000160179054906101000a900462ffffff16600c600001601a9054906101000a900462ffffff16600c600001601d9054906101000a900462ffffff16985098509850985098509850985098509850909192939495969798565b606481565b600b60000160069054906101000a900460ff161561171d576040517fed3ba6a600000000000000000000000000000000000000000000000000000000815260040160405180910390fd5b806bffffffffffffffffffffffff16600860003373ffffffffffffffffffffffffffffffffffffffff1673ffffffffffffffffffffffffffffffffffffffff16815260200190815260200160002060009054906101000a90046bffffffffffffffffffffffff166bffffffffffffffffffffffff1610156117ca576040517ff4d678b800000000000000000000000000000000000000000000000000000000815260040160405180910390fd5b80600860003373ffffffffffffffffffffffffffffffffffffffff1673ffffffffffffffffffffffffffffffffffffffff16815260200190815260200160002060008282829054906101000a90046bffffffffffffffffffffffff166118309190617a39565b92506101000a8154816bffffffffffffffffffffffff02191690836bffffffffffffffffffffffff16021790555080600560088282829054906101000a90046bffffffffffffffffffffffff166118879190617a39565b92506101000a8154816bffffffffffffffffffffffff02191690836bffffffffffffffffffffffff1602179055507f000000000000000000000000000000000000000000000000000000000000000073ffffffffffffffffffffffffffffffffffffffff1663a9059cbb83836040518363ffffffff1660e01b8152600401611910929190617aaa565b6020604051808303816000875af115801561192f573d6000803e3d6000fd5b505050506040513d601f19601f820116820180604052508101906119539190617aff565b611989576040517ff4d678b800000000000000000000000000000000000000000000000000000000815260040160405180910390fd5b5050565b7f000000000000000000000000000000000000000000000000000000000000000081565b600060096000838152602001908152602001600020549050919050565b6119d66141e0565b6000611a18826002806020026040519081016040528092919082600260200280828437600081840152601f19601f820116905080830192505050505050613884565b9050600073ffffffffffffffffffffffffffffffffffffffff166006600083815260200190815260200160002060009054906101000a900473ffffffffffffffffffffffffffffffffffffffff1673ffffffffffffffffffffffffffffffffffffffff1614611abe57806040517f4a0b8fa7000000000000000000000000000000000000000000000000000000008152600401611ab59190616ef6565b60405180910390fd5b826006600083815260200190815260200160002060006101000a81548173ffffffffffffffffffffffffffffffffffffffff021916908373ffffffffffffffffffffffffffffffffffffffff16021790555060078190806001815401808255809150506001900390600052602060002001600090919091909150558273ffffffffffffffffffffffffffffffffffffffff167fe729ae16526293f74ade739043022254f1489f616295a25bf72dfb4511ed73b882604051611b7f9190616ef6565b60405180910390a2505050565b816000600360008367ffffffffffffffff1667ffffffffffffffff16815260200190815260200160002060000160009054906101000a900473ffffffffffffffffffffffffffffffffffffffff169050600073ffffffffffffffffffffffffffffffffffffffff168173ffffffffffffffffffffffffffffffffffffffff1603611c42576040517f1f6a65b600000000000000000000000000000000000000000000000000000000815260040160405180910390fd5b8073ffffffffffffffffffffffffffffffffffffffff163373ffffffffffffffffffffffffffffffffffffffff1614611cb257806040517fd8a3fb52000000000000000000000000000000000000000000000000000000008152600401611ca99190616f60565b60405180910390fd5b600b60000160069054906101000a900460ff1615611cfc576040517fed3ba6a600000000000000000000000000000000000000000000000000000000815260040160405180910390fd5b606461ffff16600360008667ffffffffffffffff1667ffffffffffffffff1681526020019081526020016000206002018054905003611d67576040517f05a48e0f00000000000000000000000000000000000000000000000000000000815260040160405180910390fd5b6000600260008573ffffffffffffffffffffffffffffffffffffffff1673ffffffffffffffffffffffffffffffffffffffff16815260200190815260200160002060008667ffffffffffffffff1667ffffffffffffffff16815260200190815260200160002060009054906101000a900467ffffffffffffffff1667ffffffffffffffff1603611f4b576001600260008573ffffffffffffffffffffffffffffffffffffffff1673ffffffffffffffffffffffffffffffffffffffff16815260200190815260200160002060008667ffffffffffffffff1667ffffffffffffffff16815260200190815260200160002060006101000a81548167ffffffffffffffff021916908367ffffffffffffffff160217905550600360008567ffffffffffffffff1667ffffffffffffffff168152602001908152602001600020600201839080600181540180825580915050600190039060005260206000200160009091909190916101000a81548173ffffffffffffffffffffffffffffffffffffffff021916908373ffffffffffffffffffffffffffffffffffffffff1602179055508367ffffffffffffffff167f43dc749a04ac8fb825cbd514f7c0e13f13bc6f2ee66043b76629d51776cff8e084604051611f429190616f60565b60405180910390a25b50505050565b600160009054906101000a900473ffffffffffffffffffffffffffffffffffffffff1673ffffffffffffffffffffffffffffffffffffffff163373ffffffffffffffffffffffffffffffffffffffff1614611fe1576040517f08c379a0000000000000000000000000000000000000000000000000000000008152600401611fd890617b78565b60405180910390fd5b60008060009054906101000a900473ffffffffffffffffffffffffffffffffffffffff169050336000806101000a81548173ffffffffffffffffffffffffffffffffffffffff021916908373ffffffffffffffffffffffffffffffffffffffff1602179055506000600160006101000a81548173ffffffffffffffffffffffffffffffffffffffff021916908373ffffffffffffffffffffffffffffffffffffffff1602179055503373ffffffffffffffffffffffffffffffffffffffff168173ffffffffffffffffffffffffffffffffffffffff167f8be0079c531659141344cd1fd0a4f28419497f9722a3daafe3b4186f6b6457e060405160405180910390a350565b600b60000160069054906101000a900460ff1615612130576040517fed3ba6a600000000000000000000000000000000000000000000000000000000815260040160405180910390fd5b600073ffffffffffffffffffffffffffffffffffffffff16600360008367ffffffffffffffff1667ffffffffffffffff16815260200190815260200160002060000160009054906101000a900473ffffffffffffffffffffffffffffffffffffffff1673ffffffffffffffffffffffffffffffffffffffff16036121e0576040517f1f6a65b600000000000000000000000000000000000000000000000000000000815260040160405180910390fd5b3373ffffffffffffffffffffffffffffffffffffffff16600360008367ffffffffffffffff1667ffffffffffffffff16815260200190815260200160002060010160009054906101000a900473ffffffffffffffffffffffffffffffffffffffff1673ffffffffffffffffffffffffffffffffffffffff16146122e457600360008267ffffffffffffffff1667ffffffffffffffff16815260200190815260200160002060010160009054906101000a900473ffffffffffffffffffffffffffffffffffffffff166040517fd084e9750000000000000000000000000000000000000000000000000000000081526004016122db9190616f60565b60405180910390fd5b6000600360008367ffffffffffffffff1667ffffffffffffffff16815260200190815260200160002060000160009054906101000a900473ffffffffffffffffffffffffffffffffffffffff16905033600360008467ffffffffffffffff1667ffffffffffffffff16815260200190815260200160002060000160006101000a81548173ffffffffffffffffffffffffffffffffffffffff021916908373ffffffffffffffffffffffffffffffffffffffff1602179055506000600360008467ffffffffffffffff1667ffffffffffffffff16815260200190815260200160002060010160006101000a81548173ffffffffffffffffffffffffffffffffffffffff021916908373ffffffffffffffffffffffffffffffffffffffff1602179055508167ffffffffffffffff167f6f1dc65165ffffedfd8e507b4a0f1fcfdada045ed11f6c26ba27cedfe87802f082336040516124429291906174f5565b60405180910390a25050565b60008060009054906101000a900473ffffffffffffffffffffffffffffffffffffffff16905090565b816000600360008367ffffffffffffffff1667ffffffffffffffff16815260200190815260200160002060000160009054906101000a900473ffffffffffffffffffffffffffffffffffffffff169050600073ffffffffffffffffffffffffffffffffffffffff168173ffffffffffffffffffffffffffffffffffffffff160361252d576040517f1f6a65b600000000000000000000000000000000000000000000000000000000815260040160405180910390fd5b8073ffffffffffffffffffffffffffffffffffffffff163373ffffffffffffffffffffffffffffffffffffffff161461259d57806040517fd8a3fb520000000000000000000000000000000000000000000000000000000081526004016125949190616f60565b60405180910390fd5b600b60000160069054906101000a900460ff16156125e7576040517fed3ba6a600000000000000000000000000000000000000000000000000000000815260040160405180910390fd5b6125f084613f06565b15612627576040517fb42f66e800000000000000000000000000000000000000000000000000000000815260040160405180910390fd5b6000600260008573ffffffffffffffffffffffffffffffffffffffff1673ffffffffffffffffffffffffffffffffffffffff16815260200190815260200160002060008667ffffffffffffffff1667ffffffffffffffff16815260200190815260200160002060009054906101000a900467ffffffffffffffff1667ffffffffffffffff16036126f05783836040517ff0019fe60000000000000000000000000000000000000000000000000000000081526004016126e79291906178f7565b60405180910390fd5b6000600360008667ffffffffffffffff1667ffffffffffffffff16815260200190815260200160002060020180548060200260200160405190810160405280929190818152602001828054801561279c57602002820191906000526020600020905b8160009054906101000a900473ffffffffffffffffffffffffffffffffffffffff1673ffffffffffffffffffffffffffffffffffffffff1681526020019060010190808311612752575b505050505090506000600182516127b3919061757c565b905060005b8251811015612934578573ffffffffffffffffffffffffffffffffffffffff168382815181106127eb576127ea61751e565b5b602002602001015173ffffffffffffffffffffffffffffffffffffffff16036129275760008383815181106128235761282261751e565b5b6020026020010151905080600360008a67ffffffffffffffff1667ffffffffffffffff168152602001908152602001600020600201838154811061286a5761286961751e565b5b9060005260206000200160006101000a81548173ffffffffffffffffffffffffffffffffffffffff021916908373ffffffffffffffffffffffffffffffffffffffff160217905550600360008967ffffffffffffffff1667ffffffffffffffff1681526020019081526020016000206002018054806128ec576128eb6175b0565b5b6001900381819060005260206000200160006101000a81549073ffffffffffffffffffffffffffffffffffffffff0219169055905550612934565b80806001019150506127b8565b50600260008673ffffffffffffffffffffffffffffffffffffffff1673ffffffffffffffffffffffffffffffffffffffff16815260200190815260200160002060008767ffffffffffffffff1667ffffffffffffffff16815260200190815260200160002060006101000a81549067ffffffffffffffff02191690558567ffffffffffffffff167f182bff9831466789164ca77075fffd84916d35a8180ba73c27e45634549b445b866040516129ea9190616f60565b60405180910390a2505050505050565b6000600b60000160069054906101000a900460ff1615612a46576040517fed3ba6a600000000000000000000000000000000000000000000000000000000815260040160405180910390fd5b6005600081819054906101000a900467ffffffffffffffff1680929190612a6c90617b98565b91906101000a81548167ffffffffffffffff021916908367ffffffffffffffff160217905550506000600560009054906101000a900467ffffffffffffffff16905060008067ffffffffffffffff811115612aca57612ac9616a67565b5b604051908082528060200260200182016040528015612af85781602001602082028036833780820191505090505b509050604051806040016040528060006bffffffffffffffffffffffff168152602001600067ffffffffffffffff16815250600460008467ffffffffffffffff1667ffffffffffffffff16815260200190815260200160002060008201518160000160006101000a8154816bffffffffffffffffffffffff02191690836bffffffffffffffffffffffff160217905550602082015181600001600c6101000a81548167ffffffffffffffff021916908367ffffffffffffffff16021790555090505060405180606001604052803373ffffffffffffffffffffffffffffffffffffffff168152602001600073ffffffffffffffffffffffffffffffffffffffff16815260200182815250600360008467ffffffffffffffff1667ffffffffffffffff16815260200190815260200160002060008201518160000160006101000a81548173ffffffffffffffffffffffffffffffffffffffff021916908373ffffffffffffffffffffffffffffffffffffffff16021790555060208201518160010160006101000a81548173ffffffffffffffffffffffffffffffffffffffff021916908373ffffffffffffffffffffffffffffffffffffffff1602179055506040820151816002019080519060200190612cd3929190616407565b509050508167ffffffffffffffff167f464722b4166576d3dcbba877b999bc35cf911f4eaf434b7eba68fa113951d0bf33604051612d119190616f60565b60405180910390a2819250505090565b60008060006060600073ffffffffffffffffffffffffffffffffffffffff16600360008767ffffffffffffffff1667ffffffffffffffff16815260200190815260200160002060000160009054906101000a900473ffffffffffffffffffffffffffffffffffffffff1673ffffffffffffffffffffffffffffffffffffffff1603612dd8576040517f1f6a65b600000000000000000000000000000000000000000000000000000000815260040160405180910390fd5b600460008667ffffffffffffffff1667ffffffffffffffff16815260200190815260200160002060000160009054906101000a90046bffffffffffffffffffffffff16600460008767ffffffffffffffff1667ffffffffffffffff168152602001908152602001600020600001600c9054906101000a900467ffffffffffffffff16600360008867ffffffffffffffff1667ffffffffffffffff16815260200190815260200160002060000160009054906101000a900473ffffffffffffffffffffffffffffffffffffffff16600360008967ffffffffffffffff1667ffffffffffffffff16815260200190815260200160002060020180805480602002602001604051908101604052809291908181526020018280548015612f5057602002820191906000526020600020905b8160009054906101000a900473ffffffffffffffffffffffffffffffffffffffff1673ffffffffffffffffffffffffffffffffffffffff1681526020019060010190808311612f06575b5050505050905093509350935093509193509193565b600b60000160069054906101000a900460ff1615612fb0576040517fed3ba6a600000000000000000000000000000000000000000000000000000000815260040160405180910390fd5b7f000000000000000000000000000000000000000000000000000000000000000073ffffffffffffffffffffffffffffffffffffffff163373ffffffffffffffffffffffffffffffffffffffff1614613035576040517f44b0e3c300000000000000000000000000000000000000000000000000000000815260040160405180910390fd5b60208282905014613072576040517f8129bbcd00000000000000000000000000000000000000000000000000000000815260040160405180910390fd5b6000828281019061308391906166cb565b9050600073ffffffffffffffffffffffffffffffffffffffff16600360008367ffffffffffffffff1667ffffffffffffffff16815260200190815260200160002060000160009054906101000a900473ffffffffffffffffffffffffffffffffffffffff1673ffffffffffffffffffffffffffffffffffffffff1603613135576040517f1f6a65b600000000000000000000000000000000000000000000000000000000815260040160405180910390fd5b6000600460008367ffffffffffffffff1667ffffffffffffffff16815260200190815260200160002060000160009054906101000a90046bffffffffffffffffffffffff166bffffffffffffffffffffffff16905084600460008467ffffffffffffffff1667ffffffffffffffff16815260200190815260200160002060000160008282829054906101000a90046bffffffffffffffffffffffff166131db9190617bc8565b92506101000a8154816bffffffffffffffffffffffff02191690836bffffffffffffffffffffffff16021790555084600560088282829054906101000a90046bffffffffffffffffffffffff166132329190617bc8565b92506101000a8154816bffffffffffffffffffffffff02191690836bffffffffffffffffffffffff1602179055508167ffffffffffffffff167fd39ec07f4e209f627a4c427971473820dc129761ba28de8906bd56f57101d4f88287846132999190617c08565b6040516132a7929190617c3c565b60405180910390a2505050505050565b7f000000000000000000000000000000000000000000000000000000000000000081565b6000600b60000160069054906101000a900460ff1615613327576040517fed3ba6a600000000000000000000000000000000000000000000000000000000815260040160405180910390fd5b60005a9050600080600061333b878761490f565b9250925092506000866060015163ffffffff1667ffffffffffffffff81111561336757613366616a67565b5b6040519080825280602002602001820160405280156133955781602001602082028036833780820191505090505b50905060005b876060015163ffffffff168110156134055782816040516020016133c0929190617c3c565b6040516020818303038152906040528051906020012060001c8282815181106133ec576133eb61751e565b5b602002602001018181525050808060010191505061339b565b506009600084815260200190815260200160002060009055600080631fe543e360e01b858460405160240161343b929190617d23565b604051602081830303815290604052907bffffffffffffffffffffffffffffffffffffffffffffffffffffffff19166020820180517bffffffffffffffffffffffffffffffffffffffffffffffffffffffff838183161783525050505090506001600b60000160066101000a81548160ff02191690831515021790555060006134d38a6040015163ffffffff168b6080015184614c21565b90506000600b60000160066101000a81548160ff0219169083151502179055506000600460008c6020015167ffffffffffffffff1667ffffffffffffffff168152602001908152602001600020600001600c9054906101000a900467ffffffffffffffff1690506001600460008d6020015167ffffffffffffffff1667ffffffffffffffff168152602001908152602001600020600001600c8282829054906101000a900467ffffffffffffffff1661358c9190617949565b92506101000a81548167ffffffffffffffff021916908367ffffffffffffffff16021790555060006135e38a600b600001600b9054906101000a900463ffffffff1663ffffffff166135dd856138b4565b3a614c6e565b9050806bffffffffffffffffffffffff16600460008e6020015167ffffffffffffffff1667ffffffffffffffff16815260200190815260200160002060000160009054906101000a90046bffffffffffffffffffffffff166bffffffffffffffffffffffff161015613681576040517ff4d678b800000000000000000000000000000000000000000000000000000000815260040160405180910390fd5b80600460008e6020015167ffffffffffffffff1667ffffffffffffffff16815260200190815260200160002060000160008282829054906101000a90046bffffffffffffffffffffffff166136d69190617a39565b92506101000a8154816bffffffffffffffffffffffff02191690836bffffffffffffffffffffffff1602179055508060086000600660008d815260200190815260200160002060009054906101000a900473ffffffffffffffffffffffffffffffffffffffff1673ffffffffffffffffffffffffffffffffffffffff1673ffffffffffffffffffffffffffffffffffffffff16815260200190815260200160002060008282829054906101000a90046bffffffffffffffffffffffff1661379d9190617bc8565b92506101000a8154816bffffffffffffffffffffffff02191690836bffffffffffffffffffffffff160217905550877f7dffc5ae5ee4e2e4df1651cf6ad329a73cebdb728f37ea0187b9b17e036756e48883866040516137ff93929190617d53565b60405180910390a2809a505050505050505050505092915050565b600080600080600b60000160009054906101000a900461ffff16600b60000160029054906101000a900463ffffffff16600b60000160079054906101000a900463ffffffff16600b600001600b9054906101000a900463ffffffff16935093509350935090919293565b6000816040516020016138979190617e0e565b604051602081830303815290604052805190602001209050919050565b600080600c604051806101200160405290816000820160009054906101000a900463ffffffff1663ffffffff1663ffffffff1681526020016000820160049054906101000a900463ffffffff1663ffffffff1663ffffffff1681526020016000820160089054906101000a900463ffffffff1663ffffffff1663ffffffff16815260200160008201600c9054906101000a900463ffffffff1663ffffffff1663ffffffff1681526020016000820160109054906101000a900463ffffffff1663ffffffff1663ffffffff1681526020016000820160149054906101000a900462ffffff1662ffffff1662ffffff1681526020016000820160179054906101000a900462ffffff1662ffffff1662ffffff16815260200160008201601a9054906101000a900462ffffff1662ffffff1662ffffff16815260200160008201601d9054906101000a900462ffffff1662ffffff1662ffffff168152505090508267ffffffffffffffff16600011158015613a3f57508060a0015162ffffff168367ffffffffffffffff1611155b15613a51578060000151915050613b30565b8267ffffffffffffffff168160a0015162ffffff16108015613a8657508060c0015162ffffff168367ffffffffffffffff1611155b15613a98578060200151915050613b30565b8267ffffffffffffffff168160c0015162ffffff16108015613acd57508060e0015162ffffff168367ffffffffffffffff1611155b15613adf578060400151915050613b30565b8267ffffffffffffffff168160e0015162ffffff16108015613b15575080610100015162ffffff168367ffffffffffffffff1611155b15613b27578060600151915050613b30565b80608001519150505b919050565b816000600360008367ffffffffffffffff1667ffffffffffffffff16815260200190815260200160002060000160009054906101000a900473ffffffffffffffffffffffffffffffffffffffff169050600073ffffffffffffffffffffffffffffffffffffffff168173ffffffffffffffffffffffffffffffffffffffff1603613beb576040517f1f6a65b600000000000000000000000000000000000000000000000000000000815260040160405180910390fd5b8073ffffffffffffffffffffffffffffffffffffffff163373ffffffffffffffffffffffffffffffffffffffff1614613c5b57806040517fd8a3fb52000000000000000000000000000000000000000000000000000000008152600401613c529190616f60565b60405180910390fd5b600b60000160069054906101000a900460ff1615613ca5576040517fed3ba6a600000000000000000000000000000000000000000000000000000000815260040160405180910390fd5b613cae84613f06565b15613ce5576040517fb42f66e800000000000000000000000000000000000000000000000000000000815260040160405180910390fd5b613cef8484614270565b50505050565b613cfd6141e0565b60007f000000000000000000000000000000000000000000000000000000000000000073ffffffffffffffffffffffffffffffffffffffff166370a08231306040518263ffffffff1660e01b8152600401613d589190616f60565b602060405180830381865afa158015613d75573d6000803e3d6000fd5b505050506040513d601f19601f82011682018060405250810190613d999190617e3e565b90506000600560089054906101000a90046bffffffffffffffffffffffff166bffffffffffffffffffffffff16905081811115613e0f5780826040517fa99da302000000000000000000000000000000000000000000000000000000008152600401613e06929190617c3c565b60405180910390fd5b81811015613f015760008183613e25919061757c565b90507f000000000000000000000000000000000000000000000000000000000000000073ffffffffffffffffffffffffffffffffffffffff1663a9059cbb85836040518363ffffffff1660e01b8152600401613e82929190617e6b565b6020604051808303816000875af1158015613ea1573d6000803e3d6000fd5b505050506040513d601f19601f82011682018060405250810190613ec59190617aff565b507f59bfc682b673f8cbf945f1e454df9334834abf7dfe7f92237ca29ecb9b4366008482604051613ef7929190617e6b565b60405180910390a1505b505050565b600080600360008467ffffffffffffffff1667ffffffffffffffff1681526020019081526020016000206040518060600160405290816000820160009054906101000a900473ffffffffffffffffffffffffffffffffffffffff1673ffffffffffffffffffffffffffffffffffffffff1673ffffffffffffffffffffffffffffffffffffffff1681526020016001820160009054906101000a900473ffffffffffffffffffffffffffffffffffffffff1673ffffffffffffffffffffffffffffffffffffffff1673ffffffffffffffffffffffffffffffffffffffff1681526020016002820180548060200260200160405190810160405280929190818152602001828054801561406c57602002820191906000526020600020905b8160009054906101000a900473ffffffffffffffffffffffffffffffffffffffff1673ffffffffffffffffffffffffffffffffffffffff1681526020019060010190808311614022575b505050505081525050905060005b8160400151518110156141c05760005b6007805490508110156141b2576000614177600783815481106140b0576140af61751e565b5b9060005260206000200154856040015185815181106140d2576140d161751e565b5b60200260200101518860026000896040015189815181106140f6576140f561751e565b5b602002602001015173ffffffffffffffffffffffffffffffffffffffff1673ffffffffffffffffffffffffffffffffffffffff16815260200190815260200160002060008b67ffffffffffffffff1667ffffffffffffffff16815260200190815260200160002060009054906101000a900467ffffffffffffffff16614800565b5090506000801b6009600083815260200190815260200160002054146141a45760019450505050506141c7565b50808060010191505061408a565b50808060010191505061407a565b5060009150505b919050565b6141d46141e0565b6141dd81614da1565b50565b60008054906101000a900473ffffffffffffffffffffffffffffffffffffffff1673ffffffffffffffffffffffffffffffffffffffff163373ffffffffffffffffffffffffffffffffffffffff161461426e576040517f08c379a000000000000000000000000000000000000000000000000000000000815260040161426590617ee0565b60405180910390fd5b565b600b60000160069054906101000a900460ff16156142ba576040517fed3ba6a600000000000000000000000000000000000000000000000000000000815260040160405180910390fd5b6000600360008467ffffffffffffffff1667ffffffffffffffff1681526020019081526020016000206040518060600160405290816000820160009054906101000a900473ffffffffffffffffffffffffffffffffffffffff1673ffffffffffffffffffffffffffffffffffffffff1673ffffffffffffffffffffffffffffffffffffffff1681526020016001820160009054906101000a900473ffffffffffffffffffffffffffffffffffffffff1673ffffffffffffffffffffffffffffffffffffffff1673ffffffffffffffffffffffffffffffffffffffff1681526020016002820180548060200260200160405190810160405280929190818152602001828054801561441f57602002820191906000526020600020905b8160009054906101000a900473ffffffffffffffffffffffffffffffffffffffff1673ffffffffffffffffffffffffffffffffffffffff16815260200190600101908083116143d5575b50505050508152505090506000600460008567ffffffffffffffff1667ffffffffffffffff1681526020019081526020016000206040518060400160405290816000820160009054906101000a90046bffffffffffffffffffffffff166bffffffffffffffffffffffff166bffffffffffffffffffffffff16815260200160008201600c9054906101000a900467ffffffffffffffff1667ffffffffffffffff1667ffffffffffffffff1681525050905060008160000151905060005b83604001515181101561458f5760026000856040015183815181106145045761450361751e565b5b602002602001015173ffffffffffffffffffffffffffffffffffffffff1673ffffffffffffffffffffffffffffffffffffffff16815260200190815260200160002060008767ffffffffffffffff1667ffffffffffffffff16815260200190815260200160002060006101000a81549067ffffffffffffffff021916905580806001019150506144dc565b50600360008667ffffffffffffffff1667ffffffffffffffff168152602001908152602001600020600080820160006101000a81549073ffffffffffffffffffffffffffffffffffffffff02191690556001820160006101000a81549073ffffffffffffffffffffffffffffffffffffffff02191690556002820160006146169190616491565b5050600460008667ffffffffffffffff1667ffffffffffffffff168152602001908152602001600020600080820160006101000a8154906bffffffffffffffffffffffff021916905560008201600c6101000a81549067ffffffffffffffff0219169055505080600560088282829054906101000a90046bffffffffffffffffffffffff166146a59190617a39565b92506101000a8154816bffffffffffffffffffffffff02191690836bffffffffffffffffffffffff1602179055507f000000000000000000000000000000000000000000000000000000000000000073ffffffffffffffffffffffffffffffffffffffff1663a9059cbb85836bffffffffffffffffffffffff166040518363ffffffff1660e01b815260040161473c929190617e6b565b6020604051808303816000875af115801561475b573d6000803e3d6000fd5b505050506040513d601f19601f8201168201806040525081019061477f9190617aff565b6147b5576040517ff4d678b800000000000000000000000000000000000000000000000000000000815260040160405180910390fd5b8467ffffffffffffffff167fe8ed5b475a5b5987aa9165e8731bb78043f39eee32ec5a1169a89e27fcd4981585836040516147f1929190617aaa565b60405180910390a25050505050565b60008060008686868660405160200161481c9493929190617f00565b6040516020818303038152906040528051906020012060001c9050868160405160200161484a929190617f45565b6040516020818303038152906040528051906020012060001c81925092505094509492505050565b60008046905061a4b181148061488a575062066eed81145b1561490757606473ffffffffffffffffffffffffffffffffffffffff1663a3b1b31d6040518163ffffffff1660e01b8152600401602060405180830381865afa1580156148db573d6000803e3d6000fd5b505050506040513d601f19601f820116820180604052508101906148ff9190617e3e565b91505061490c565b439150505b90565b60008060006149218560000151613884565b925060006006600085815260200190815260200160002060009054906101000a900473ffffffffffffffffffffffffffffffffffffffff169050600073ffffffffffffffffffffffffffffffffffffffff168173ffffffffffffffffffffffffffffffffffffffff16036149cc57836040517f77f5b84c0000000000000000000000000000000000000000000000000000000081526004016149c39190616ef6565b60405180910390fd5b8386608001516040516020016149e3929190617f45565b6040516020818303038152906040528051906020012060001c92506000600960008581526020019081526020016000205490506000801b8103614a52576040517f3688124a00000000000000000000000000000000000000000000000000000000815260040160405180910390fd5b8386600001518760200151886040015189606001518a60800151604051602001614a8196959493929190617f6e565b604051602081830303815290604052805190602001208114614acf576040517fd529142c00000000000000000000000000000000000000000000000000000000815260040160405180910390fd5b6000614ade8760000151614ecd565b90506000801b8103614bd6577f000000000000000000000000000000000000000000000000000000000000000073ffffffffffffffffffffffffffffffffffffffff1663e9413d3888600001516040518263ffffffff1660e01b8152600401614b479190618000565b602060405180830381865afa158015614b64573d6000803e3d6000fd5b505050506040513d601f19601f82011682018060405250810190614b889190618030565b90506000801b8103614bd55786600001516040517f175dadad000000000000000000000000000000000000000000000000000000008152600401614bcc9190618000565b60405180910390fd5b5b6000886080015182604051602001614bef92919061809f565b6040516020818303038152906040528051906020012060001c9050614c148982614fdb565b9450505050509250925092565b60005a611388811015614c3357600080fd5b611388810390508460408204820311614c4b57600080fd5b833b614c5657600080fd5b6000808451602086016000888af19150509392505050565b600080614c79615048565b905060008113614cc057806040517f43d4cf66000000000000000000000000000000000000000000000000000000008152600401614cb791906169a8565b60405180910390fd5b6000614cca615145565b9050600082825a8a8a614cdd9190617c08565b614ce7919061757c565b87614cf291906180cb565b614cfc9190617c08565b670de0b6b3a7640000614d0f91906180cb565b614d19919061813c565b905060008663ffffffff1664e8d4a51000614d3491906180cb565b9050806b033b2e3c9fd0803ce8000000614d4e919061757c565b821115614d87576040517fe80fa38100000000000000000000000000000000000000000000000000000000815260040160405180910390fd5b8082614d939190617c08565b945050505050949350505050565b3373ffffffffffffffffffffffffffffffffffffffff168173ffffffffffffffffffffffffffffffffffffffff1603614e0f576040517f08c379a0000000000000000000000000000000000000000000000000000000008152600401614e06906181b9565b60405180910390fd5b80600160006101000a81548173ffffffffffffffffffffffffffffffffffffffff021916908373ffffffffffffffffffffffffffffffffffffffff1602179055508073ffffffffffffffffffffffffffffffffffffffff1660008054906101000a900473ffffffffffffffffffffffffffffffffffffffff1673ffffffffffffffffffffffffffffffffffffffff167fed8889f560326eb138920d842192f0eb3dd22b4f139c87a2c57538e05bae127860405160405180910390a350565b60008046905061a4b1811480614ee5575062066eed81145b80614ef2575062066eee81145b15614fc6576101008367ffffffffffffffff16614f0d614872565b614f17919061757c565b1180614f345750614f26614872565b8367ffffffffffffffff1610155b15614f43576000915050614fd6565b606473ffffffffffffffffffffffffffffffffffffffff16632b407a82846040518263ffffffff1660e01b8152600401614f7d9190618000565b602060405180830381865afa158015614f9a573d6000803e3d6000fd5b505050506040513d601f19601f82011682018060405250810190614fbe9190618030565b915050614fd6565b8267ffffffffffffffff16409150505b919050565b600061500f8360000151846020015185604001518660600151868860a001518960c001518a60e001518b61010001516151e3565b600383602001516040516020016150279291906181d9565b6040516020818303038152906040528051906020012060001c905092915050565b600080600b60000160079054906101000a900463ffffffff1690506000808263ffffffff161190506000807f000000000000000000000000000000000000000000000000000000000000000073ffffffffffffffffffffffffffffffffffffffff1663feaf968c6040518163ffffffff1660e01b815260040160a060405180830381865afa1580156150de573d6000803e3d6000fd5b505050506040513d601f19601f820116820180604052508101906151029190618259565b909192935090915050809350819250505082801561513057508142615127919061757c565b8463ffffffff16105b1561513b57600a5490505b8094505050505090565b60008046905061a4b181148061515d575062066eed81145b156151da57606c73ffffffffffffffffffffffffffffffffffffffff1663c6f7de0e6040518163ffffffff1660e01b8152600401602060405180830381865afa1580156151ae573d6000803e3d6000fd5b505050506040513d601f19601f820116820180604052508101906151d29190617e3e565b9150506151e0565b60009150505b90565b6151ec896153d0565b61522b576040517f08c379a000000000000000000000000000000000000000000000000000000000815260040161522290618320565b60405180910390fd5b615234886153d0565b615273576040517f08c379a000000000000000000000000000000000000000000000000000000000815260040161526a9061838c565b60405180910390fd5b61527c836153d0565b6152bb576040517f08c379a00000000000000000000000000000000000000000000000000000000081526004016152b2906183f8565b60405180910390fd5b6152c4826153d0565b615303576040517f08c379a00000000000000000000000000000000000000000000000000000000081526004016152fa90618464565b60405180910390fd5b61530f878a8887615551565b61534e576040517f08c379a0000000000000000000000000000000000000000000000000000000008152600401615345906184d0565b60405180910390fd5b600061535a8a8761576e565b9050600061536d898b878b868989615800565b9050600061537e838d8d8a86615986565b9050808a146153c2576040517f08c379a00000000000000000000000000000000000000000000000000000000081526004016153b99061853c565b60405180910390fd5b505050505050505050505050565b60007ffffffffffffffffffffffffffffffffffffffffffffffffffffffffefffffc2f826000600281106154075761540661751e565b5b60200201511061544c576040517f08c379a0000000000000000000000000000000000000000000000000000000008152600401615443906185a8565b60405180910390fd5b7ffffffffffffffffffffffffffffffffffffffffffffffffffffffffefffffc2f826001600281106154815761548061751e565b5b6020020151106154c6576040517f08c379a00000000000000000000000000000000000000000000000000000000081526004016154bd90618614565b60405180910390fd5b7ffffffffffffffffffffffffffffffffffffffffffffffffffffffffefffffc2f806154f5576154f461810d565b5b826001600281106155095761550861751e565b5b6020020151836001600281106155225761552161751e565b5b6020020151096155498360006002811061553f5761553e61751e565b5b60200201516159c8565b149050919050565b60008073ffffffffffffffffffffffffffffffffffffffff168273ffffffffffffffffffffffffffffffffffffffff16036155c1576040517f08c379a00000000000000000000000000000000000000000000000000000000081526004016155b890618680565b60405180910390fd5b6000806002866001600281106155da576155d961751e565b5b6020020151816155ed576155ec61810d565b5b06146155fa57601c6155fd565b601b5b905060007ffffffffffffffffffffffffffffffffebaaedce6af48a03bbfd25e8cd0364141806156305761562f61810d565b5b85876000600281106156455761564461751e565b5b6020020151097ffffffffffffffffffffffffffffffffebaaedce6af48a03bbfd25e8cd03641410360001b905060007ffffffffffffffffffffffffffffffffebaaedce6af48a03bbfd25e8cd0364141806156a3576156a261810d565b5b876000600281106156b7576156b661751e565b5b6020020151890960001b90506000600183858a6000600281106156dd576156dc61751e565b5b602002015160001b856040516000815260200160405260405161570394939291906186bc565b6020604051602081039080840390855afa158015615725573d6000803e3d6000fd5b5050506020604051035190508573ffffffffffffffffffffffffffffffffffffffff168173ffffffffffffffffffffffffffffffffffffffff1614945050505050949350505050565b6157766164b2565b6157a36001848460405160200161578f9392919061878a565b604051602081830303815290604052615a6b565b90505b6157af816153d0565b6157fa576157f3816000600281106157ca576157c961751e565b5b60200201516040516020016157df91906187c7565b604051602081830303815290604052615a6b565b90506157a6565b92915050565b6158086164b2565b7ffffffffffffffffffffffffffffffffffffffffffffffffffffffffefffffc2f8360006002811061583d5761583c61751e565b5b6020020151816158505761584f61810d565b5b067ffffffffffffffffffffffffffffffffffffffffffffffffffffffffefffffc2f876000600281106158865761588561751e565b5b6020020151816158995761589861810d565b5b06036158da576040517f08c379a00000000000000000000000000000000000000000000000000000000081526004016158d19061882e565b60405180910390fd5b6158e5878988615b6e565b615924576040517f08c379a000000000000000000000000000000000000000000000000000000000815260040161591b9061889a565b60405180910390fd5b61592f848685615b6e565b61596e576040517f08c379a000000000000000000000000000000000000000000000000000000000815260040161596590618906565b60405180910390fd5b615979868484615d05565b9050979650505050505050565b6000600286868685876040516020016159a49695949392919061896e565b6040516020818303038152906040528051906020012060001c905095945050505050565b6000807ffffffffffffffffffffffffffffffffffffffffffffffffffffffffefffffc2f806159fa576159f961810d565b5b7ffffffffffffffffffffffffffffffffffffffffffffffffffffffffefffffc2f80615a2957615a2861810d565b5b848509840990507ffffffffffffffffffffffffffffffffffffffffffffffffffffffffefffffc2f80615a5f57615a5e61810d565b5b60078208915050919050565b615a736164b2565b615a7c82615e81565b81600060028110615a9057615a8f61751e565b5b602002018181525050615ac2615abd82600060028110615ab357615ab261751e565b5b60200201516159c8565b615eee565b81600160028110615ad657615ad561751e565b5b6020020181815250506001600282600160028110615af757615af661751e565b5b602002015181615b0a57615b0961810d565b5b0603615b695780600160028110615b2457615b2361751e565b5b60200201517ffffffffffffffffffffffffffffffffffffffffffffffffffffffffefffffc2f0381600160028110615b5f57615b5e61751e565b5b6020020181815250505b919050565b6000808303615bb2576040517f08c379a0000000000000000000000000000000000000000000000000000000008152600401615ba990618a2a565b60405180910390fd5b600084600060028110615bc857615bc761751e565b5b60200201519050600080600287600160028110615be857615be761751e565b5b6020020151615bf79190618a4a565b14615c0357601c615c06565b601b5b905060007ffffffffffffffffffffffffffffffffebaaedce6af48a03bbfd25e8cd036414180615c3957615c3861810d565b5b83870960001b9050600060016000801b848660001b8560405160008152602001604052604051615c6c94939291906186bc565b6020604051602081039080840390855afa158015615c8e573d6000803e3d6000fd5b505050602060405103519050600086604051602001615cad9190618a7b565b6040516020818303038152906040528051906020012060001c90508073ffffffffffffffffffffffffffffffffffffffff168273ffffffffffffffffffffffffffffffffffffffff1614955050505050509392505050565b615d0d6164b2565b6000806000615d7e87600060028110615d2957615d2861751e565b5b602002015188600160028110615d4257615d4161751e565b5b602002015188600060028110615d5b57615d5a61751e565b5b602002015189600160028110615d7457615d7361751e565b5b6020020151615f31565b80935081945082955050505060017ffffffffffffffffffffffffffffffffffffffffffffffffffffffffefffffc2f80615dbb57615dba61810d565b5b86830914615dfe576040517f08c379a0000000000000000000000000000000000000000000000000000000008152600401615df590618ae2565b60405180910390fd5b60405180604001604052807ffffffffffffffffffffffffffffffffffffffffffffffffffffffffefffffc2f80615e3857615e3761810d565b5b87860981526020017ffffffffffffffffffffffffffffffffffffffffffffffffffffffffefffffc2f80615e6f57615e6e61810d565b5b87850981525093505050509392505050565b6000818051906020012060001c90505b7ffffffffffffffffffffffffffffffffffffffffffffffffffffffffefffffc2f8110615ee95780604051602001615ec991906187c7565b6040516020818303038152906040528051906020012060001c9050615e91565b919050565b6000615f2a82600260017ffffffffffffffffffffffffffffffffffffffffffffffffffffffffefffffc2f615f239190617c08565b901c616128565b9050919050565b60008060008060006001809150915060007ffffffffffffffffffffffffffffffffffffffffffffffffffffffffefffffc2f80615f7157615f7061810d565b5b897ffffffffffffffffffffffffffffffffffffffffffffffffffffffffefffffc2f038808905060007ffffffffffffffffffffffffffffffffffffffffffffffffffffffffefffffc2f80615fc957615fc861810d565b5b8b7ffffffffffffffffffffffffffffffffffffffffffffffffffffffffefffffc2f038a0890506000615ffe83838585616287565b809250819950505061601288828e886162ff565b809250819950505061602688828c876162ff565b8092508199505050600061603c8d878b856162ff565b809250819950505061605088828686616287565b809250819950505061606488828e896162ff565b8092508199505050808214616114577ffffffffffffffffffffffffffffffffffffffffffffffffffffffffefffffc2f806160a2576160a161810d565b5b818a0998507ffffffffffffffffffffffffffffffffffffffffffffffffffffffffefffffc2f806160d6576160d561810d565b5b82890997507ffffffffffffffffffffffffffffffffffffffffffffffffffffffffefffffc2f8061610a5761610961810d565b5b8183099650616118565b8196505b5050505050509450945094915050565b6000806161336164d4565b6020816000600681106161495761614861751e565b5b6020020181815250506020816001600681106161685761616761751e565b5b6020020181815250506020816002600681106161875761618661751e565b5b60200201818152505084816003600681106161a5576161a461751e565b5b60200201818152505083816004600681106161c3576161c261751e565b5b6020020181815250507ffffffffffffffffffffffffffffffffffffffffffffffffffffffffefffffc2f816005600681106162015761620061751e565b5b6020020181815250506162126164f6565b60208160c0846005600019fa925060008303616263576040517f08c379a000000000000000000000000000000000000000000000000000000000815260040161625a90618b4e565b60405180910390fd5b806000600181106162775761627661751e565b5b6020020151935050505092915050565b6000807ffffffffffffffffffffffffffffffffffffffffffffffffffffffffefffffc2f806162b9576162b861810d565b5b8487097ffffffffffffffffffffffffffffffffffffffffffffffffffffffffefffffc2f806162eb576162ea61810d565b5b848709809250819350505094509492505050565b60008060007ffffffffffffffffffffffffffffffffffffffffffffffffffffffffefffffc2f806163335761633261810d565b5b878509905060007ffffffffffffffffffffffffffffffffffffffffffffffffffffffffefffffc2f806163695761636861810d565b5b87877ffffffffffffffffffffffffffffffffffffffffffffffffffffffffefffffc2f030990507ffffffffffffffffffffffffffffffffffffffffffffffffffffffffefffffc2f806163bf576163be61810d565b5b8183087ffffffffffffffffffffffffffffffffffffffffffffffffffffffffefffffc2f806163f1576163f061810d565b5b8689098094508195505050505094509492505050565b828054828255906000526020600020908101928215616480579160200282015b8281111561647f5782518260006101000a81548173ffffffffffffffffffffffffffffffffffffffff021916908373ffffffffffffffffffffffffffffffffffffffff16021790555091602001919060010190616427565b5b50905061648d9190616518565b5090565b50805460008255906000526020600020908101906164af9190616518565b50565b6040518060400160405280600290602082028036833780820191505090505090565b6040518060c00160405280600690602082028036833780820191505090505090565b6040518060200160405280600190602082028036833780820191505090505090565b5b80821115616531576000816000905550600101616519565b5090565b600061ffff82169050919050565b61654c81616535565b82525050565b600063ffffffff82169050919050565b61656b81616552565b82525050565b600081519050919050565b600082825260208201905092915050565b6000819050602082019050919050565b6000819050919050565b6165b08161659d565b82525050565b60006165c283836165a7565b60208301905092915050565b6000602082019050919050565b60006165e682616571565b6165f0818561657c565b93506165fb8361658d565b8060005b8381101561662c57815161661388826165b6565b975061661e836165ce565b9250506001810190506165ff565b5085935050505092915050565b600060608201905061664e6000830186616543565b61665b6020830185616562565b818103604083015261666d81846165db565b9050949350505050565b6000604051905090565b600080fd5b600080fd5b600067ffffffffffffffff82169050919050565b6166a88161668b565b81146166b357600080fd5b50565b6000813590506166c58161669f565b92915050565b6000602082840312156166e1576166e0616681565b5b60006166ef848285016166b6565b91505092915050565b600073ffffffffffffffffffffffffffffffffffffffff82169050919050565b6000616723826166f8565b9050919050565b61673381616718565b811461673e57600080fd5b50565b6000813590506167508161672a565b92915050565b6000806040838503121561676d5761676c616681565b5b600061677b858286016166b6565b925050602061678c85828601616741565b9150509250929050565b61679f8161668b565b82525050565b60006020820190506167ba6000830184616796565b92915050565b600080fd5b6000819050826020600202820111156167e1576167e06167c0565b5b92915050565b6000604082840312156167fd576167fc616681565b5b600061680b848285016167c5565b91505092915050565b6000819050919050565b61682781616814565b82525050565b6000602082019050616842600083018461681e565b92915050565b600060208201905061685d6000830184616543565b92915050565b600081519050919050565b600082825260208201905092915050565b60005b8381101561689d578082015181840152602081019050616882565b60008484015250505050565b6000601f19601f8301169050919050565b60006168c582616863565b6168cf818561686e565b93506168df81856020860161687f565b6168e8816168a9565b840191505092915050565b6000602082019050818103600083015261690d81846168ba565b905092915050565b6000819050919050565b600061693a616935616930846166f8565b616915565b6166f8565b9050919050565b600061694c8261691f565b9050919050565b600061695e82616941565b9050919050565b61696e81616953565b82525050565b60006020820190506169896000830184616965565b92915050565b6000819050919050565b6169a28161698f565b82525050565b60006020820190506169bd6000830184616999565b92915050565b60006020820190506169d86000830184616562565b92915050565b6169e781616535565b81146169f257600080fd5b50565b600081359050616a04816169de565b92915050565b616a1381616552565b8114616a1e57600080fd5b50565b600081359050616a3081616a0a565b92915050565b616a3f8161698f565b8114616a4a57600080fd5b50565b600081359050616a5c81616a36565b92915050565b600080fd5b7f4e487b7100000000000000000000000000000000000000000000000000000000600052604160045260246000fd5b616a9f826168a9565b810181811067ffffffffffffffff82111715616abe57616abd616a67565b5b80604052505050565b6000616ad1616677565b9050616add8282616a96565b919050565b600062ffffff82169050919050565b616afa81616ae2565b8114616b0557600080fd5b50565b600081359050616b1781616af1565b92915050565b60006101208284031215616b3457616b33616a62565b5b616b3f610120616ac7565b90506000616b4f84828501616a21565b6000830152506020616b6384828501616a21565b6020830152506040616b7784828501616a21565b6040830152506060616b8b84828501616a21565b6060830152506080616b9f84828501616a21565b60808301525060a0616bb384828501616b08565b60a08301525060c0616bc784828501616b08565b60c08301525060e0616bdb84828501616b08565b60e083015250610100616bf084828501616b08565b6101008301525092915050565b6000806000806000806101c08789031215616c1b57616c1a616681565b5b6000616c2989828a016169f5565b9650506020616c3a89828a01616a21565b9550506040616c4b89828a01616a21565b9450506060616c5c89828a01616a21565b9350506080616c6d89828a01616a4d565b92505060a0616c7e89828a01616b1d565b9150509295509295509295565b616c948161659d565b8114616c9f57600080fd5b50565b600081359050616cb181616c8b565b92915050565b600080600080600060a08688031215616cd357616cd2616681565b5b6000616ce188828901616ca2565b9550506020616cf2888289016166b6565b9450506040616d03888289016169f5565b9350506060616d1488828901616a21565b9250506080616d2588828901616a21565b9150509295509295909350565b616d3b81616ae2565b82525050565b600061012082019050616d57600083018c616562565b616d64602083018b616562565b616d71604083018a616562565b616d7e6060830189616562565b616d8b6080830188616562565b616d9860a0830187616d32565b616da560c0830186616d32565b616db260e0830185616d32565b616dc0610100830184616d32565b9a9950505050505050505050565b60006bffffffffffffffffffffffff82169050919050565b616def81616dce565b8114616dfa57600080fd5b50565b600081359050616e0c81616de6565b92915050565b60008060408385031215616e2957616e28616681565b5b6000616e3785828601616741565b9250506020616e4885828601616dfd565b9150509250929050565b6000616e5d82616941565b9050919050565b616e6d81616e52565b82525050565b6000602082019050616e886000830184616e64565b92915050565b616e9781616814565b8114616ea257600080fd5b50565b600081359050616eb481616e8e565b92915050565b600060208284031215616ed057616ecf616681565b5b6000616ede84828501616ea5565b91505092915050565b616ef08161659d565b82525050565b6000602082019050616f0b6000830184616ee7565b92915050565b60008060608385031215616f2857616f27616681565b5b6000616f3685828601616741565b9250506020616f47858286016167c5565b9150509250929050565b616f5a81616718565b82525050565b6000602082019050616f756000830184616f51565b92915050565b616f8481616dce565b82525050565b600081519050919050565b600082825260208201905092915050565b6000819050602082019050919050565b616fbf81616718565b82525050565b6000616fd18383616fb6565b60208301905092915050565b6000602082019050919050565b6000616ff582616f8a565b616fff8185616f95565b935061700a83616fa6565b8060005b8381101561703b5781516170228882616fc5565b975061702d83616fdd565b92505060018101905061700e565b5085935050505092915050565b600060808201905061705d6000830187616f7b565b61706a6020830186616796565b6170776040830185616f51565b81810360608301526170898184616fea565b905095945050505050565b600080fd5b600080fd5b60008083601f8401126170b4576170b3617094565b5b8235905067ffffffffffffffff8111156170d1576170d0617099565b5b6020830191508360018202830111156170ed576170ec6167c0565b5b9250929050565b6000806000806060858703121561710e5761710d616681565b5b600061711c87828801616741565b945050602061712d87828801616ea5565b935050604085013567ffffffffffffffff81111561714e5761714d616686565b5b61715a8782880161709e565b925092505092959194509250565b600061717382616941565b9050919050565b61718381617168565b82525050565b600060208201905061719e600083018461717a565b92915050565b600067ffffffffffffffff8211156171bf576171be616a67565b5b602082029050919050565b60006171dd6171d8846171a4565b616ac7565b905080602084028301858111156171f7576171f66167c0565b5b835b81811015617220578061720c8882616ea5565b8452602084019350506020810190506171f9565b5050509392505050565b600082601f83011261723f5761723e617094565b5b600261724c8482856171ca565b91505092915050565b60006101a0828403121561726c5761726b616a62565b5b617277610120616ac7565b905060006172878482850161722a565b600083015250604061729b8482850161722a565b60208301525060806172af84828501616ea5565b60408301525060a06172c384828501616ea5565b60608301525060c06172d784828501616ea5565b60808301525060e06172eb84828501616741565b60a0830152506101006173008482850161722a565b60c0830152506101406173158482850161722a565b60e08301525061018061732a84828501616ea5565b6101008301525092915050565b600060a0828403121561734d5761734c616a62565b5b61735760a0616ac7565b90506000617367848285016166b6565b600083015250602061737b848285016166b6565b602083015250604061738f84828501616a21565b60408301525060606173a384828501616a21565b60608301525060806173b784828501616741565b60808301525092915050565b60008061024083850312156173db576173da616681565b5b60006173e985828601617255565b9250506101a06173fb85828601617337565b9150509250929050565b600060208201905061741a6000830184616f7b565b92915050565b60006080820190506174356000830187616543565b6174426020830186616562565b61744f6040830185616562565b61745c6060830184616562565b95945050505050565b60006040828403121561747b5761747a616681565b5b60006174898482850161722a565b91505092915050565b6000602082840312156174a8576174a7616681565b5b60006174b684828501616741565b91505092915050565b60008115159050919050565b6174d4816174bf565b82525050565b60006020820190506174ef60008301846174cb565b92915050565b600060408201905061750a6000830185616f51565b6175176020830184616f51565b9392505050565b7f4e487b7100000000000000000000000000000000000000000000000000000000600052603260045260246000fd5b7f4e487b7100000000000000000000000000000000000000000000000000000000600052601160045260246000fd5b600061758782616814565b915061759283616814565b92508282039050818111156175aa576175a961754d565b5b92915050565b7f4e487b7100000000000000000000000000000000000000000000000000000000600052603160045260246000fd5b60006060820190506175f46000830186616543565b6176016020830185616543565b61760e6040830184616543565b949350505050565b60008160001c9050919050565b600063ffffffff82169050919050565b600061764661764183617616565b617623565b9050919050565b61765681616552565b82525050565b60008160201c9050919050565b600061767c6176778361765c565b617623565b9050919050565b60008160401c9050919050565b60006176a361769e83617683565b617623565b9050919050565b60008160601c9050919050565b60006176ca6176c5836176aa565b617623565b9050919050565b60008160801c9050919050565b60006176f16176ec836176d1565b617623565b9050919050565b60008160a01c9050919050565b600062ffffff82169050919050565b6000617727617722836176f8565b617705565b9050919050565b61773781616ae2565b82525050565b60008160b81c9050919050565b600061775d6177588361773d565b617705565b9050919050565b60008160d01c9050919050565b600061778461777f83617764565b617705565b9050919050565b60008160e81c9050919050565b60006177ab6177a68361778b565b617705565b9050919050565b610120820160008083015490506177c881617633565b6177d5600086018261764d565b506177df81617669565b6177ec602086018261764d565b506177f681617690565b617803604086018261764d565b5061780d816176b7565b61781a606086018261764d565b50617824816176de565b617831608086018261764d565b5061783b81617714565b61784860a086018261772e565b506178528161774a565b61785f60c086018261772e565b5061786981617771565b61787660e086018261772e565b5061788081617798565b61788e61010086018261772e565b5050505050565b60006101c0820190506178ab6000830189616543565b6178b86020830188616562565b6178c56040830187616562565b6178d26060830186616562565b6178df6080830185616999565b6178ec60a08301846177b2565b979650505050505050565b600060408201905061790c6000830185616796565b6179196020830184616f51565b9392505050565b60006040820190506179356000830185616562565b6179426020830184616562565b9392505050565b60006179548261668b565b915061795f8361668b565b9250828201905067ffffffffffffffff81111561797f5761797e61754d565b5b92915050565b600060c08201905061799a600083018961681e565b6179a7602083018861681e565b6179b46040830187616796565b6179c16060830186616562565b6179ce6080830185616562565b6179db60a0830184616f51565b979650505050505050565b600060a0820190506179fb600083018861681e565b617a08602083018761681e565b617a156040830186616543565b617a226060830185616562565b617a2f6080830184616562565b9695505050505050565b6000617a4482616dce565b9150617a4f83616dce565b925082820390506bffffffffffffffffffffffff811115617a7357617a7261754d565b5b92915050565b6000617a94617a8f617a8a84616dce565b616915565b616814565b9050919050565b617aa481617a79565b82525050565b6000604082019050617abf6000830185616f51565b617acc6020830184617a9b565b9392505050565b617adc816174bf565b8114617ae757600080fd5b50565b600081519050617af981617ad3565b92915050565b600060208284031215617b1557617b14616681565b5b6000617b2384828501617aea565b91505092915050565b7f4d7573742062652070726f706f736564206f776e657200000000000000000000600082015250565b6000617b6260168361686e565b9150617b6d82617b2c565b602082019050919050565b60006020820190508181036000830152617b9181617b55565b9050919050565b6000617ba38261668b565b915067ffffffffffffffff8203617bbd57617bbc61754d565b5b600182019050919050565b6000617bd382616dce565b9150617bde83616dce565b925082820190506bffffffffffffffffffffffff811115617c0257617c0161754d565b5b92915050565b6000617c1382616814565b9150617c1e83616814565b9250828201905080821115617c3657617c3561754d565b5b92915050565b6000604082019050617c51600083018561681e565b617c5e602083018461681e565b9392505050565b600081519050919050565b600082825260208201905092915050565b6000819050602082019050919050565b617c9a81616814565b82525050565b6000617cac8383617c91565b60208301905092915050565b6000602082019050919050565b6000617cd082617c65565b617cda8185617c70565b9350617ce583617c81565b8060005b83811015617d16578151617cfd8882617ca0565b9750617d0883617cb8565b925050600181019050617ce9565b5085935050505092915050565b6000604082019050617d38600083018561681e565b8181036020830152617d4a8184617cc5565b90509392505050565b6000606082019050617d68600083018661681e565b617d756020830185616f7b565b617d8260408301846174cb565b949350505050565b600060029050919050565b600081905092915050565b6000819050919050565b6000602082019050919050565b617dc081617d8a565b617dca8184617d95565b9250617dd582617da0565b8060005b83811015617e06578151617ded8782617ca0565b9650617df883617daa565b925050600181019050617dd9565b505050505050565b6000604082019050617e236000830184617db7565b92915050565b600081519050617e3881616e8e565b92915050565b600060208284031215617e5457617e53616681565b5b6000617e6284828501617e29565b91505092915050565b6000604082019050617e806000830185616f51565b617e8d602083018461681e565b9392505050565b7f4f6e6c792063616c6c61626c65206279206f776e657200000000000000000000600082015250565b6000617eca60168361686e565b9150617ed582617e94565b602082019050919050565b60006020820190508181036000830152617ef981617ebd565b9050919050565b6000608082019050617f156000830187616ee7565b617f226020830186616f51565b617f2f6040830185616796565b617f3c6060830184616796565b95945050505050565b6000604082019050617f5a6000830185616ee7565b617f67602083018461681e565b9392505050565b600060c082019050617f83600083018961681e565b617f906020830188616796565b617f9d6040830187616796565b617faa6060830186616562565b617fb76080830185616562565b617fc460a0830184616f51565b979650505050505050565b6000617fea617fe5617fe08461668b565b616915565b616814565b9050919050565b617ffa81617fcf565b82525050565b60006020820190506180156000830184617ff1565b92915050565b60008151905061802a81616c8b565b92915050565b60006020828403121561804657618045616681565b5b60006180548482850161801b565b91505092915050565b6000819050919050565b61807861807382616814565b61805d565b82525050565b6000819050919050565b6180996180948261659d565b61807e565b82525050565b60006180ab8285618067565b6020820191506180bb8284618088565b6020820191508190509392505050565b60006180d682616814565b91506180e183616814565b92508282026180ef81616814565b915082820484148315176181065761810561754d565b5b5092915050565b7f4e487b7100000000000000000000000000000000000000000000000000000000600052601260045260246000fd5b600061814782616814565b915061815283616814565b9250826181625761816161810d565b5b828204905092915050565b7f43616e6e6f74207472616e7366657220746f2073656c66000000000000000000600082015250565b60006181a360178361686e565b91506181ae8261816d565b602082019050919050565b600060208201905081810360008301526181d281618196565b9050919050565b60006060820190506181ee600083018561681e565b6181fb6020830184617db7565b9392505050565b600069ffffffffffffffffffff82169050919050565b61822181618202565b811461822c57600080fd5b50565b60008151905061823e81618218565b92915050565b60008151905061825381616a36565b92915050565b600080600080600060a0868803121561827557618274616681565b5b60006182838882890161822f565b955050602061829488828901618244565b94505060406182a588828901617e29565b93505060606182b688828901617e29565b92505060806182c78882890161822f565b9150509295509295909350565b7f7075626c6963206b6579206973206e6f74206f6e206375727665000000000000600082015250565b600061830a601a8361686e565b9150618315826182d4565b602082019050919050565b60006020820190508181036000830152618339816182fd565b9050919050565b7f67616d6d61206973206e6f74206f6e2063757276650000000000000000000000600082015250565b600061837660158361686e565b915061838182618340565b602082019050919050565b600060208201905081810360008301526183a581618369565b9050919050565b7f6347616d6d615769746e657373206973206e6f74206f6e206375727665000000600082015250565b60006183e2601d8361686e565b91506183ed826183ac565b602082019050919050565b60006020820190508181036000830152618411816183d5565b9050919050565b7f73486173685769746e657373206973206e6f74206f6e20637572766500000000600082015250565b600061844e601c8361686e565b915061845982618418565b602082019050919050565b6000602082019050818103600083015261847d81618441565b9050919050565b7f6164647228632a706b2b732a6729213d5f755769746e65737300000000000000600082015250565b60006184ba60198361686e565b91506184c582618484565b602082019050919050565b600060208201905081810360008301526184e9816184ad565b9050919050565b7f696e76616c69642070726f6f6600000000000000000000000000000000000000600082015250565b6000618526600d8361686e565b9150618531826184f0565b602082019050919050565b6000602082019050818103600083015261855581618519565b9050919050565b7f696e76616c696420782d6f7264696e6174650000000000000000000000000000600082015250565b600061859260128361686e565b915061859d8261855c565b602082019050919050565b600060208201905081810360008301526185c181618585565b9050919050565b7f696e76616c696420792d6f7264696e6174650000000000000000000000000000600082015250565b60006185fe60128361686e565b9150618609826185c8565b602082019050919050565b6000602082019050818103600083015261862d816185f1565b9050919050565b7f626164207769746e657373000000000000000000000000000000000000000000600082015250565b600061866a600b8361686e565b915061867582618634565b602082019050919050565b600060208201905081810360008301526186998161865d565b9050919050565b600060ff82169050919050565b6186b6816186a0565b82525050565b60006080820190506186d16000830187616ee7565b6186de60208301866186ad565b6186eb6040830185616ee7565b6186f86060830184616ee7565b95945050505050565b600081905092915050565b61871581616814565b82525050565b6000618727838361870c565b60208301905092915050565b61873c81617d8a565b6187468184618701565b925061875182617da0565b8060005b83811015618782578151618769878261871b565b965061877483617daa565b925050600181019050618755565b505050505050565b60006187968286618067565b6020820191506187a68285618733565b6040820191506187b68284618067565b602082019150819050949350505050565b60006187d38284618067565b60208201915081905092915050565b7f706f696e747320696e2073756d206d7573742062652064697374696e63740000600082015250565b6000618818601e8361686e565b9150618823826187e2565b602082019050919050565b600060208201905081810360008301526188478161880b565b9050919050565b7f4669727374206d756c20636865636b206661696c656400000000000000000000600082015250565b600061888460168361686e565b915061888f8261884e565b602082019050919050565b600060208201905081810360008301526188b381618877565b9050919050565b7f5365636f6e64206d756c20636865636b206661696c6564000000000000000000600082015250565b60006188f060178361686e565b91506188fb826188ba565b602082019050919050565b6000602082019050818103600083015261891f816188e3565b9050919050565b60008160601b9050919050565b600061893e82618926565b9050919050565b600061895082618933565b9050919050565b61896861896382616718565b618945565b82525050565b600061897a8289618067565b60208201915061898a8288618733565b60408201915061899a8287618733565b6040820191506189aa8286618733565b6040820191506189ba8285618733565b6040820191506189ca8284618957565b601482019150819050979650505050505050565b7f7a65726f207363616c6172000000000000000000000000000000000000000000600082015250565b6000618a14600b8361686e565b9150618a1f826189de565b602082019050919050565b60006020820190508181036000830152618a4381618a07565b9050919050565b6000618a5582616814565b9150618a6083616814565b925082618a7057618a6f61810d565b5b828206905092915050565b6000618a878284618733565b60408201915081905092915050565b7f696e765a206d75737420626520696e7665727365206f66207a00000000000000600082015250565b6000618acc60198361686e565b9150618ad782618a96565b602082019050919050565b60006020820190508181036000830152618afb81618abf565b9050919050565b7f6269674d6f64457870206661696c757265210000000000000000000000000000600082015250565b6000618b3860128361686e565b9150618b4382618b02565b602082019050919050565b60006020820190508181036000830152618b6781618b2b565b905091905056fea26469706673582212206fa8e663ca491fbe1aeeb629b6bed5790223faabe8440c39c6cd7b08954be51864736f6c63430008180033",
  "linkReferences": {},
  "deployedLinkReferences": {}
}